S00C000052544F532E73726563D0
S1130000F7C1000026C2000024C2000022C2000082
S113001020C200001EC200001CC200001AC2000060
S113002018C2000016C2000014C2000012C2000070
S113003010C200000C94C50A0CC200000AC20000E1
S113004008C2000006C2000004C2000002C2000090
S113005000C20000FEC10000FCC100000C94141A90
S1130060F8C100000C94CE170C940D18F2C10000D6
S1130070F0C10000EEC10000ECC10000EAC10000C4
S1130080E8C10000E6C10000E4C10000E2C10000D4
S11300900C9479180C94B818DCC100000C94C411A9
S11300A0D8C10000D6C10000D4C10000D2C10000F4
S11300B0D0C10000CEC10000CCC10000CAC1000004
S11300C0C8C10000C6C10000C4C10000C2C1000014
S11300D0C0C10000BEC10000BCC10000BAC1000024
S11300E0B8C10000CA12CD12CD12CD12CD12CD125C
S11300F0CD12CD12E411CD12CD12CD12CD12CD12EE
S1130100CD12CD12E411CD12CD12CD12CD12CD12DD
S1130110CD12CD12EC11CD12CD12CD12CD12CD12C5
S1130120CD12CD121112CD12CD12CD12CD12CD128F
S1130130CD12CD12EC11CD12CD12CD12CD12CD12A5
S1130140CD12CD121612CD12CD12CD12CD12CD126A
S1130150CD12CD121B12CD12CD12CD12CD12CD1255
S1130160CD12CD122C12CD12CD12CD12CD12CD1234
S1130170CD12CD125512CD12CD12CD12CD12CD12FB
S1130180CD12CD122012CD12CD12CD12CD12CD1220
S1130190CD12CD123A12CD12CD12CD12CD12CD12F6
S11301A0CD12CD125712CD12CD12CD12CD12CD12C9
S11301B0CD12CD125712CD12CD12CD12CD12CD12B9
S11301C0CD12CD125712CD12CD12CD12CD12CD12A9
S11301D0CD12CD125712CD12CD12CD12CD12CD1299
S11301E0CD12CD126012CD12CD12CD12CD12CD1280
S11301F0CD12CD129112CD12CD12CD12CD12CD123F
S1130200CD12CD126012CD12CD12CD12CD12CD125F
S1130210CD12CD129112CD12CD12CD12CD12CD121E
S1130220CD12CD127812CD12CD12CD12CD12CD1227
S1130230CD12CD129512CD12CD12CD12CD12CD12FA
S1130240CD12CD129512CD12CD12CD12CD12CD12EA
S1130250CD12CD12AA12CD12CD12CD12CD12CD12C5
S1130260CD12CD12C412CD12CD12CD12CD12CD129B
S1130270CD12CD12C412084AD73B3BCE016E84BCCA
S1130280BFFDC12F3D6C74319ABD56833DDA3D00EC
S1130290C77F11BED9E4BB4C3E916BAAAABE000035
S11302A000803F00F31AF71AE11AE71AED1A3C1B13
S11302B0FB1A011B071B0D1B131B191B1F1B251BE3
S11302C03C1B2B1B311B371B00000A0B02090C0DB6
S11302D00E080703040100000000000000000000F5
S11302E0000000000000000000000000000000000A
S11302F000000000121110000000000000000000C7
S113030000000000000000000000000000000102E6
S11303101020200808102040102040800201020113
S113032008040201010204081020408080402010CB
S11303300804020180040201804020100804020124
S1130340080402010102040810204080010204088C
S11303501020408005050505070508080808020265
S113036002020A0A0808040404040101010101014B
S113037001010303030303030303040707070C0C2E
S11303800C0C0C0C0C0C02020202060606060606F5
S113039006060B0B0B0B0B0B0B0B000020002300B2
S11303A0260029002C002F00320000010000030168
S11303B00601090100002200250028002B002E0060
S11303C03100340002010000050108010B010000A6
S11303D02100240027002A002D00300033000101F1
S11303E00000040107010A01C20CB2133618E11817
S11303F011241FBECFEFD1E2DEBFCDBF00E00CBFA2
S113040012E0A0E0B2E0EEEAF8E300E00BBF02C0C5
S113041007900D92AC37B107D9F72AE0ACE7B2E008
S113042001C01D92AA3EB207E1F713E0C0EFD3E08A
S113043000E006C022970109FE010BBF0E942E1C9A
S1130440C83ED10780E00807A9F70E94740C0C94F9
S1130450551CD6CDCF92DF92EF92FF920F931F934C
S1130460E82FF92F05C0015011092109310961F163
S1130470908196239417B9F305C0015011092109FD
S1130480310911F1908196239413F7CFC12CD12C0B
S1130490E12CF12C0AC08FEFC81AD80AE80AF80A2E
S11304A00C151D052E053F0579F0808186238417E0
S11304B091F36C2D7D2D8E2D9F2D1F910F91FF900B
S11304C0EF90DF90CF90089560E070E080E090E0DE
S11304D01F910F91FF90EF90DF90CF900895CF93ED
S11304E0DF93EC010E94D30E80917C0290917D02F7
S11304F0892B31F481E892E090937D0280937C0211
S113050040917E0250917F029E01240F351F2B3DA6
S113051085E0380770F44217530770F4C0917C02E9
S1130520D0917D02C40FD51F30937F0220937E02A9
S113053005C0C0E0D0E002C0C0E0D0E00E94970F48
S1130540CE01DF91CF9108950895FC010396928323
S113055081832FEF3FEF34832383968385839087B2
S1130560878310820895FC01118610860895CF9325
S1130570DF939C01FB01DC011196CD91DC91129774
S1130580D383C2838C819D81958384838C819D8157
S1130590DC0113967C936E9312977D836C83318771
S11305A02087F90180818F5F8083DF91CF91089547
S11305B0CF93DF93EB01488159814F3F2FEF5207CF
S11305C021F4FC01A781B0850DC0DC0113961296BD
S11305D0ED91FC911397208131814217530710F05C
S11305E0DF01F5CF1296ED91FC911397FB83EA831B
S11305F0D583C483BD83AC831396DC93CE931297C7
S113060099878887FC0120812F5F2083DF91CF9118
S11306100895CF93DF93FC01A085B185C281D38176
S1130620848195819D838C83C481D58182819381CA
S11306309B838A831196CD91DC911297CE17DF07A5
S113064031F48C819D8112969C938E93119711861F
S113065010868C9181508C93DF91CF910895CF9324
S1130660DF93EC0186E0E1E1F2E0DE0152960190D5
S11306700D928A95E1F786E0E7E1F2E0DE011C964F
S113068001900D928A95E1F784E0898F1CA21BA248
S11306901DA2DF91CF9108954F925F926F927F9246
S11306A08F929F92AF92BF92CF92DF92EF92FF927E
S11306B00F931F93CF93DF9300D01F92CDB7DEB774
S11306C08C01DC014D905D906D907C901397149695
S11306D08D909D90AD90BC90179718968D919D919B
S11306E00D90BC91A02D89839A83AB83BC83A30115
S11306F09201C301B2010E94F8156B017C01A501AE
S11307009401C501B4010E94F8159B01AC01C70115
S1130710B6010E94B7136B017C0129813A814B8198
S11307205C81CA01B9010E94F8159B01AC01C701A3
S1130730B6010E94B7130E945F166B017C019B01F6
S1130740AC01C301B2010E948114F801608371837A
S113075082839383A7019601C501B4010E94811489
S1130760D80114966D937D938D939C931797A7014D
S1130770960169817A818B819C810E948114F801A0
S113078060877187828793870F900F900F900F90E7
S1130790DF91CF911F910F91FF90EF90DF90CF9059
S11307A0BF90AF909F908F907F906F905F904F908D
S11307B008954F925F926F927F928F929F92AF9221
S11307C0BF92CF92DF92EF92FF920F931F93CF933A
S11307D0DF93CDB7DEB7AA970FB6F894DEBF0FBE8E
S11307E0CDBF8C01298F3A8F4B8F5C8F6D8F7E8F9D
S11307F0DC011696CD90DC901797EE24D7FCE0949C
S1130800FE2C52964D915C915397662757FD609547
S1130810762F1C968D919C911D97AA2797FDA095E4
S1130820BA2F480F591F6A1F7B1FDB01CA017723A8
S11308301CF40196A11DB11DB595A79597958795B3
S1130840A7019601281B390B4A0B5B0B2F8F38A38A
S113085049A35AA3D8011896CD90DC901997EE2499
S1130860D7FCE094FE2C54964D915C9155976627E5
S113087057FD6095762F1E968D919C911F97AA2700
S113088097FDA095BA2F480F591F6A1F7B1FDB01E4
S1130890CA0177231CF40196A11DB11DB595A79536
S11308A097958795A7019601281B390B4A0B5B0B7B
S11308B02BA33CA34DA35EA3D8011A964D905C9044
S11308C01B97662457FC6094762C56964D915C9148
S11308D05797662757FD6095762F50968D919C917A
S11308E05197AA2797FDA095BA2F480F591F6A1F41
S11308F07B1FDB01CA0177231CF40196A11DB11DE6
S1130900B595A79597958795481A590A6A0A7B0A57
S1130910F80184809580AA2497FCA094BA2C828143
S113092093819C01442737FD4095542F2FA338A76A
S113093049A75AA72BA13CA14DA15EA1C501B401B1
S11309400E94DA1B6B017C01A30192016FA178A5BF
S113095089A59AA50E94DA1BA7019601261B370BCD
S1130960480B590BCA01B9010E941C156D877E877B
S11309708F87988BD801CD90DC90EE24D7FCE0943F
S1130980FE2CA3019201C701B6010E94DA1B2B01C0
S11309903C012F8D38A149A15AA1C501B4010E947F
S11309A0DA1BA3019201261B370B480B590BCA0112
S11309B0B9010E941C15698B7A8B8B8B9C8B2F8DB4
S11309C038A149A15AA16FA178A589A59AA50E9429
S11309D0DA1B4B015C012BA13CA14DA15EA1C70117
S11309E0B6010E94DA1BA5019401261B370B480BA4
S11309F0590BCA01B9010E941C156D8B7E8B8F8B1C
S1130A00988FCE010D9648DED80112966D917C9197
S1130A101397882777FD8095982F0E941C156B01EA
S1130A207C012D893E894F89588D2F8F38A349A386
S1130A305AA3D80114966D917C911597882777FD58
S1130A408095982F0E941C152B013C0129893A8915
S1130A504B895C892BA33CA34DA35EA32F8D38A1A6
S1130A6049A15AA1C701B6010E94F8154B015C01C6
S1130A702BA13CA14DA15EA1C301B2010E94F815B6
S1130A809B01AC01C501B4010E94B61369837A834A
S1130A908B839C838D859E85AF85B8898FA398A70A
S1130AA0A9A7BAA7D8016D917C91882777FD809575
S1130AB0982F0E941C154B015C012FA138A549A554
S1130AC05AA5C301B2010E94F8152B013C01A501EE
S1130AD094016F8D78A189A19AA10E94F8159B01B8
S1130AE0AC01C301B2010E94B6136D837E838F8370
S1130AF09887A50194016BA17CA18DA19EA10E9460
S1130B00F8154B015C012FA138A549A55AA5C701C9
S1130B10B6010E94F8159B01AC01C501B4010E9405
S1130B20B61369877A878B879C87CE010196B4DDDB
S1130B30698D7A8D882777FD8095982F0E941C15E2
S1130B402B013C016B8D7C8D882777FD8095982F38
S1130B500E941C154B015C016D8D7E8D882777FDED
S1130B608095982F0E941C156B017C0129813A8184
S1130B704B815C81C301B2010E94F8156F8F78A389
S1130B8089A39AA32D813E814F815885C501B40163
S1130B900E94F8159B01AC016F8D78A189A19AA1DF
S1130BA00E94B7136F8F78A389A39AA329853A85E6
S1130BB04B855C85C701B6010E94F8159B01AC0109
S1130BC06F8D78A189A19AA10E94B7136F8F78A322
S1130BD089A39AA32D853E854F855889C301B20107
S1130BE00E94F8152B013C0129893A894B895C89BB
S1130BF0C501B4010E94F8159B01AC01C301B20107
S1130C000E94B7134B015C012D893E894F89588D91
S1130C10C701B6010E94F8159B01AC01C501B401DE
S1130C200E94B7132F8D38A149A15AA10E942A14FA
S1130C3020E030E044E353E40E94F8152BED3FE05C
S1130C4049E450E40E9481146B017C0120E030E00F
S1130C50A9010E947D14882354F420E030E044EB81
S1130C6053E4C701B6010E94B7136B017C01C701AD
S1130C70B601AA960FB6F894DEBF0FBECDBFDF91C2
S1130C80CF911F910F91FF90EF90DF90CF90BF9085
S1130C90AF909F908F907F906F905F904F9008954A
S1130CA0CF93DF93CDB7DEB72C970FB6F894DEBFA2
S1130CB00FBECDBFFC01218D233079F431E0232F09
S1130CC03F8318861A8619861C861B8630E040E00E
S1130CD05A8560E07C856DDD0EC01A8219822FEF83
S1130CE0422F2B832C831E821D8220E03A815FEFEA
S1130CF060E07E815EDD2C960FB6F894DEBF0FBEF9
S1130D00CDBFDF91CF9108950F931F93CF93DF93BE
S1130D10EC01062F142F6A8D85E599E00E94931348
S1130D20602F85E599E00E943A13612F85E599E0EB
S1130D300E943A1385E599E00E94AF13888FDF91F2
S1130D40CF911F910F9108950F931F93CF93DF932A
S1130D50EC01062F142F6B8D85E599E00E94931307
S1130D60602F85E599E00E943A13612F85E599E0AB
S1130D700E943A1385E599E00E94AF13888FDF91B2
S1130D80CF911F910F910895FC01218D233011F013
S1130D90603210F4D9CF0895B7CF0895CF93DF937D
S1130DA0EC01898D8330A9F440E061E2CE01ECDFEF
S1130DB047E560E2CE01E8DF44E664E2CE01E4DF29
S1130DC040E265E2CE01E0DF40E066E2CE01DCDF36
S1130DD01FC0823049F448E063E2CE0195DF47E466
S1130DE060E2CE0191DF08C040E063E2CE018CDF17
S1130DF047E260E2CE0188DF4CE060E0CE01A4DF90
S1130E0040E261E0CE01A0DF40E062E0CE019CDF81
S1130E10DF91CF9108959F92AF92BF92CF92DF92CC
S1130E20EF92FF920F931F93CF93DF93EC016A8DA0
S1130E3085E599E00E949313E0915509F0915609D4
S1130E400190F081E02D68EA85E599E0199585E542
S1130E5099E00E94AF13888F46E06A8D85E599E09A
S1130E600E9490130E945E1A8B0110C08BA19CA15A
S1130E70892B61F00E945E1A601B710B8BA19CA1EF
S1130E808617970718F481E08DA332C085E599E0B1
S1130E900E94E012069754F385E599E00E94E81257
S1130EA0A82E85E599E00E94E812982E85E599E040
S1130EB00E94E812082F85E599E00E94E812B82EF6
S1130EC085E599E00E94E812182F85E599E00E94D3
S1130ED0E812D92CC12CCA28D982C882FB2CE12C57
S1130EE0E02AFB82EA82982F8827812B9D838C83BA
S1130EF0DF91CF911F910F91FF90EF90DF90CF90F2
S1130F00BF90AF909F900895CF92DF92EF92FF929F
S1130F100F931F93CF93DF93EC016B8D85E599E0DD
S1130F200E949313898D833031F46E8D772767FD8A
S1130F307095606804C06D8D772767FD7095E091AA
S1130F405509F09156090190F081E02D85E599E06D
S1130F50199585E599E00E94AF13888F46E06B8D63
S1130F6085E599E00E9490130E945E1A8B0110C0DF
S1130F708BA19CA1892B61F00E945E1A601B710BEE
S1130F808BA19CA18617970718F481E08DA36EC0EE
S1130F9085E599E00E94E012069754F3898D833029
S1130FA0F9F485E599E00E94E812C82E85E599E0F8
S1130FB00E94E812D82E85E599E00E94E812E82EF6
S1130FC085E599E00E94E812F82E85E599E00E94F3
S1130FD0E812082F85E599E00E94E812182F36C020
S1130FE085E599E00E94E812D82E85E599E00E94F3
S1130FF0E812C82E898D811115C085E599E00E94FB
S1131000E812F82E85E599E00E94E812E82E85E5BD
S113101099E00E94E812182F85E599E00E94E812F1
S1131020082F14C085E599E00E94E812182F85E581
S113103099E00E94E812082F85E599E00E94E812E1
S1131040F82E85E599E00E94E812E82E6C2D70E0F8
S11310507D297F836E834E2D50E05F295987488711
S1131060202F30E0C901912B9B878A87DF91CF9194
S11310701F910F91FF90EF90DF90CF900895CF9341
S1131080DF93EC01C8DECE013FDFDF91CF910895FD
S1131090CF93DF93C62FD42F85E599E00E94931355
S11310A06D2F85E599E00E943A1385E599E00E9449
S11310B0AF13811111C041E06C2F85E599E00E94C6
S11310C0901385E599E00E94E012892B41F085E5B3
S11310D099E00E94E81205C08FEF9FEF02C08FEFE6
S11310E09FEFDF91CF9108950F931F93CF93DF93D9
S11310F0EC01162F042F643009F4ADC0423009F01E
S113110047C0ADC04FE06DE1CE01C2DF8934910527
S113111009F4ABC0013041F04FE06EE1CE01B8DF1D
S11311208934910509F4A3C0143011F0133068F523
S11311300023A9F040E269E1CE01AADF019669F03B
S1131140143009F099C04FE06EE1CE01A1DFCC97D5
S113115009F094C001E012E01BC0013099F040E2B4
S113116068E1CE0195DF019669F0143009F089C079
S11311704FE06EE1CE018CDF11E0CC9709F010E076
S113118000E006C0143009F460C0023009F45FC006
S1131190198F113071F108F442C01230C1F01330CC
S11311A009F057C0013011F48DE101C08EE18B8F3D
S11311B08A8F88E08E8F89E08D8F8AE088A38BE008
S11311C08F8F8CE08AA38DE089A381E064C089E1DC
S11311D08A8F8EE18B8F83E08D8F84E08E8F87E002
S11311E08F8F88E088A385E089A386E08AA381E0C5
S11311F052C0013011F489E101C088E18A8F8EE187
S11312008B8F83E08D8F84E08E8F87E08F8F88E0D3
S113121088A385E089A386E08AA381E03CC00130ED
S113122011F489E101C088E18A8F8EE18B8F83E01C
S11312308D8F84E08E8F85E08F8F86E088A387E092
S113124089A388E08AA381E026C080E024C080E0EE
S113125022C081E020C0442309F45ECF53CF8DEF38
S1131260860F823008F062CF0EC001E003C000E0B8
S113127001C001E013E089CF01E08ACF01E010E072
S113128087CF00E085CF4FE06DE1CE0101DF8934E7
S1131290910579F341CFDF91CF911F910F9108957B
S11312A031E1FC013083319722E220833197A3E3BB
S11312B0A08331976083319770833197108231977F
S11312C01082319760E860833197108231971082E1
S11312D031971082319762E06083319763E06083D5
S11312E0319764E06083319765E06083319766E00D
S11312F06083319767E06083319768E0608331975A
S113130069E06083319760E160833197308331977E
S113131032E13083319733E13083319734E13083E4
S1131320319735E13083319736E13083319737E1B6
S11313303083319738E13083319739E13083319705
S113134030E23083319731E2308331972083319713
S113135023E220833197408331975083319726E2EB
S11313602083319727E22083319728E22083319725
S113137029E22083319720E32083319721E32083DE
S11313808997089582E08093B0001092B2008AEFAA
S11313908093B300E0E7F0E080818260808384E0A2
S11313A08093B100A091E508B091E608CD91CDBF3E
S11313B0DD91DEBFFF91EF91DF91CF91BF91AF91AE
S11313C09F918F917F916F915F914F913F912F9159
S11313D01F910F91FF90EF90DF90CF90BF90AF904F
S11313E09F908F907F906F905F904F903F902F9041
S11313F01F900F900CBE0F900BBE0F900FBE0F905E
S1131400089581E008950F920FB6F8940F920CB6E8
S11314100F920BB60F921F9211242F923F924F926C
S11314205F926F927F928F929F92AF92BF92CF9270
S1131430DF92EF92FF920F931F932F933F934F935B
S11314405F936F937F938F939F93AF93BF93CF9348
S1131450DF93EF93FF93A091E508B091E6080DB6F2
S11314600D920EB60D9239D6A091E508B091E6081A
S1131470CD91CDBFDD91DEBFFF91EF91DF91CF9193
S1131480BF91AF919F918F917F916F915F914F9198
S11314903F912F911F910F91FF90EF90DF90CF908C
S11314A0BF90AF909F908F907F906F905F904F9080
S11314B03F902F901F900F900CBE0F900BBE0F907B
S11314C00FBE0F9008950F920FB6F8940F920CB6BA
S11314D00F920BB60F921F9211242F923F924F92AC
S11314E05F926F927F928F929F92AF92BF92CF92B0
S11314F0DF92EF92FF920F931F932F933F934F939B
S11315005F936F937F938F939F93AF93BF93CF9387
S1131510DF93EF93FF93A091E508B091E6080DB631
S11315200D920EB60D9245D48111D7D5A091E50840
S1131530B091E608CD91CDBFDD91DEBFFF91EF9173
S1131540DF91CF91BF91AF919F918F917F916F91D7
S11315505F914F913F912F911F910F91FF90EF90C9
S1131560DF90CF90BF90AF909F908F907F906F90BF
S11315705F904F903F902F901F900F900CBE0F9054
S11315800BBE0F900FBE0F9008959DDF18950F2E80
S1131590FBE0EF2EF2E0FF2EF02D0F2EFDE0CF2E1C
S11315A0F2E0DF2EF02D0F2EFCE58F2EF8E09F2EBB
S11315B0F02D07E012E00F2EF9E0AF2EF2E0BF2E7F
S11315C0F02D0F2EFEE56F2EF8E07F2EF02DC3E0F8
S11315D0D2E00F2EF5E04F2EF2E05F2EF02D0F2E0D
S11315E0F0E62F2EF8E03F2EF02DDDD360E0F7017A
S11315F080810E947B1B85E090E00E946A1A61E072
S1131600F70180810E947B1B8AE090E00E946A1AA5
S113161060E0F70180810E947B1B60E0F60180811D
S11316200E943D1B20E432E44FE050E061E0F6010B
S113163080810E94AB1B9B01772314F42F5F3F4FE3
S1131640B90175956795882777FD8095982F0E9435
S11316501C152DEC3CEC48EE51E40E9481140E94D0
S1131660E914F4017183608360E0F80180810E94D1
S11316707B1B85E090E00E946A1A61E0F80180819A
S11316800E947B1B8AE090E00E946A1A60E0F801E5
S113169080810E947B1B20E432E44FE050E061E053
S11316A0F50180810E94AB1B9B01772314F42F5F0B
S11316B03F4FB90175956795882777FD8095982FD9
S11316C00E941C152DEC3CEC48EE51E40E94811460
S11316D00E94E914F3017183608360E088810E94B1
S11316E07B1B85E090E00E946A1A61E088810E9479
S11316F07B1B8AE090E00E946A1A60E088810E9465
S11317007B1B20E432E44FE050E061E0F201808191
S11317100E94AB1B9B01772314F42F5F3F4FB90149
S113172075956795882777FD8095982F0E941C15DD
S11317302DEC3CEC48EE51E40E9481140E94E91423
S1131740F10171836083F3D384EF91E071D44DCFC1
S1131750C12CD12C760100E010E0C8EED3E00F2EAE
S1131760F8E6AF2EF8E0BF2EF02D0F2EFAE68F2EFE
S1131770F8E09F2EF02D55245394412C0F2EF2E6C1
S11317802F2EF8E03F2EF02D0F2EF4E66F2EF8E00A
S11317907F2EF02D08D386E698E071DCC8D38091C3
S11317A0660890916708BE010E94E91BFB01D50100
S11317B08D919C91BE010E94E91B9B01D4018D91E6
S11317C09C91BE010E94E91BEE9FC001EF9F900D0A
S11317D0900D1124229FA001239F500D500D112420
S11317E0840F951F669F9001679F300D300D112463
S11317F0820F931FBC01882777FD8095982F0E9444
S11318001C150E945F160E94E9140115110511F4BC
S1131810052D142DCB010D970697A8F00E945E1A92
S1131820DC01CB018C199D09AE09BF09893E9340A7
S1131830A105B10540F0D1015C9211964C920E9431
S11318405E1A6B017C0186E698E02ADA0E94E914AC
S1131850F3017183608388EC90E0EAD39BCF26E0A8
S113186040E855E260E070E084E49AE00E946A1780
S113187085E599E03FD742E064E086E698E034DC11
S113188086E698E08BDA86E0EDE1F2E0A8E7B8E0DE
S113189001900D928A95E1F786E0E3E2F2E0A2E797
S11318A0B8E001900D928A95E1F761E080910B0216
S11318B00E943D1B60E080910D020E943D1B60E090
S11318C0809109020E943D1B61E0809107020E9401
S11318D03D1B60E0809105020E943D1B61E0809108
S11318E003020C943D1B0895AF92BF92CF92DF92F6
S11318F0EF92FF920F93CF93DF9300D000D0CDB738
S1131900DEB70E94751AABDFA12CB12CC12CD12CEF
S1131910CE0105967C010AE020E030E040EA50E088
S113192069E272E087EC9CE00DD1CE0103967C0164
S113193009E020E030E04AEF50E063E372E088EA37
S11319409BE000D1CE0101967C0107E020E030E06D
S113195040EA50E066E472E087EC9AE0F3D0FAD112
S113196080E090E026960FB6F894DEBF0FBECDBFA0
S1131970DF91CF910F91FF90EF90DF90CF90BF90C8
S1131980AF90089586E698E00C942F0308950F2EE7
S1131990F0E3BF2EF02D0F2EF2E6EF2EF8E0FF2E2F
S11319A0F02D0F2EFCE5CF2EF8E0DF2EF02D06E60D
S11319B018E084E49AE00E94B516892B09F468C003
S11319C084E49AE00E94CE1680930002883459F48D
S11319D061E484E49AE00E9452196DE084E49AE0A0
S11319E00E94521950C0803509F043C06091010231
S11319F07091020270938D0860938C084AE050E065
S1131A0084E49AE00E940C1A6AE084E49AE00E945A
S1131A105219E6016991799180918C0890918D0811
S1131A20860F971F90938D0880938C084AE050E0AE
S1131A3084E49AE00E940C1A6AE084E49AE00E942A
S1131A405219C017D10731F760918C0870918D0835
S1131A504AE050E084E49AE00E940C1A6AE084E4CC
S1131A609AE00E9452196DE084E49AE00E945219AF
S1131A700AC06EE484E49AE00E9452196DE084E4A2
S1131A809AE00E945219B0920002F701118210826A
S1131A9084E690E0CDD28DCFE091AD08F091AE0810
S1131AA08081811107C08FEF9FEF90931002809384
S1131AB00F020895E091AD08F091AE080580F6811B
S1131AC0E02D0680F781E02D8281938190931002AE
S1131AD080930F020895CF93DF93EC01E091E50822
S1131AE0F091E608938382838091950890919608FB
S1131AF0C817D90768F46091E5087091E6088091E9
S1131B00AB089091AC086E5F7F4F0E94D80217C05B
S1131B106091E5087091E6088091AD089091AE0857
S1131B206E5F7F4F0E94D80280910F029091100245
S1131B30C817D90720F4D0931002C0930F02DF9185
S1131B40CF9108954F925F926F927F928F929F925E
S1131B50AF92BF92CF92DF92EF92FF920F931F93B7
S1131B60CF93DF934C015B012A01390181E290E0BC
S1131B700E946F02EC01009709F4DAC0C114D10489
S1131B8009F0BFC0C2010E946F02988F8F8B892B0E
S1131B9009F0B9C0CE010E94A402CAC0CF0131919C
S1131BA0DA013D93AD01DC018C91882311F02150C1
S1131BB0A9F718A2102F043008F013E01E8B5E0161
S1131BC0B2E0AB0EB11CC5010E94B302CE010C966B
S1131BD00E94B302D987C88784E090E0811B9109F1
S1131BE09D878C87DB8BCA8BA301B401C60158DBAC
S1131BF099838883E114F10419F0F701D183C08338
S1131C000FB6F8940F92809197088F5F809397088E
S1131C108091E5089091E608892BA9F5D093E60810
S1131C20C093E508809197088130E1F581EC98E054
S1131C300E94A5028AEC98E00E94A50283ED98E038
S1131C400E94A5028CED98E00E94A50288EB98E022
S1131C500E94A5028FEA98E00E94A50282EA98E019
S1131C600E94A50289E998E00E94A50288EB98E009
S1131C709093AE088093AD088FEA98E09093AC08F7
S1131C808093AB080FC08091930881110BC0E09141
S1131C90E508F091E6088689081720F0D093E60855
S1131CA0C093E50880918F088F5F80938F088E8999
S1131CB090919408981710F48093940890E09C01F4
S1131CC0220F331F220F331F220F331F820F931F44
S1131CD0B5018F53974F0E94B7020F900FBE8091AA
S1131CE09308882351F0E091E508F091E60886898D
S1131CF0801728F488DB81E01CC081E01AC081E0F1
S1131D0018C0D88ECF8AF1E04F1A5108CF88D88CEA
S1131D10C40CD51CD5018C91898F8C91882309F42E
S1131D2048CFAE01465E5F4FF501319627E036CFCE
S1131D308FEFDF91CF911F910F91FF90EF90DF9084
S1131D40CF90BF90AF909F908F907F906F905F9057
S1131D504F900895AF92BF92CF92DF92EF92FF928D
S1131D600F93A12CB12CC12CD12CE12CF12C00E02F
S1131D7020E030E045E550E066E572E084E390E180
S1131D80E1DE813041F4F894809393081092960830
S1131D9010929508F7DA0F91FF90EF90DF90CF90B3
S1131DA0BF90AF90089580918E088F5F80938E08C6
S1131DB00895CF92DF92EF92FF920F931F93CF93E8
S1131DC0DF9380918E08811199C08091950890913C
S1131DD0960801969093960880939508E09095084C
S1131DE0F0909608E114F104B1F48091AD0890915B
S1131DF0AE082091AB083091AC083093AE08209324
S1131E00AD089093AC088093AB08809190088F5FE5
S1131E108093900841DE80910F0290911002E816A1
S1131E20F90608F454C0D12CCC24C39401C0DC2C92
S1131E30E091AD08F091AE088081811107C08FEF69
S1131E409FEF9093100280930F0242C0E091AD087F
S1131E50F091AE080580F681E02DC681D7812A81F4
S1131E603B81E216F30628F43093100220930F020C
S1131E702FC08E010E5F1F4FC8010E9409038C8979
S1131E809D89892B21F0CE010C960E9409032E898D
S1131E9080919408821710F42093940830E0C901CB
S1131EA0880F991F880F991F880F991F820F931FFE
S1131EB0B8018F53974F0E94B702E091E508F09163
S1131EC0E6089E898689981708F0B1CFB1CFD12C46
S1131ED0E091E508F091E608868990E0FC01EE0FB8
S1131EE0FF1FEE0FFF1FEE0FFF1F8E0F9F1FFC0142
S1131EF0EF53F74F8081823040F409C080919208FB
S1131F008F5F80939208D12C02C0DD24D3948091FA
S1131F109108882311F0DD24D3948D2DDF91CF9186
S1131F201F910F91FF90EF90DF90CF900895DF9273
S1131F30EF92FF920F931F93CF93DF930FB6F89412
S1131F400F9280918E08815080938E0880918E0824
S1131F5081115FC080919708882309F45CC00F2E1B
S1131F60F2EAEF2EF8E0FF2EF02DDD24D39430C0FA
S1131F70E091A708F091A808C681D781CE010C96FC
S1131F800E9409038E010E5F1F4FC8010E940903BE
S1131F908E8990919408981710F48093940890E097
S1131FA09C01220F331F220F331F220F331F820F76
S1131FB0931FB8018F53974F0E94B702E091E50831
S1131FC0F091E6089E898689981710F0D0929108BE
S1131FD0F70180818111CCCF80919208882391F000
S1131FE080919208882371F0C1E0E3DE8111C093EF
S1131FF09108809192088150809392088091920870
S11320008111F3CF80919108813039F4FCD981E0BA
S113201005C080E003C080E001C080E00F900FBEE7
S1132020DF91CF911F910F91FF90EF90DF90089572
S1132030CF93DF93EC01009799F0B5DE809195087A
S113204090919608C80FD91F8091E5089091E608F1
S113205002960E940903CE013EDD69DF811101C0B1
S1132060D2D9DF91CF9108950F2EF1ECEF2EF8E045
S1132070FF2EF02DC9E9D8E026C095DE188157DF80
S1132080112309F10FB6F8940F92E0919E08F09194
S11320909F0806811781C80102960E940903809156
S11320A09708815080939708809198088150809375
S11320B098080F900FBEF8018789908D0E94A402A2
S11320C0C8010E94A402809198088111D6CFF7011B
S11320D080818230C0F397D9F6CF80918E0888230F
S11320E021F081E0809391080895109291088091E5
S11320F0940890E0FC01EE0FFF1FEE0FFF1FEE0FA0
S1132100FF1F8E0F9F1FFC01EF53F74F808181113A
S113211017C080919408815080939408809194080A
S113212090E0FC01EE0FFF1FEE0FFF1FEE0FFF1FED
S11321308E0F9F1FFC01EF53F74F8081882349F3D3
S1132140E0919408F0E0CF01880F991F880F991F40
S1132150880F991FE80FF91FEF53F74FA181B28140
S113216012960D90BC91A02DB283A183CF0103964A
S1132170A817B90731F412968D919C911397928305
S113218081830180F281E02D868197819093E60816
S11321908093E50808951092540981E080935209D0
S11321A01092510961E084E10E947B1B61E085E1AA
S11321B00E947B1BE9EBF0E080818E7F808380812D
S11321C08D7F80838DEF8093B80085E48093BC007D
S11321D00895413208F045C0909154099111FCCF03
S11321E091E090935409209352092FEF2093E7082C
S11321F010922C09240F20932B099093530990914A
S11322005309880F892B8093530980915109813098
S113221051F410925109809153098093BB0085ECCD
S11322208093BC0003C085EE8093BC008091540968
S11322308130E1F380912C09841710F440912C092A
S1132240442389F0EDE2F9E0A62FB72F2FEF240FF6
S113225030E0225D364F91919D93E217F307D9F751
S113226004C080E00895842F0895842F08950F9367
S1132270413208F050C0909154099111FCCF92E082
S113228090935409009352099FEF9093E70810929A
S11322902C0940932B09442369F0FB01ADE2B9E01A
S11322A06F5F7F4F4150640F711D91919D93E617AD
S11322B0F707D9F71092530990915309880F892B86
S11322C08093530980915109813051F4109251093E
S11322D0809153098093BB0085EC8093BC0003C0BC
S11322E085EE8093BC00222341F080915409823012
S11322F021F4809154098230E1F38091E7088F3F03
S113230061F08091E708803251F08091E7088033D2
S113231041F483E007C081E005C080E003C082E0AF
S113232001C084E00F9108956132A8F4209154090A
S1132330243099F460930909662389F0FC01ABE029
S1132340B9E001966150860F911D21912D93E817F4
S1132350F907D9F706C081E0089582E0089580E086
S1132360089580E0089585ED8093BC00ECEBF0E0E7
S1132370808184FDFDCF10925409089585EC8093EB
S1132380BC001092540908951F920F920FB60F9239
S113239011240BB60F922F933F934F935F936F9338
S11323A07F938F939F93AF93BF93EF93FF9380910A
S11323B0B900887F90E0893C910508F0EEC0FC01EB
S11323C0EE58FF4F0C941E1C809153098093BB0060
S11323D085EC8093BC00E1C090912C0980912B097D
S11323E0981780F4E0912C0981E08E0F80932C09DA
S11323F0F0E0E35DF64F80818093BB0085EC809331
S1132400BC00CBC080915209882311F0ACDFC5C059
S113241081E08093510984EA8093BC0010925409AE
S1132420BCC080E28093E7089EDFB7C080E380935E
S1132430E70899DFB2C088E38093E7089FDFADC067
S1132440E0912C0981E08E0F80932C098091BB00D0
S1132450F0E0E35DF64F808390912C0980912B0985
S1132460981720F485EC8093BC0097C085E880938E
S1132470BC0093C0E0912C0981E08E0F80932C095D
S11324808091BB00F0E0E35DF64F808380915209B8
S1132490882311F068DF81C081E08093510984EAC8
S11324A08093BC001092540978C05DDF76C083E04D
S11324B0809354091092E80885EC8093BC006DC0A9
S11324C08091E808803280F4E091E80881E08E0F82
S11324D08093E8088091BB00F0E0E751F74F8083D8
S11324E085EC8093BC0059C085E88093BC0055C03E
S11324F08091E808803230F4E091E808F0E0E75198
S1132500F74F108230DF6091E80870E0E0914D09E8
S1132510F0914E0989EE98E019951092E8082EDFA3
S11325203CC085E88093BC0038C084E080935409A3
S113253010920A0910920909E0914F09F09150098B
S1132540199580910909811105C081E080930909D9
S113255010920B09E0910A0981E08E0F80930A0919
S1132560F0E0E55FF64F80818093BB0090910A090B
S113257080910909981720F485EC8093BC000DC064
S113258085E88093BC0009C085EC8093BC00109260
S1132590540903C01092E708E6DEFF91EF91BF9162
S11325A0AF919F918F917F916F915F914F913F91E7
S11325B02F910F900BBE0F900FBE0F901F90189588
S11325C08091850990E020918609821B91090895E4
S11325D02091860980918509281750F4E22FF0E0B4
S11325E0E957F64F808190E02F5F20938609089584
S11325F08FEF9FEF0895E091860980918509E81790
S113260030F4F0E0E957F64F808190E008958FEFC1
S11326109FEF08950895CF92DF92EF92FF920F9368
S11326201F93CF93DF938C017B016A018091610931
S1132630882399F04115510599F0EB01E40EF51E3C
S11326406991D801ED91FC910190F081E02DC801D0
S11326501995CE15DF05A1F703C0642FC70164DE09
S1132660C601DF91CF911F910F91FF90EF90DF9002
S1132670CF900895CF93DF931F92CDB7DEB76983D0
S1132680209161092223E1F020916209203240F077
S113269021E030E0FC013383228380E090E016C027
S11326A080916309E82FF0E0EC59F64F998190830B
S11326B08F5F809363098093620981E090E006C094
S11326C061E0CE01019630DE81E090E00F90DF9171
S11326D0CF910895FC011382128248EE53E060E02A
S11326E070E044835583668377838FE592E091831A
S11326F080830895109286091092850910926309C7
S11327001092620948CD0895862F413208F040E2C4
S113271067E879E05EDD1092860980938509089563
S113272021E0F2CF089581E08093610960938409E8
S1132730109263091092620908950F93062F21E005
S11327404091620964E679E08091840990DD1092F9
S1132750630910926209109261090F91089561E072
S1132760ECCF089585E599E0B5CF08955058BB277F
S1132770AA270ED0FCC1EDD130F0F2D120F031F413
S11327809F3F11F41EF4BDC10EF4E095E7FBB3C105
S1132790E92FFED180F3BA17620773078407950700
S11327A018F071F49EF516C20EF4E0950B2EBA2FB4
S11327B0A02D0B01B90190010C01CA01A001112443
S11327C0FF27591B99F0593F50F4503E68F11A16EF
S11327D0F040A22F232F342F4427585FF3CF469580
S11327E037952795A795F0405395C9F77EF41F16A2
S11327F0BA0B620B730B840BBAF09150A1F0FF0F6C
S1132800BB1F661F771F881FC2F70EC0BA0F621F57
S1132810731F841F48F4879577956795B795F79547
S11328209E3F08F0B3CF9395880F08F09927EE0FD9
S11328309795879508958DD158F080E891E009F433
S11328409EEF8ED128F040E851E059F45EEF09C0C4
S113285058C1C0C1E92FE0789BD168F3092E052A3D
S1132860C1F3261737074807590738F00E2E07F823
S1132870E02569F0E025E0640AC0EF6307F80094FE
S113288007FADB01B9019D01DC01CA01AD01EF9337
S113289047D06DD10AD05F91552331F02BED3FE045
S11328A049E450FD49EC63CF0895DF93DD27B92F48
S11328B0BF7740E85FE31616170648075B0710F476
S11328C0D92F8FD19F938F937F936F9336D2E6E75F
S11328D0F2E01AD14CD12F913F914F915F9194D155
S11328E0DD2349F09058A2EA2AED3FE049EC5FE38A
S11328F0D0785D274DDFDF913AC1D9D008F481E06B
S113290008950CD034C12CD140F023D130F021F4FF
S11329105F3F19F0F0C051115EC1F3C039D198F393
S11329209923C9F35523B1F3951B550BBB27AA274C
S113293062177307840738F09F5F5F4F220F331FBE
S1132940441FAA1FA9F333D00E2E3AF0E0E830D08A
S113295091505040E695001CCAF729D0FE2F27D08D
S1132960660F771F881FBB1F261737074807AB075B
S1132970B0E809F0BB0B802DBF01FF2793585F4FD0
S11329802AF09E3F510568F0B6C025C15F3FECF3C5
S1132990983EDCF3869577956795B795F7959F5F95
S11329A0C9F7880F911D9695879597F90895E1E0E9
S11329B0660F771F881FBB1F621773078407BA0748
S11329C020F0621B730B840BBA0BEE1F88F7E095A3
S11329D0089504D06894B111FEC00895E1D088F040
S11329E09F5790F0B92F9927B751A0F0D1F0660FF7
S11329F0771F881F991F1AF0BA95C9F712C0B13012
S1132A0081F0E8D0B1E00895E5C0672F782F8827DA
S1132A10B85F39F0B93FCCF3869577956795B39550
S1132A20D9F73EF490958095709561957F4F8F4FBF
S1132A309F4F0895E89409C097FB3EF490958095C4
S1132A40709561957F4F8F4F9F4F9923A9F0F92F70
S1132A5096E9BB279395F695879577956795B795EE
S1132A60F111F8CFFAF4BB0F11F460FF1BC06F5FD4
S1132A707F4F8F4F9F4F16C0882311F096E911C0E6
S1132A80772321F09EE8872F762F05C0662371F007
S1132A9096E8862F70E060E02AF09A95660F771F1B
S1132AA0881FDAF7880F9695879597F90895990FF7
S1132AB00008550FAA0BE0E8FEEF16161706E80704
S1132AC0F907C0F012161306E407F50798F0621B25
S1132AD0730B840B950B39F40A2661F0232B242BFA
S1132AE0252B21F408950A2609F4A140A6958FEF19
S1132AF0811D811D089597F99F6780E870E060E06B
S1132B0008959FEF80EC0895DF93CF931F930F9365
S1132B10FF92EF92DF927B018C01689405C0DA2E5C
S1132B20EF0172D0FE01E894A5912591359145916C
S1132B305591AEF3EF012CDEFE019701A801DA9462
S1132B4079F7DF90EF90FF900F911F91CF91DF9174
S1132B50089500240A9416161706180609060895FF
S1132B6000240A9412161306140605060895092E65
S1132B700394000C11F4882352F0BB0F40F4BF2BD4
S1132B8011F460FF04C06F5F7F4F8F4F9F4F089514
S1132B9057FD9058440F551F59F05F3F71F047950A
S1132BA0880F97FB991F61F09F3F79F087950895EF
S1132BB0121613061406551FF2CF4695F1DF08C00E
S1132BC0161617061806991FF1CF8695710561052B
S1132BD008940895E894BB2766277727CB0197F9D3
S1132BE008959B01AC0160E070E080E89FE389CE2A
S1132BF00BD0BDCFAEDF28F0B3DF18F0952309F07A
S1132C007ACF7FCF1124E7CFC3DFA0F3959FD1F311
S1132C10950F50E0551F629FF001729FBB27F00D86
S1132C20B11D639FAA27F00DB11DAA1F649F6627DB
S1132C30B00DA11D661F829F2227B00DA11D621F2A
S1132C40739FB00DA11D621F839FA00D611D221FE4
S1132C50749F3327A00D611D231F849F600D211DC8
S1132C60822F762F6A2F11249F5750408AF0E1F06B
S1132C7088234AF0EE0FFF1FBB1F661F771F881FB4
S1132C8091505040A9F79E3F510570F034CFA3CF27
S1132C905F3FECF3983EDCF3869577956795B7959F
S1132CA0F795E7959F5FC1F7FE2B880F911D9695C9
S1132CB0879597F9089511F40EF423CF41C070DF7E
S1132CC0D0F39923D9F3CEF39F57550B87FF46D002
S1132CD00024A0E640EA900180585695979528F480
S1132CE0805C660F771F881F20F026173707480778
S1132CF030F4621B730B840B202931294A2BA695CF
S1132D0017940794202531254A2758F7660F771F13
S1132D10881F20F026173707480730F4620B730B1F
S1132D20840B200D311D411DA09581F7B901842F1D
S1132D309158880F9695879508959B01AC0158CFBB
S1132D409F3F31F0915020F4879577956795B7951B
S1132D50880F911D9695879597F908959150504045
S1132D60660F771F881FD2F70895FC01818D228D8D
S1132D7090E0805C9F4F821B91098F73992708957F
S1132D80FC01918D828D981731F0828DE80FF11D31
S1132D90858D90E008958FEF9FEF0895FC01918D4C
S1132DA0828D981761F0828DDF01A80FB11D5D96A9
S1132DB08C91928D9F5F9F73928F90E008958FEF17
S1132DC09FEF0895FC01848DDF01A80FB11DA35A64
S1132DD0BF4F2C91848D90E001968F739078848FEF
S1132DE0A689B7892C93A089B1898C9180648C932E
S1132DF0938D848D981306C00288F389E02D808119
S1132E008F7D80830895CF93DF93EC01888D8111AA
S1132E100AC01AC00FB607FC08C0808185FF05C030
S1132E200DC0CE01CFDFEA89FB89808185FDF2CF19
S1132E30A889B9898C9186FFEDCF06C0A889B98984
S1132E408C9185FFF2CFEDCFDF91CF9108950F9351
S1132E501F93CF93DF93EC01162F81E0888F9B8D16
S1132E608C8D981321C0E889F989808185FD23C060
S1132E701BC00FB607FC07C0E889F989808185FF6C
S1132E8002C0CE019FDF9C8D091799F38B8DFE0143
S1132E90E80FF11DE35AFF4F10830B8FEA89FB897A
S1132EA08081806280830FC08B8D90E001968F7348
S1132EB09078082FE8CFEE89FF896083E889F98943
S1132EC080818064808381E090E0DF91CF911F91C5
S1132ED00F910895CF92DF92EF92FF921F93CF93B9
S1132EE0DF93EC016A017B01122FE889F98982E002
S1132EF08083411581EE580761057105A9F060E0F2
S1132F0079E08DE390E0A701960176D4BA01A90196
S1132F10415051096109710976956795579547950F
S1132F20411580E15807A0F0E889F989108260E82A
S1132F3074E88EE190E0A70196015ED4BA01A9017C
S1132F4041505109610971097695679557954795DF
S1132F50EC85FD855083EE85FF854083188EEC89D2
S1132F60FD891083EA89FB89808180618083EA89F5
S1132F70FB89808188608083EA89FB8980818068FD
S1132F808083EA89FB8980818F7D8083DF91CF9163
S1132F901F91FF90EF90DF90CF9008951F920F92B2
S1132FA00FB60F9211240BB60F922F938F939F930A
S1132FB0AF93BF93EF93FF93E091B709F091B809F2
S1132FC0808182FD17C0E091BD09F091BE09208186
S1132FD08091C0098F5F8F739091C109891779F02F
S1132FE0E0ECF9E0A081B0E0A955B64F5D962C93D2
S1132FF0808305C0E091BD09F091BE098081FF91F5
S1133000EF91BF91AF919F918F912F910F900BBE34
S11330100F900FBE0F901F9018951F920F920FB62E
S11330200F9211240BB60F922F933F934F935F93FC
S11330306F937F938F939F93AF93BF93EF93FF937C
S113304087EA99E0BFDEFF91EF91BF91AF919F9125
S11330508F917F916F915F914F913F912F910F903D
S11330600BBE0F900FBE0F901F9018951092AA09D7
S11330701092A90988EE93E0A0E0B0E08093AB0938
S11330809093AC09A093AD09B093AE098FE692E09A
S11330909093A8098093A70985EC90E09093B409D4
S11330A08093B30984EC90E09093B6098093B509BA
S11330B080EC90E09093B8098093B70981EC90E09C
S11330C09093BA098093B90982EC90E09093BC097B
S11330D08093BB0986EC90E09093BE098093BD0970
S11330E01092C0091092C1091092C2091092C3092A
S11330F008951F920F920FB60F9211240BB60F92E0
S11331002F938F939F93AF93BF93EF93FF93E0918C
S1133110540AF091550A808182FD17C0E0915A0A41
S1133120F0915B0A208180915D0A8F5F8F7390918B
S11331305E0A891779F0EDE5FAE0A081B0E0AC5BB6
S1133140B54F5D962C93808305C0E0915A0AF091A7
S11331505B0A8081FF91EF91BF91AF919F918F9115
S11331602F910F900BBE0F900FBE0F901F901895CC
S11331701F920F920FB60F9211240BB60F922F933A
S11331803F934F935F936F937F938F939F93AF93EB
S1133190BF93EF93FF9384E49AE014DEFF91EF91E1
S11331A0BF91AF919F918F917F916F915F914F915B
S11331B03F912F910F900BBE0F900FBE0F901F9059
S11331C018951092470A1092460A88EE93E0A0E000
S11331D0B0E08093480A9093490AA0934A0AB093B6
S11331E04B0A8FE692E09093450A8093440A8DEC53
S11331F090E09093510A8093500A8CEC90E0909365
S1133200530A8093520A88EC90E09093550A809375
S1133210540A89EC90E09093570A8093560A8AECFA
S113322090E09093590A8093580A8EEC90E0909322
S11332305B0A80935A0A10925D0A10925E0A1092F9
S11332405F0A1092600A0895CF92DF92EF92FF9284
S11332500F931F93CF93DF936C0141155105B1F088
S1133260062F172FEA01E12CF12CD8016D918D0165
S1133270D601ED91FC910190F081E02DC6011995E4
S1133280E80EF91E2197209781F702C0E12CF12C5A
S1133290C701DF91CF911F910F91FF90EF90DF90C5
S11332A0CF900895DC01ED91FC910190F081E02D27
S11332B0199508956F927F928F929F92AF92BF92C9
S11332C0CF92DF92EF92FF920F931F93CF93DF93EE
S11332D0CDB7DEB7A1970FB6F894DEBF0FBECDBF52
S11332E06C01742E352F862F972F622E19A221E0A0
S11332F0261520F00F2EFAE06F2EF02D7E01A1E2AC
S1133300EA0EF11C862C912CA12CB12C672D732F65
S1133310A501940171D2E22F732F022F132F242FB2
S1133320352FF72D6E9EF0191124B1E0EB1AF10838
S1133330FA3010F4F05D01C0F95CD701FC93012B65
S1133340022B032B29F07E2E372F842F952FDECFCF
S1133350E114F10491F0F70101900020E9F73197AD
S1133360AF014E195F09D601ED91FC910280F38102
S1133370E02DB701C601199502C080E090E0A19646
S11333800FB6F894DEBF0FBECDBFDF91CF911F9172
S11333900F91FF90EF90DF90CF90BF90AF909F90F0
S11333A08F907F906F900895CF92DF92EF92FF926B
S11333B00F931F93CF93DF93EC016A017B012115D7
S11333C0310541F4E881F9810190F081E02D642F09
S11333D0199519C02A303105A9F4772384F46DE2D4
S11333E061DF8C0144275527BA014C195D096E0928
S11333F07F092AE0CE015EDF800F911F04C02AE01E
S113340059DF01C057DFDF91CF911F910F91FF90DA
S1133410EF90DF90CF9008959A01AB01662757FD96
S11334206095762FC1CF08951F920F920FB60F9219
S113343011242F933F938F939F93AF93BF938091C6
S1133440E20A9091E30AA091E40AB091E50A30916E
S1133450E10A23E0230F2D3720F40196A11DB11DAD
S113346005C026E8230F0296A11DB11D2093E10A91
S11334708093E20A9093E30AA093E40AB093E50AE6
S11334808091E60A9091E70AA091E80AB091E90ACE
S11334900196A11DB11D8093E60A9093E70AA093BB
S11334A0E80AB093E90ABF91AF919F918F913F9140
S11334B02F910F900FBE0F901F9018952FB7F8946F
S11334C06091E20A7091E30A8091E40A9091E50A1E
S11334D02FBF08958230910538F0880F991F880F07
S11334E0991F05970197F1F70895789484B5826040
S11334F084BD84B5816084BD85B5826085BD85B594
S1133500816085BDEEE6F0E0808181608083E1E842
S1133510F0E010828081826080838081816080837A
S1133520E0E8F0E0808181608083E1EBF0E080817D
S113353084608083E0EBF0E0808181608083E1E956
S1133540F0E0808182608083808181608083E0E913
S1133550F0E0808181608083E1EAF0E08081826034
S11335608083808181608083E0EAF0E080818160F3
S11335708083E1E2F1E080818260808380818160E8
S11335808083E0E2F1E0808181608083EAE7F0E01B
S11335908081846080838081826080838081816077
S11335A080838081806880831092C100089590E0B8
S11335B0FC013197E231F10508F05EC0EE5AFE4F8E
S11335C03DC1E0E8F0E080818F7780830895E0E8F2
S11335D0F0E080818F7D80830895E0E8F0E08081D1
S11335E0877F8083089584B58F7784BD089584B5DB
S11335F08F7D84BD0895E0EBF0E080818F77808338
S11336000895E0EBF0E080818F7D80830895E0E908
S1133610F0E080818F7780830895E0E9F0E0808195
S11336208F7D80830895E0E9F0E08081877F808347
S11336300895E0EAF0E080818F7780830895E0EADE
S1133640F0E080818F7D80830895E0EAF0E080815E
S1133650877F80830895E0E2F1E080818F77808323
S11336600895E0E2F1E080818F7D80830895E0E2B7
S1133670F1E08081877F80830895CF93DF9390E08A
S1133680FC01E25FFC4F2491FC01EC5AFC4F849155
S1133690882371F190E0880F991FFC01E253FC4FDD
S11336A0A591B4918C549C4FFC01C591D4916111A6
S11336B00BC08FB7F8949C91209592239C93E8813A
S11336C02E2328838FBF14C0623061F48FB7F8941F
S11336D03C91922F909593239C93E8812E2B2883E1
S11336E08FBF06C08FB7F894EC912E2B2C938FBF0D
S11336F0DF91CF9108951F93CF93DF93C62F282F87
S113370030E0F901E853FD4F8491F901E25FFC4F89
S11337101491F901EC5AFC4FD491DD23C1F08111CD
S113372046DF2D2F30E0F901EE0FFF1FEC54FC4F64
S1133730A591B4918FB7F894C11105C0EC9110957F
S11337401E231C9303C0EC911E2B1C938FBFDF918F
S1133750CF911F9108950F931F93762F90E0FC0152
S1133760E25FFC4F6491FC01EC5AFC4FE49171114F
S1133770762FF0E0EE0FFF1FE656FC4F85919491F3
S113378089019A013F70472F0E942A026115710531
S11337908105910549F0DC01CB010196A11DB11D04
S11337A0BC01CD019F7003C060E070E0CB011F91AC
S11337B00F910895DB018F939F9346D0BF91AF91F2
S11337C0A29F800D911DA39F900DB29F900D112477
S11337D0089597FB072E16F4009406D077FD08D0C1
S11337E041D007FC05D03EF4909581959F4F0895F4
S11337F0709561957F4F0895A1E21A2EAA1BBB1BF9
S1133800FD010DC0AA1FBB1FEE1FFF1FA217B307A8
S1133810E407F50720F0A21BB30BE40BF50B661FBE
S1133820771F881F991F1A9469F760957095809582
S113383090959B01AC01BD01CF010895EE0FFF1FD0
S11338400590F491E02D199421D0A59F900DB49F7B
S1133850900DA49F800D911D112408950790F69159
S1133860E02D1994AA1BBB1B51E107C0AA1FBB1F63
S1133870A617B70710F0A61BB70B881F991F5A95F8
S1133880A9F780959095BC01CD010895A29FB00140
S1133890B39FC001A39F700D811D1124911DB29F80
S11138A0700D811D1124911D0895F894FFCF21
S11338AE300500080007000600050004000300FFB1
S11338BEFF018001800180FF7FFF7FFF7F20075B78
S11338CE014F045C07A401B30448616E647368611C
S11338DE6B65005265616420416363656C65726F4C
S11338EE6D65746572005265616420556C74726105
S11338FE736F6E69630049444C4500000000003A42
S113390E130B13E012E812FB120A13000000002737
S10F391E172419B516CE16C016031700A6
S9030000FC
