S00C000052544F532E73726563D0
S1130000F6C1000025C2000023C2000021C2000086
S11300101FC200001DC200001BC2000019C2000064
S113002017C2000015C2000013C2000011C2000074
S11300300FC200000C943C0C0BC2000009C200006B
S113004007C2000005C2000003C2000001C2000094
S1130050FFC10000FDC10000FBC100000C94681B3F
S1130060F7C100000C94CD190C940C1AF1C10000D6
S1130070EFC10000EDC10000EBC10000E9C10000C8
S1130080E7C10000E5C10000E3C10000E1C10000D8
S1130090DFC10000DDC10000DBC100000C94C3130C
S11300A0D7C10000D5C10000D3C10000D1C10000F8
S11300B0CFC10000CDC10000CBC10000C9C1000008
S11300C0C7C10000C5C10000C3C10000C1C1000018
S11300D0BFC10000BDC10000BBC10000B9C1000028
S11300E0B7C10000C914CC14CC14CC14CC14CC1457
S11300F0CC14CC14E313CC14CC14CC14CC14CC14E6
S1130100CC14CC14E313CC14CC14CC14CC14CC14D5
S1130110CC14CC14EB13CC14CC14CC14CC14CC14BD
S1130120CC14CC141014CC14CC14CC14CC14CC1487
S1130130CC14CC14EB13CC14CC14CC14CC14CC149D
S1130140CC14CC141514CC14CC14CC14CC14CC1462
S1130150CC14CC141A14CC14CC14CC14CC14CC144D
S1130160CC14CC142B14CC14CC14CC14CC14CC142C
S1130170CC14CC145414CC14CC14CC14CC14CC14F3
S1130180CC14CC141F14CC14CC14CC14CC14CC1418
S1130190CC14CC143914CC14CC14CC14CC14CC14EE
S11301A0CC14CC145614CC14CC14CC14CC14CC14C1
S11301B0CC14CC145614CC14CC14CC14CC14CC14B1
S11301C0CC14CC145614CC14CC14CC14CC14CC14A1
S11301D0CC14CC145614CC14CC14CC14CC14CC1491
S11301E0CC14CC145F14CC14CC14CC14CC14CC1478
S11301F0CC14CC149014CC14CC14CC14CC14CC1437
S1130200CC14CC145F14CC14CC14CC14CC14CC1457
S1130210CC14CC149014CC14CC14CC14CC14CC1416
S1130220CC14CC147714CC14CC14CC14CC14CC141F
S1130230CC14CC149414CC14CC14CC14CC14CC14F2
S1130240CC14CC149414CC14CC14CC14CC14CC14E2
S1130250CC14CC14A914CC14CC14CC14CC14CC14BD
S1130260CC14CC14C314CC14CC14CC14CC14CC1493
S1130270CC14CC14C314084AD73B3BCE016E84BCC7
S1130280BFFDC12F3D6C74319ABD56833DDA3D00EC
S1130290C77F11BED9E4BB4C3E916BAAAABE000035
S11302A000803F004A1C4E1C381C3E1C441C931CFE
S11302B0521C581C5E1C641C6A1C701C761C7C1C22
S11302C0931C821C881C8E1C00000A0B02090C0D56
S11302D00E080703040100000000000000000000F5
S11302E0000000000000000000000000000000000A
S11302F000000000121110000000000000000000C7
S113030000000000000000000000000000000102E6
S11303101020200808102040102040800201020113
S113032008040201010204081020408080402010CB
S11303300804020180040201804020100804020124
S1130340080402010102040810204080010204088C
S11303501020408005050505070508080808020265
S113036002020A0A0808040404040101010101014B
S113037001010303030303030303040707070C0C2E
S11303800C0C0C0C0C0C02020202060606060606F5
S113039006060B0B0B0B0B0B0B0B000020002300B2
S11303A0260029002C002F00320000010000030168
S11303B00601090100002200250028002B002E0060
S11303C03100340002010000050108010B010000A6
S11303D02100240027002A002D00300033000101F1
S11303E00000040107010A01E20EB115351A1124B7
S11303F01FBECFEFD1E2DEBFCDBF00E00CBF12E0E5
S1130400A0E0B2E0ECE5FBE300E00BBF02C0079024
S11304100D92A639B107D9F72AE0A6E9B2E001C0E6
S11304201D92AD38B207E1F713E0CEEED3E000E061
S113043006C022970109FE010BBF0E94851DC83E1C
S1130440D10780E00807A9F70E94760E0C94AC1D32
S1130450D7CDCF92DF92EF92FF920F931F93E82FA5
S1130460F92F05C0015011092109310961F1908169
S113047096239417B9F305C00150110921093109D4
S113048011F1908196239413F7CFC12CD12CE12C38
S1130490F12C0AC08FEFC81AD80AE80AF80A0C151A
S11304A01D052E053F0579F080818623841791F37D
S11304B06C2D7D2D8E2D9F2D1F910F91FF90EF9010
S11304C0DF90CF90089560E070E080E090E01F91AD
S11304D00F91FF90EF90DF90CF900895CF93DF932B
S11304E0EC010E94D2108091960290919702892B80
S11304F031F48BE992E090939702809396024091B5
S11305009802509199029E01240F351F2B3D85E0DE
S1130510380770F44217530770F4C0919602D091D3
S11305209702C40FD51F309399022093980205C0F7
S1130530C0E0D0E002C0C0E0D0E00E949611CE013D
S1130540DF91CF9108950895FC0183E0878312869B
S11305501186138608950F931F93CF93DF93EC01B5
S1130560062F142F688585E999E00E949215602F63
S113057085E999E00E943915612F85E999E00E9487
S1130580391585E999E00E94AE158E83DF91CF91EC
S11305901F910F910895CF93DF93EC018F818230E7
S11305A021F440E069E3CE01D6DF40E063E2CE010E
S11305B0D2DF4FE660E2CE01CEDFDF91CF91089526
S11305C09F92AF92BF92CF92DF92EF92FF920F93DE
S11305D01F93CF93DF93EC01688585E999E00E942E
S11305E09215E0919509F09196090190F081E02D22
S11305F068EA85E999E0199585E999E00E94AE15C4
S113060046E0688585E999E00E948F150E94B21B37
S11306108B0110C089859A85892B61F00E94B21BD9
S1130620601B710B89859A858617970718F481E0FA
S11306308B8732C085E999E00E94DF14069754F352
S113064085E999E00E94E714A82E85E999E00E94C3
S1130650E714982E85E999E00E94E714082F85E9AC
S113066099E00E94E714B82E85E999E00E94E71406
S1130670182F85E999E00E94E714D92CC12CCA28C7
S1130680D982C882FB2CE12CE02AFB82EA82982FD3
S11306908827812B9D838C83DF91CF911F910F91AC
S11306A0FF90EF90DF90CF90BF90AF909F90089510
S11306B0CF93DF93C62FD42F85E999E00E9492153A
S11306C06D2F85E999E00E94391585E999E00E942A
S11306D0AE15811111C041E06C2F85E999E00E94AB
S11306E08F1585E999E00E94DF14892B41F085E993
S11306F099E00E94E71405C08FEF9FEF02C08FEFCF
S11307009FEFDF91CF9108950F931F93CF93DF93C2
S1130710EC01162F042F633009F456C04230C9F59A
S113072056C0133009F058C0873D910509F458C0EC
S113073001E011E02CC0013091F04FE06AE6CE01F7
S1130740B7DF8F3F2FEF920751F0133009F046C007
S1130750873D910509F047C000E012E018C013304E
S113076011F0111114C0002349F04FE069E6CE01E5
S11307709FDF833D9105D1F1013039F04FE068E608
S1130780CE0196DF833D910599F11330B9F0023023
S1130790B9F01F83112351F01330A0F4013011F488
S11307A08BE601C08AE6888781E041C0013011F4FC
S11307B089E601C088E6888781E039C080E037C0D7
S11307C080E035C081E033C0442341F11EC08FEF87
S11307D0860F833030F60FC001E0C3CF00E0C1CFF5
S11307E001E012E0D4CF00E011E0D1CF01E001C07C
S11307F000E01F82DBCF4FE06BE6CE0159DF8F3F75
S11308002FEF920709F08DCF98CF4FE06BE650DFC2
S11308108F3F2FEF920709F087CF8DCF4FE06AE625
S113082047DF8F3F2FEF920709F092CF98CFDF91E8
S1130830CF911F910F910895FC01039692838183B8
S11308402FEF3FEF348323839683858390878783B9
S113085010820895FC01118610860895CF93DF93CA
S11308609C01FB01DC011196CD91DC911297D3839D
S1130870C2838C819D81958384838C819D81DC01DD
S113088013967C936E9312977D836C8331872087B4
S1130890F90180818F5F8083DF91CF910895CF9399
S11308A0DF93EB01488159814F3F2FEF520721F429
S11308B0FC01A781B0850DC0DC0113961296ED9161
S11308C0FC911397208131814217530710F0DF0107
S11308D0F5CF1296ED91FC911397FB83EA83D583B0
S11308E0C483BD83AC831396DC93CE93129799870C
S11308F08887FC0120812F5F2083DF91CF910895A9
S1130900CF93DF93FC01A085B185C281D38184811B
S113091095819D838C83C481D581828193819B83BE
S11309208A831196CD91DC911297CE17DF0731F4AB
S11309308C819D8112969C938E93119711861086BB
S11309408C9181508C93DF91CF910895CF93DF9355
S1130950EC0186E0E3E1F2E0DE01529601900D92B3
S11309608A95E1F786E0E9E1F2E0DE011C96019068
S11309700D928A95E1F784E0898F1CA21BA21DA227
S1130980DF91CF9108954F925F926F927F928F92F1
S11309909F92AF92BF92CF92DF92EF92FF920F930A
S11309A01F93CF93DF9300D01F92CDB7DEB78C0196
S11309B0DC014D905D906D907C90139714968D9012
S11309C09D90AD90BC90179718968D919D910D9028
S11309D0BC91A02D89839A83AB83BC83A30192012C
S11309E0C301B2010E94F7176B017C01A5019401B8
S11309F0C501B4010E94F7179B01AC01C701B60100
S1130A000E94B6156B017C0129813A814B815C817E
S1130A10CA01B9010E94F7179B01AC01C701B601D5
S1130A200E94B6150E945E186B017C019B01AC010B
S1130A30C301B2010E948016F8016083718382832E
S1130A409383A7019601C501B4010E948016D801C1
S1130A5014966D937D938D939C931797A70196019C
S1130A6069817A818B819C810E948016F80160875C
S1130A707187828793870F900F900F900F90DF916B
S1130A80CF911F910F91FF90EF90DF90CF90BF9087
S1130A90AF909F908F907F906F905F904F9008954C
S1130AA04F925F926F927F928F929F92AF92BF927A
S1130AB0CF92DF92EF92FF920F931F93CF93DF9326
S1130AC0CDB7DEB7AA970FB6F894DEBF0FBECDBF81
S1130AD08C01298F3A8F4B8F5C8F6D8F7E8FDC0159
S1130AE01696CD90DC901797EE24D7FCE094FE2C5C
S1130AF052964D915C915397662757FD6095762FDA
S1130B001C968D919C911D97AA2797FDA095BA2FAD
S1130B10480F591F6A1F7B1FDB01CA0177231CF48E
S1130B200196A11DB11DB595A79597958795A70128
S1130B309601281B390B4A0B5B0B2F8F38A349A353
S1130B405AA3D8011896CD90DC901997EE24D7FCBF
S1130B50E094FE2C54964D915C915597662757FD71
S1130B606095762F1E968D919C911F97AA2797FDCD
S1130B70A095BA2F480F591F6A1F7B1FDB01CA01BA
S1130B8077231CF40196A11DB11DB595A7959795E2
S1130B908795A7019601281B390B4A0B5B0B2BA3E6
S1130BA03CA34DA35EA3D8011A964D905C901B976D
S1130BB0662457FC6094762C56964D915C91579719
S1130BC0662757FD6095762F50968D919C9151978D
S1130BD0AA2797FDA095BA2F480F591F6A1F7B1F9C
S1130BE0DB01CA0177231CF40196A11DB11DB59543
S1130BF0A79597958795481A590A6A0A7B0AF801B6
S1130C0084809580AA2497FCA094BA2C8281938135
S1130C109C01442737FD4095542F2FA338A749A79B
S1130C205AA72BA13CA14DA15EA1C501B4010E940C
S1130C30311D6B017C01A30192016FA178A589A5E7
S1130C409AA50E94311DA7019601261B370B480B5C
S1130C50590BCA01B9010E941B176D877E878F87C4
S1130C60988BD801CD90DC90EE24D7FCE094FE2C38
S1130C70A3019201C701B6010E94311D2B013C0161
S1130C802F8D38A149A15AA1C501B4010E94311D7B
S1130C90A3019201261B370B480B590BCA01B9015A
S1130CA00E941B17698B7A8B8B8B9C8B2F8D38A1A1
S1130CB049A15AA16FA178A589A59AA50E94311DC1
S1130CC04B015C012BA13CA14DA15EA1C701B60162
S1130CD00E94311DA5019401261B370B480B590BAB
S1130CE0CA01B9010E941B176D8B7E8B8F8B988F65
S1130CF0CE010D9648DED80112966D917C91139722
S1130D00882777FD8095982F0E941B176B017C0123
S1130D102D893E894F89588D2F8F38A349A35AA313
S1130D20D80114966D917C911597882777FD80954D
S1130D30982F0E941B172B013C0129893A894B8962
S1130D405C892BA33CA34DA35EA32F8D38A149A19D
S1130D505AA1C701B6010E94F7174B015C012BA1F0
S1130D603CA14DA15EA1C301B2010E94F7179B01F2
S1130D70AC01C501B4010E94B51569837A838B83E4
S1130D809C838D859E85AF85B8898FA398A7A9A7D5
S1130D90BAA7D8016D917C91882777FD8095982F0B
S1130DA00E941B174B015C012FA138A549A55AA528
S1130DB0C301B2010E94F7172B013C01A501940164
S1130DC06F8D78A189A19AA10E94F7179B01AC01AC
S1130DD0C301B2010E94B5156D837E838F8398870A
S1130DE0A50194016BA17CA18DA19EA10E94F7177E
S1130DF04B015C012FA138A549A55AA5C701B6012D
S1130E000E94F7179B01AC01C501B4010E94B515FE
S1130E1069877A878B879C87CE010196B4DD698DBB
S1130E207A8D882777FD8095982F0E941B172B01B8
S1130E303C016B8D7C8D882777FD8095982F0E94CF
S1130E401B174B015C016D8D7E8D882777FD809586
S1130E50982F0E941B176B017C0129813A814B81D9
S1130E605C81C301B2010E94F7176F8F78A389A335
S1130E709AA32D813E814F815885C501B4010E94FA
S1130E80F7179B01AC016F8D78A189A19AA10E94EB
S1130E90B6156F8F78A389A39AA329853A854B85C4
S1130EA05C85C701B6010E94F7179B01AC016F8DE9
S1130EB078A189A19AA10E94B6156F8F78A389A3FE
S1130EC09AA32D853E854F855889C301B2010E949E
S1130ED0F7172B013C0129893A894B895C89C501A3
S1130EE0B4010E94F7179B01AC01C301B2010E9437
S1130EF0B6154B015C012D893E894F89588DC70178
S1130F00B6010E94F7179B01AC01C501B4010E9410
S1130F10B6152F8D38A149A15AA10E94291620E0A7
S1130F2030E044E353E40E94F7172BED3FE049E43B
S1130F3050E40E9480166B017C0120E030E0A9019E
S1130F400E947C16882354F420E030E044EB53E400
S1130F50C701B6010E94B6156B017C01C701B60139
S1130F60AA960FB6F894DEBF0FBECDBFDF91CF9126
S1130F701F910F91FF90EF90DF90CF90BF90AF90B3
S1130F809F908F907F906F905F904F900895CF9334
S1130F90DF93CDB7DEB72C970FB6F894DEBF0FBE44
S1130FA0CDBFFC01218D233079F431E0232F3F8321
S1130FB018861A8619861C861B8630E040E05A85FE
S1130FC060E07C856DDD0EC01A8219822FEF422FFE
S1130FD02B832C831E821D8220E03A815FEF60E028
S1130FE07E815EDD2C960FB6F894DEBF0FBECDBFBA
S1130FF0DF91CF9108950F931F93CF93DF93EC016B
S1131000062F142F6A8D85E999E00E949215602FAE
S113101085E999E00E943915612F85E999E00E94DC
S1131020391585E999E00E94AE15888FDF91CF913B
S11310301F910F9108950F931F93CF93DF93EC01AA
S1131040062F142F6B8D85E999E00E949215602F6D
S113105085E999E00E943915612F85E999E00E949C
S1131060391585E999E00E94AE15888FDF91CF91FB
S11310701F910F910895FC01218D233011F06032EE
S113108010F4D9CF0895B7CF0895CF93DF93EC012F
S1131090898D8330A9F440E061E2CE01ECDF47E5BD
S11310A060E2CE01E8DF44E664E2CE01E4DF40E240
S11310B065E2CE01E0DF40E066E2CE01DCDF1FC086
S11310C0823049F448E063E2CE0195DF47E460E210
S11310D0CE0191DF08C040E063E2CE018CDF47E23D
S11310E060E2CE0188DF4CE060E0CE01A4DF40E2A4
S11310F061E0CE01A0DF40E062E0CE019CDFDF9141
S1131100CF9108959F92AF92BF92CF92DF92EF92C8
S1131110FF920F931F93CF93DF93EC016A8D85E9C0
S113112099E00E949215E0919509F0919609019039
S1131130F081E02D68EA85E999E0199585E999E05F
S11311400E94AE15888F46E06A8D85E999E00E9479
S11311508F150E94B21B8B0110C08BA19CA1892BFF
S113116061F00E94B21B601B710B8BA19CA18617BE
S1131170970718F481E08DA332C085E999E00E94B5
S1131180DF14069754F385E999E00E94E714A82E2A
S113119085E999E00E94E714982E85E999E00E9478
S11311A0E714082F85E999E00E94E714B82E85E931
S11311B099E00E94E714182F85E999E00E94E7144A
S11311C0D92CC12CCA28D982C882FB2CE12CE02A54
S11311D0FB82EA82982F8827812B9D838C83DF9161
S11311E0CF911F910F91FF90EF90DF90CF90BF9020
S11311F0AF909F900895CF92DF92EF92FF920F935A
S11312001F93CF93DF93EC016B8D85E999E00E94E6
S11312109215898D833031F46E8D772767FD709533
S1131220606804C06D8D772767FD7095E09195091E
S1131230F09196090190F081E02D85E999E01995E6
S113124085E999E00E94AE15888F46E06B8D85E9AB
S113125099E00E948F150E94B21B8B0110C08BA1D4
S11312609CA1892B61F00E94B21B601B710B8BA1A6
S11312709CA18617970718F481E08DA36EC085E9B9
S113128099E00E94DF14069754F3898D8330F9F4B2
S113129085E999E00E94E714C82E85E999E00E9447
S11312A0E714D82E85E999E00E94E714E82E85E931
S11312B099E00E94E714F82E85E999E00E94E7146A
S11312C0082F85E999E00E94E714182F36C085E9B4
S11312D099E00E94E714D82E85E999E00E94E7146A
S11312E0C82E898D811115C085E999E00E94E71403
S11312F0F82E85E999E00E94E714E82E85E999E043
S11313000E94E714182F85E999E00E94E714082F3A
S113131014C085E999E00E94E714182F85E999E043
S11313200E94E714082F85E999E00E94E714F82E3B
S113133085E999E00E94E714E82E6C2D70E07D2980
S11313407F836E834E2D50E05F2959874887202F75
S113135030E0C901912B9B878A87DF91CF911F9140
S11313600F91FF90EF90DF90CF900895CF93DF938C
S1131370EC01C8DECE013FDFDF91CF910895CF931A
S1131380DF93C62FD42F85E999E00E9492156D2F23
S113139085E999E00E94391585E999E00E94AE1526
S11313A0811111C041E06C2F85E999E00E948F15ED
S11313B085E999E00E94DF14892B41F085E999E0E1
S11313C00E94E71405C08FEF9FEF02C08FEF9FEFDD
S11313D0DF91CF9108950F931F93CF93DF93EC0187
S11313E0162F042F643009F4ADC0423009F047C011
S11313F0ADC04FE06DE1CE01C2DF8934910509F43F
S1131400ABC0013041F04FE06EE1CE01B8DF89346A
S1131410910509F4A3C0143011F0133068F50023CA
S1131420A9F040E269E1CE01AADF019669F0143027
S113143009F099C04FE06EE1CE01A1DFCC9709F02D
S113144094C001E012E01BC0013099F040E268E171
S1131450CE0195DF019669F0143009F089C04FE0A0
S11314606EE1CE018CDF11E0CC9709F010E000E0D2
S113147006C0143009F460C0023009F45FC0198F4B
S1131480113071F108F442C01230C1F0133009F088
S113149057C0013011F48DE101C08EE18B8F8A8F2A
S11314A088E08E8F89E08D8F8AE088A38BE08F8F10
S11314B08CE08AA38DE089A381E064C089E18A8FEE
S11314C08EE18B8F83E08D8F84E08E8F87E08F8F0A
S11314D088E088A385E089A386E08AA381E052C0DE
S11314E0013011F489E101C088E18A8F8EE18B8F8C
S11314F083E08D8F84E08E8F87E08F8F88E088A3D0
S113150085E089A386E08AA381E03CC0013011F420
S113151089E101C088E18A8F8EE18B8F83E08D8F12
S113152084E08E8F85E08F8F86E088A387E089A38F
S113153088E08AA381E026C080E024C080E022C045
S113154081E020C0442309F45ECF53CF8DEF860F92
S1131550823008F062CF0EC001E003C000E001C099
S113156001E013E089CF01E08ACF01E010E087CFEA
S113157000E085CF4FE06DE1CE0101DF89349105B4
S113158079F341CFDF91CF911F910F91089531E10C
S1131590FC013083319722E220833197A3E3A083B7
S11315A0319760833197708331971082319710821D
S11315B0319760E8608331971082319710823197B8
S11315C01082319762E06083319763E060833197E2
S11315D064E06083319765E06083319766E06083FF
S11315E0319767E06083319768E06083319769E001
S11315F06083319760E1608331973083319732E1C2
S11316003083319733E13083319734E1308331973C
S113161035E13083319736E13083319737E13083D8
S1131620319738E13083319739E13083319730E2B3
S11316303083319731E2308331972083319723E22D
S113164020833197408331975083319726E220835A
S1131650319727E22083319728E22083319729E2CA
S11316602083319720E32083319721E320838997D6
S1131670089582E08093B0001092B2008AEF8093C4
S1131680B300E0E7F0E080818260808384E08093AF
S1131690B100A0912509B0912609CD91CDBFDD916E
S11316A0DEBFFF91EF91DF91CF91BF91AF919F91F9
S11316B08F917F916F915F914F913F912F911F91E6
S11316C00F91FF90EF90DF90CF90BF90AF909F90DD
S11316D08F907F906F905F904F903F902F901F90CE
S11316E00F900CBE0F900BBE0F900FBE0F9008957D
S11316F081E008950F920FB6F8940F920CB60F92F2
S11317000BB60F921F9211242F923F924F925F9229
S11317106F927F928F929F92AF92BF92CF92DF92FD
S1131720EF92FF920F931F932F933F934F935F93E7
S11317306F937F938F939F93AF93BF93CF93DF93D5
S1131740EF93FF93A0912509B09126090DB60D9250
S11317500EB60D92C1D6A0912509B0912609CD915E
S1131760CDBFDD91DEBFFF91EF91DF91CF91BF91AE
S1131770AF919F918F917F916F915F914F913F9125
S11317802F911F910F91FF90EF90DF90CF90BF901A
S1131790AF909F908F907F906F905F904F903F900D
S11317A02F901F900F900CBE0F900BBE0F900FBE8A
S11317B00F9008950F920FB6F8940F920CB60F92F3
S11317C00BB60F921F9211242F923F924F925F9269
S11317D06F927F928F929F92AF92BF92CF92DF923D
S11317E0EF92FF920F931F932F933F934F935F9327
S11317F06F937F938F939F93AF93BF93CF93DF9315
S1131800EF93FF93A0912509B09126090DB60D928F
S11318100EB60D92CDD481115FD6A0912509B09159
S11318202609CD91CDBFDD91DEBFFF91EF91DF9110
S1131830CF91BF91AF919F918F917F916F915F9164
S11318404F913F912F911F910F91FF90EF90DF9057
S1131850CF90BF90AF909F908F907F906F905F904C
S11318604F903F902F901F900F900CBE0F900BBE87
S11318700F900FBE0F9008959DDF18950F2EFCE07A
S1131880EF2EF2E0FF2EF02D0F2EFEE0CF2EF2E031
S1131890DF2EF02D0F2EF8E78F2EF8E09F2EF02D7F
S11318A008E012E00F2EFAE0AF2EF2E0BF2EF02D8A
S11318B00F2EFAE76F2EF8E07F2EF02DC4E0D2E071
S11318C00F2EF6E04F2EF2E05F2EF02D0F2EFCE7E8
S11318D02F2EF8E03F2EF02D65D460E0F7018081D3
S11318E00E94D21C85E090E00E94BE1B61E0F701DB
S11318F080810E94D21C8AE090E00E94BE1B60E0BE
S1131900F70180810E94D21C60E0F60180810E9470
S1131910941C20E432E44FE050E061E0F601808161
S11319200E94021D7695679580E090E00E94191749
S11319302DEC3CEC48EE51E40E9480160E94E8161F
S1131940F4017183608360E0F80180810E94D21CFD
S113195085E090E00E94BE1B61E0F80180810E9456
S1131960D21C8AE090E00E94BE1B60E0F8018081F6
S11319700E94D21C20E432E44FE050E061E0F50123
S113198080810E94021D7695679580E090E00E9418
S113199019172DEC3CEC48EE51E40E9480160E948D
S11319A0E816F3017183608360E088810E94D21C91
S11319B085E090E00E94BE1B61E088810E94D21CF9
S11319C08AE090E00E94BE1B60E088810E94D21CE5
S11319D020E432E44FE050E061E0F20180810E94B3
S11319E0021D7695679580E090E00E9419172DEC12
S11319F03CEC48EE51E40E9480160E94E816F10186
S1131A007183608393D484EF91E011D565CF0F2E59
S1131A10FAEAAF2EF8E0BF2EF02D0CEA18E0CEE77C
S1131A20D8E00F2EF0E88F2EF8E09F2EF02D0F2E29
S1131A30F2E82F2EF8E03F2EF02DB4D388EA98E098
S1131A4095DC74D4F50160817181882777FD8095D8
S1131A50982F0E941B1720E030E04AE754E40E94CC
S1131A60801620E030E044E752E40E94F7172FE6A6
S1131A7032E143E85AE30E94F7172DEC3CEC4CE1C9
S1131A8051E40E94F7170E94E8162B013C01F8016B
S1131A9060817181882777FD8095982F0E941B179C
S1131AA020E030E04AE754E40E94801620E030E071
S1131AB044E752E40E94F7172FE632E143E85AE381
S1131AC00E94F7172DEC3CEC4CE151E40E94F7170F
S1131AD00E94E8166B017C018091A8089091A908E6
S1131AE0BC01882777FD8095982F0E941B1720E062
S1131AF030E04AE754E40E94801620E030E044E7F6
S1131B0052E40E94F7172FE632E143E85AE30E94B9
S1131B10F7172DEC3CEC4CE151E40E94F7170E94BE
S1131B20E81679836883F40151824082F101D182FD
S1131B30C08284EF91E07BD480CF0F2EFEE9AF2EDC
S1131B40F8E0BF2EF02D00EA18E0C4E8D8E00F2E2C
S1131B50F6E88F2EF8E09F2EF02D0F2EF8E82F2EAA
S1131B60F8E03F2EF02D1ED38CE998E00E94E002AD
S1131B70DDD3F50160817181882777FD8095982FE9
S1131B800E941B1720E030E04CE051E40E94F7175C
S1131B9020E030E04AE754E40E9480160E94E816F0
S1131BA02B013C01F80160817181882777FD8095C4
S1131BB0982F0E941B1720E030E04CE051E40E9473
S1131BC0F71720E030E04AE754E40E9480160E94B0
S1131BD0E8166B017C0180919C0890919D08BC01E2
S1131BE0882777FD8095982F0E941B1720E030E00E
S1131BF04CE051E40E94F71720E030E04AE754E457
S1131C000E9480160E94E81679836883F401518249
S1131C104082F101D182C08284EF91E008D4A3CF45
S1131C20CCE8D8E0BFD288EA98E0A0DB88EA98E064
S1131C30AED90E94E8167983688378D384EF91E063
S1131C40F6D3F0CF26E040E855E260E070E087EE9E
S1131C5099E00E94691985E999E04BD742E064E074
S1131C6088EA98E0B8DB88EA98E00FDA86E0EFE1EA
S1131C70F2E0AAEBB8E001900D928A95E1F786E0D4
S1131C80E5E2F2E0A4EBB8E001900D928A95E1F769
S1131C9042E063E08CE998E00E9484038CE998E0D8
S1131CA00E94CB0261E080910C020E94941C60E0CF
S1131CB080910E020E94941C60E080910A020E94AE
S1131CC0941C61E0809108020E94941C60E0809161
S1131CD006020E94941C61E0809104020E94941CFC
S1131CE060E0809102020C94941C0895AF92BF921C
S1131CF0CF92DF92EF92FF920F93CF93DF93CDB702
S1131D00DEB72A970FB6F894DEBF0FBECDBF0E9490
S1131D10C91B98DFA12CB12CC12CD12CCE01099662
S1131D207C010AE020E030E048EC50E06BE272E035
S1131D308AEF9EE006D1CE0107967C0109E020E0FF
S1131D4030E048EC50E062E372E08DE99DE0F9D0C8
S1131D50CE0105967C0108E020E030E048EC50E03C
S1131D6061E472E087E09DE0ECD0CE0103967C0153
S1131D7006E020E030E048EC50E064E572E080E109
S1131D809EE0DFD0CE0101967C0105E020E030E04A
S1131D9048EC50E061E672E08EE39CE0D2D0D9D109
S1131DA080E090E02A960FB6F894DEBF0FBECDBF58
S1131DB0DF91CF910F91FF90EF90DF90CF90BF9084
S1131DC0AF9008950F931F9388EA98E00E94A604A9
S1131DD08CE998E00E94A40206EB1EE42DE530E0B5
S1131DE049E150E066E370E08EE898E03ED01F9150
S1131DF00F910895C0E30F2EF8E7EF2EF8E0FF2EC1
S1131E00F02D0EE818E087EE99E00E94B418892BB3
S1131E1029F087EE99E00E94CD18C82FC03309F14C
S1131E2060910002709101024AE050E087EE99E06F
S1131E300E94601B6DE087EE99E00E94A61AE701FC
S1131E40699179914AE050E087EE99E00E94601B25
S1131E506DE087EE99E00E94A61AC017D10781F7BA
S1131E60C0E384E690E0E3D2CECF0F931F93FC014E
S1131E70C901718360835583448364E670E00E94E2
S1131E80401D758764871383028381E00E942B1CA5
S1131E901F910F910895E091ED08F091EE08808173
S1131EA0811107C08FEF9FEF90931102809310026E
S1131EB00895E091ED08F091EE080580F681E02D9B
S1131EC00680F781E02D82819381909311028093A3
S1131ED010020895CF93DF93EC01E0912509F0916E
S1131EE02609938382838091D5089091D608C817D8
S1131EF0D90768F460912509709126098091EB084F
S1131F009091EC086E5F7F4F0E944F0417C0609160
S1131F102509709126098091ED089091EE086E5F75
S1131F207F4F0E944F048091100290911102C817B4
S1131F30D90720F4D0931102C0931002DF91CF91FE
S1131F4008954F925F926F927F928F929F92AF9279
S1131F50BF92CF92DF92EF92FF920F931F93CF9392
S1131F60DF934C015B012A01390181E290E00E9478
S1131F706E02EC01009709F4DAC0C114D10409F02F
S1131F80BFC0C2010E946E02988F8F8B892B09F00B
S1131F90B9C0CE010E94A302CAC0CF013191DA01B7
S1131FA03D93AD01DC018C91882311F02150A9F7F8
S1131FB018A2102F043008F013E01E8B5E01B2E06B
S1131FC0AB0EB11CC5010E942A04CE010C960E94DE
S1131FD02A04D987C88784E090E0811B91099D87F2
S1131FE08C87DB8BCA8BA301B401C601D0DA998339
S1131FF08883E114F10419F0F701D183C0830FB68B
S1132000F8940F928091D7088F5F8093D7088091BE
S1132010250990912609892BA9F5D0932609C09307
S113202025098091D7088130E1F581E099E00E948B
S11320301C048AE099E00E941C0483E199E00E9458
S11320401C048CE199E00E941C0488EF98E00E9433
S11320501C048FEE98E00E941C0482EE98E00E941B
S11320601C0489ED98E00E941C0488EF98E090938A
S1132070EE088093ED088FEE98E09093EC0880933F
S1132080EB080FC08091D30881110BC0E0912509A2
S1132090F09126098689081720F0D0932609C09369
S11320A025098091CF088F5F8093CF088E89909106
S11320B0D408981710F48093D40890E09C01220F60
S11320C0331F220F331F220F331F820F931FB501BB
S11320D08F5F964F0E942E040F900FBE8091D308FD
S11320E0882351F0E0912509F0912609868980170B
S11320F028F400DB81E01CC081E01AC081E018C034
S1132100D88ECF8AF1E04F1A5108CF88D88CC40CEE
S1132110D51CD5018C91898F8C91882309F448CFE3
S1132120AE01465E5F4FF501319627E036CF8FEF63
S1132130DF91CF911F910F91FF90EF90DF90CF909F
S1132140BF90AF909F908F907F906F905F904F90D3
S11321500895AF92BF92CF92DF92EF92FF920F93C6
S1132160A12CB12CC12CD12CE12CF12C00E020E0CD
S113217030E045E550E061E772E083E392E1E1DEBF
S1132180813041F4F8948093D3081092D6081092C9
S1132190D5086FDA0F91FF90EF90DF90CF90BF904A
S11321A0AF9008958091CE088F5F8093CE080895F4
S11321B0CF92DF92EF92FF920F931F93CF93DF930F
S11321C08091CE08811199C08091D5089091D6084C
S11321D001969093D6088093D508E090D508F090A6
S11321E0D608E114F104B1F48091ED089091EE0861
S11321F02091EB083091EC083093EE082093ED0821
S11322009093EC088093EB088091D0088F5F8093C3
S1132210D00841DE8091100290911102E816F9066F
S113222008F454C0D12CCC24C39401C0DC2CE0911C
S1132230ED08F091EE088081811107C08FEF9FEFC8
S1132240909311028093100242C0E091ED08F09146
S1132250EE080580F681E02DC681D7812A813B8175
S1132260E216F30628F430931102209310022FC0D3
S11322708E010E5F1F4FC8010E9480048C899D89C6
S1132280892B21F0CE010C960E9480042E89809126
S1132290D408821710F42093D40830E0C901880FC1
S11322A0991F880F991F880F991F820F931FB801D8
S11322B08F5F964F0E942E04E0912509F091260924
S11322C09E898689981708F0B1CFB1CFD12CE091BF
S11322D02509F0912609868990E0FC01EE0FFF1F85
S11322E0EE0FFF1FEE0FFF1F8E0F9F1FFC01EF5F0E
S11322F0F64F8081823040F409C08091D2088F5F0C
S11323008093D208D12C02C0DD24D3948091D108CB
S1132310882311F0DD24D3948D2DDF91CF911F916B
S11323200F91FF90EF90DF90CF900895DF92EF929E
S1132330FF920F931F93CF93DF930FB6F8940F92EE
S11323408091CE0881508093CE088091CE0881116F
S11323505FC08091D708882309F45CC00F2EF2EE89
S1132360EF2EF8E0FF2EF02DDD24D39430C0E09161
S1132370E708F091E808C681D781CE010C960E9447
S113238080048E010E5F1F4FC8010E9480048E8955
S11323909091D408981710F48093D40890E09C018D
S11323A0220F331F220F331F220F331F820F931F5D
S11323B0B8018F5F964F0E942E04E0912509F09199
S11323C026099E898689981710F0D092D108F701C2
S11323D080818111CCCF8091D208882391F08091A3
S11323E0D208882371F0C1E0E3DE8111C093D108E3
S11323F08091D20881508093D2088091D2088111B3
S1132400F3CF8091D108813039F474D981E005C0CB
S113241080E003C080E001C080E00F900FBEDF9138
S1132420CF911F910F91FF90EF90DF900895CF937C
S1132430DF93EC01009799F0B5DE8091D508909177
S1132440D608C80FD91F80912509909126090296B4
S11324500E948004CE013EDD69DF811101C04AD9AA
S1132460DF91CF9108950F2EF1E0EF2EF9E0FF2ECA
S1132470F02DC9EDD8E026C095DE188157DF112371
S113248009F10FB6F8940F92E091DE08F091DF089D
S113249006811781C80102960E9480048091D708A2
S11324A081508093D7088091D80881508093D808B0
S11324B00F900FBEF8018789908D0E94A302C80176
S11324C00E94A3028091D8088111D6CFF7018081A0
S11324D08230C0F30FD9F6CF8091CE08882321F043
S11324E081E08093D10808951092D1088091D40896
S11324F090E0FC01EE0FFF1FEE0FFF1FEE0FFF1F1A
S11325008E0F9F1FFC01EF5FF64F8081811117C072
S11325108091D40881508093D4088091D40890E0AD
S1132520FC01EE0FFF1FEE0FFF1FEE0FFF1F8E0FBC
S11325309F1FFC01EF5FF64F8081882349F3E091F0
S1132540D408F0E0CF01880F991F880F991F880FD6
S1132550991FE80FF91FEF5FF64FA181B281129620
S11325600D90BC91A02DB283A183CF010396A8172F
S1132570B90731F412968D919C91139792838183BC
S11325800180F281E02D86819781909326098093C2
S1132590250908951092940981E08093920910927C
S11325A0910961E084E10E94D21C61E085E10E940E
S11325B0D21CE9EBF0E080818E7F808380818D7F67
S11325C080838DEF8093B80085E48093BC000895E8
S11325D0413208F045C0909194099111FCCF91E0EB
S11325E090939409209392092FEF20932709109236
S11325F06C09240F20936B0990939309909193098C
S1132600880F892B8093930980919109813051F42B
S113261010929109809193098093BB0085EC80937B
S1132620BC0003C085EE8093BC0080919409813086
S1132630E1F380916C09841710F440916C094423F0
S113264089F0EDE6F9E0A62FB72F2FEF240F30E045
S11326502259364F91919D93E217F307D9F704C09D
S113266080E00895842F0895842F08950F934132B4
S113267008F050C0909194099111FCCF92E090938E
S11326809409009392099FEF9093270910926C0983
S113269040936B09442369F0FB01ADE6B9E06F5F39
S11326A07F4F4150640F711D91919D93E617F70779
S11326B0D9F71092930990919309880F892B8093ED
S11326C0930980919109813051F41092910980917C
S11326D093098093BB0085EC8093BC0003C085EE16
S11326E08093BC00222341F080919409823021F42C
S11326F0809194098230E1F3809127098F3F61F042
S113270080912709803251F080912709803341F468
S113271083E007C081E005C080E003C082E001C01F
S113272084E00F9108956132A8F420919409243033
S113273099F460934909662389F0FC01ABE4B9E09C
S113274001966150860F911D21912D93E817F90789
S1132750D9F706C081E0089582E0089580E00895E5
S113276080E0089585ED8093BC00ECEBF0E080817F
S113277084FDFDCF10929409089585EC8093BC00EC
S11327801092940908951F920F920FB60F9211247C
S11327900BB60F922F933F934F935F936F937F9357
S11327A08F939F93AF93BF93EF93FF938091B9005F
S11327B0887F90E0893C910508F0EEC0FC01EE585A
S11327C0FF4F0C94751D809193098093BB0085EC99
S11327D08093BC00E1C090916C0980916B099817BB
S11327E080F4E0916C0981E08E0F80936C09F0E035
S11327F0E359F64F80818093BB0085EC8093BC0045
S1132800CBC080919209882311F0ACDFC5C081E070
S11328108093910984EA8093BC0010929409BCC00F
S113282080E2809327099EDFB7C080E38093270965
S113283099DFB2C088E3809327099FDFADC0E091A0
S11328406C0981E08E0F80936C098091BB00F0E0ED
S1132850E359F64F808390916C0980916B09981726
S113286020F485EC8093BC0097C085E88093BC007D
S113287093C0E0916C0981E08E0F80936C09809184
S1132880BB00F0E0E359F64F8083809192098823DE
S113289011F068DF81C081E08093910984EA80931C
S11328A0BC001092940978C05DDF76C083E0809309
S11328B094091092280985EC8093BC006DC0809126
S11328C02809803280F4E091280981E08E0F8093FA
S11328D028098091BB00F0E0E75DF64F808385EC2A
S11328E08093BC0059C085E88093BC0055C080919A
S11328F02809803230F4E0912809F0E0E75DF64FD2
S1132900108230DF6091280970E0E0918D09F09128
S11329108E0989E299E01995109228092EDF3CC0AE
S113292085E88093BC0038C084E0809394091092B9
S11329304A0910924909E0918F09F091900919957B
S113294080914909811105C081E080934909109261
S11329504B09E0914A0981E08E0F80934A09F0E027
S1132960E55BF64F80818093BB0090914A0980918A
S11329704909981720F485EC8093BC000DC085E8C4
S11329808093BC0009C085EC8093BC00109294092C
S113299003C010922709E6DEFF91EF91BF91AF913A
S11329A09F918F917F916F915F914F913F912F9163
S11329B00F900BBE0F900FBE0F901F901895809133
S11329C0C50990E02091C609821B910908952091C0
S11329D0C6098091C509281750F4E22FF0E0E953A5
S11329E0F64F808190E02F5F2093C60908958FEF02
S11329F09FEF0895E091C6098091C509E81730F466
S1132A00F0E0E953F64F808190E008958FEF9FEF57
S1132A1008950895CF92DF92EF92FF920F931F9340
S1132A20CF93DF938C017B016A018091A1098823F4
S1132A3099F04115510599F0EB01E40EF51E6991E9
S1132A40D801ED91FC910190F081E02DC801199518
S1132A50CE15DF05A1F703C0642FC70164DEC601EC
S1132A60DF91CF911F910F91FF90EF90DF90CF9066
S1132A700895CF93DF931F92CDB7DEB7698320917A
S1132A80A1092223E1F02091A209203240F021E0A3
S1132A9030E0FC013383228380E090E016C0809113
S1132AA0A309E82FF0E0EC55F64F998190838F5FEE
S1132AB08093A3098093A20981E090E006C061E0BD
S1132AC0CE01019630DE81E090E00F90DF91CF914E
S1132AD00895FC011382128248EE53E060E070E036
S1132AE044835583668377838AE792E09183808366
S1132AF008951092C6091092C5091092A309109264
S1132B00A20948CD0895862F413208F040E267ECCF
S1132B1079E05EDD1092C6098093C509089521E02D
S1132B20F2CF089581E08093A1096093C4091092C3
S1132B30A3091092A20908950F93062F21E0409152
S1132B40A20964EA79E08091C40990DD1092A30996
S1132B501092A2091092A1090F91089561E0ECCF9F
S1132B60089585E999E0B5CF08955058BB27AA2761
S1132B700ED0FCC1EDD130F0F2D120F031F49F3F02
S1132B8011F41EF4BDC10EF4E095E7FBB3C1E92FC7
S1132B90FED180F3BA17620773078407950718F00C
S1132BA071F49EF516C20EF4E0950B2EBA2FA02DEB
S1132BB00B01B90190010C01CA01A0011124FF27E6
S1132BC0591B99F0593F50F4503E68F11A16F040E1
S1132BD0A22F232F342F4427585FF3CF46953795E0
S1132BE02795A795F0405395C9F77EF41F16BA0BA5
S1132BF0620B730B840BBAF09150A1F0FF0FBB1F53
S1132C00661F771F881FC2F70EC0BA0F621F731F9B
S1132C10841F48F4879577956795B795F7959E3FF8
S1132C2008F0B3CF9395880F08F09927EE0F979586
S1132C30879508958DD158F080E891E009F49EEFCE
S1132C408ED128F040E851E059F45EEF09C058C134
S1132C50C0C1E92FE0789BD168F3092E052AC1F39E
S1132C60261737074807590738F00E2E07F8E025CE
S1132C7069F0E025E0640AC0EF6307F8009407FAFE
S1132C80DB01B9019D01DC01CA01AD01EF9347D01D
S1132C906DD10AD05F91552331F02BED3FE049E42B
S1132CA050FD49EC63CF0895DF93DD27B92FBF773B
S1132CB040E85FE31616170648075B0710F4D92FA0
S1132CC08FD19F938F937F936F9336D2E6E7F2E091
S1132CD01AD14CD12F913F914F915F9194D1DD2323
S1132CE049F09058A2EA2AED3FE049EC5FE3D0783E
S1132CF05D274DDFDF913AC1D9D008F481E0089512
S1132D000CD034C12CD140F023D130F021F45F3FFA
S1132D1019F0F0C051115EC1F3C039D198F3992371
S1132D20C9F35523B1F3951B550BBB27AA2762178B
S1132D307307840738F09F5F5F4F220F331F441FD0
S1132D40AA1FA9F333D00E2E3AF0E0E830D0915008
S1132D505040E695001CCAF729D0FE2F27D0660FF5
S1132D60771F881FBB1F261737074807AB07B0E834
S1132D7009F0BB0B802DBF01FF2793585F4F2AF04A
S1132D809E3F510568F0B6C025C15F3FECF3983E05
S1132D90DCF3869577956795B795F7959F5FC9F7A7
S1132DA0880F911D9695879597F90895E1E0660F30
S1132DB0771F881FBB1F621773078407BA0720F0A9
S1132DC0621B730B840BBA0BEE1F88F7E095089512
S1132DD004D06894B111FEC00895E1D088F09F57E3
S1132DE090F0B92F9927B751A0F0D1F0660F771F53
S1132DF0881F991F1AF0BA95C9F712C0B13081F033
S1132E00E8D0B1E00895E5C0672F782F8827B85F30
S1132E1039F0B93FCCF3869577956795B395D9F793
S1132E203EF490958095709561957F4F8F4F9F4F9D
S1132E300895E89409C097FB3EF4909580957095A9
S1132E4061957F4F8F4F9F4F9923A9F0F92F96E9F2
S1132E50BB279395F695879577956795B795F11167
S1132E60F8CFFAF4BB0F11F460FF1BC06F5F7F4F04
S1132E708F4F9F4F16C0882311F096E911C0772316
S1132E8021F09EE8872F762F05C0662371F096E81F
S1132E90862F70E060E02AF09A95660F771F881FEE
S1132EA0DAF7880F9695879597F90895990F000892
S1132EB0550FAA0BE0E8FEEF16161706E807F90708
S1132EC0C0F012161306E407F50798F0621B730BA3
S1132ED0840B950B39F40A2661F0232B242B252B24
S1132EE021F408950A2609F4A140A6958FEF811DC7
S1132EF0811D089597F99F6780E870E060E0089568
S1132F009FEF80EC0895DF93CF931F930F93FF926D
S1132F10EF92DF927B018C01689405C0DA2EEF01F9
S1132F2072D0FE01E894A591259135914591559172
S1132F30AEF3EF012CDEFE019701A801DA9479F7D4
S1132F40DF90EF90FF900F911F91CF91DF91089543
S1132F5000240A9416161706180609060895002474
S1132F600A9412161306140605060895092E0394EE
S1132F70000C11F4882352F0BB0F40F4BF2B11F462
S1132F8060FF04C06F5F7F4F8F4F9F4F089557FDC1
S1132F909058440F551F59F05F3F71F04795880FC3
S1132FA097FB991F61F09F3F79F08795089512165A
S1132FB013061406551FF2CF4695F1DF08C0161606
S1132FC017061806991FF1CF8695710561050894B7
S1132FD00895E894BB2766277727CB0197F90895CE
S1132FE09B01AC0160E070E080E89FE389CE0BD0E8
S1132FF0BDCFAEDF28F0B3DF18F0952309F07ACF08
S11330007FCF1124E7CFC3DFA0F3959FD1F3950FB2
S113301050E0551F629FF001729FBB27F00DB11D58
S1133020639FAA27F00DB11DAA1F649F6627B00DE8
S1133030A11D661F829F2227B00DA11D621F739FD1
S1133040B00DA11D621F839FA00D611D221F749FDF
S11330503327A00D611D231F849F600D211D822F26
S1133060762F6A2F11249F5750408AF0E1F088236D
S11330704AF0EE0FFF1FBB1F661F771F881F91507A
S11330805040A9F79E3F510570F034CFA3CF5F3F66
S1133090ECF3983EDCF3869577956795B795F795AD
S11330A0E7959F5FC1F7FE2B880F911D9695879535
S11330B097F9089511F40EF423CF41C070DFD0F3D3
S11330C09923D9F3CEF39F57550B87FF46D000249D
S11330D0A0E640EA900180585695979528F4805CC4
S11330E0660F771F881F20F026173707480730F42C
S11330F0621B730B840B202931294A2BA695179444
S11331000794202531254A2758F7660F771F881F13
S113311020F026173707480730F4620B730B840B33
S1133120200D311D411DA09581F7B901842F9158BF
S1133130880F9695879508959B01AC0158CF9F3FC2
S113314031F0915020F4879577956795B795880F5E
S1133150911D9695879597F9089591505040660F63
S1133160771F881FD2F70895FC01818D228D90E08E
S1133170805C9F4F821B91098F7399270895FC01EE
S1133180918D828D981731F0828DE80FF11D858D18
S113319090E008958FEF9FEF0895FC01918D828D4B
S11331A0981761F0828DDF01A80FB11D5D968C9197
S11331B0928D9F5F9F73928F90E008958FEF9FEFA2
S11331C00895FC01848DDF01A80FB11DA35ABF4FE0
S11331D02C91848D90E001968F739078848FA689CA
S11331E0B7892C93A089B1898C9180648C93938D39
S11331F0848D981306C00288F389E02D80818F7D29
S113320080830895CF93DF93EC01888D81110AC0E8
S11332101AC00FB607FC08C0808185FF05C00DC029
S1133220CE01CFDFEA89FB89808185FDF2CFA889B1
S1133230B9898C9186FFEDCF06C0A889B9898C9194
S113324085FFF2CFEDCFDF91CF9108950F931F93B8
S1133250CF93DF93EC01162F81E0888F9B8D8C8DAB
S1133260981321C0E889F989808185FD23C01BC09A
S11332700FB607FC07C0E889F989808185FF02C081
S1133280CE019FDF9C8D091799F38B8DFE01E80F0A
S1133290F11DE35AFF4F10830B8FEA89FB8980816C
S11332A0806280830FC08B8D90E001968F7390783D
S11332B0082FE8CFEE89FF896083E889F989808146
S11332C08064808381E090E0DF91CF911F910F9122
S11332D00895CF92DF92EF92FF921F93CF93DF93E3
S11332E0EC016A017B01122FE889F98982E080836D
S11332F0411581EE580761057105A9F060E079E098
S11333008DE390E0A7019601CED3BA01A901415003
S11333105109610971097695679557954795411546
S113332080E15807A0F0E889F989108260E874E820
S11333308EE190E0A7019601B6D3BA01A9014150EC
S11333405109610971097695679557954795EC85FB
S1133350FD855083EE85FF854083188EEC89FD89B9
S11333601083EA89FB89808180618083EA89FB89F3
S1133370808188608083EA89FB898081806880837A
S1133380EA89FB8980818F7D8083DF91CF911F91B2
S1133390FF90EF90DF90CF9008951F920F920FB699
S11333A00F9211240BB60F922F938F939F93AF9389
S11333B0BF93EF93FF93E091F709F091F8098081AF
S11333C082FD17C0E091FD09F091FE0920818091F2
S11333D0000A8F5F8F739091010A891779F0E0E0FA
S11333E0FAE0A081B0E0A951B64F5D962C9380839A
S11333F005C0E091FD09F091FE098081FF91EF91F4
S1133400BF91AF919F918F912F910F900BBE0F9011
S11334100FBE0F901F9018951F920F920FB60F9228
S113342011240BB60F922F933F934F935F936F9397
S11334307F938F939F93AF93BF93EF93FF9387EE05
S113344099E0BFDEFF91EF91BF91AF919F918F9172
S11334507F916F915F914F913F912F910F900BBE90
S11334600F900FBE0F901F9018951092EA091092BA
S1133470E90988EE93E0A0E0B0E08093EB09909333
S1133480EC09A093ED09B093EE098AE892E09093D9
S1133490E8098093E70985EC90E09093F409809320
S11334A0F30984EC90E09093F6098093F50980EC9D
S11334B090E09093F8098093F70981EC90E0909361
S11334C0FA098093F90982EC90E09093FC098093C7
S11334D0FB0986EC90E09093FE098093FD0910921D
S11334E0000A1092010A1092020A1092030A089527
S11334F0CF92DF92EF92FF920F931F93CF93DF93BC
S11335006C0141155105B1F0062F172FEA01E12C8A
S1133510F12CD8016D918D01D601ED91FC910190B2
S1133520F081E02DC6011995E80EF91E2197209728
S113353081F702C0E12CF12CC701DF91CF911F91DB
S11335400F91FF90EF90DF90CF900895DC01ED9103
S1133550FC910190F081E02D199508956F927F926E
S11335608F929F92AF92BF92CF92DF92EF92FF928F
S11335700F931F93CF93DF93CDB7DEB7A1970FB609
S1133580F894DEBF0FBECDBF6C01742E352F862F8D
S1133590972F622E19A221E0261520F00F2EFAE0B3
S11335A06F2EF02D7E01A1E2EA0EF11C862C912CE7
S11335B0A12CB12C672D732FA501940174D2E22F95
S11335C0732F022F132F242F352FF72D6E9EF019F2
S11335D01124B1E0EB1AF108FA3010F4F05D01C0E7
S11335E0F95CD701FC93012B022B032B29F07E2ECF
S11335F0372F842F952FDECFE114F10491F0F701DA
S113360001900020E9F73197AF014E195F09D60107
S1133610ED91FC910280F381E02DB701C60119956B
S113362002C080E090E0A1960FB6F894DEBF0FBE12
S1133630CDBFDF91CF911F910F91FF90EF90DF905D
S1133640CF90BF90AF909F908F907F906F90089590
S1133650CF92DF92EF92FF920F931F93CF93DF935A
S1133660EC016A017B012115310541F4E881F981FE
S11336700190F081E02D642F199519C02A3031058D
S1133680A9F4772384F46DE261DF8C014427552784
S1133690BA014C195D096E097F092AE0CE015EDF8B
S11336A0800F911F04C02AE059DF01C057DFDF916A
S11336B0CF911F910F91FF90EF90DF90CF900895DD
S11336C09A01AB01662757FD6095762FC1CF089507
S11336D01F920F920FB60F9211242F933F938F9343
S11336E09F93AF93BF938091850A9091860AA0918E
S11336F0870AB091880A3091840A23E0230F2D377A
S113370020F40196A11DB11D05C026E8230F0296E1
S1133710A11DB11D2093840A8093850A9093860A83
S1133720A093870AB093880A8091890A90918A0AA3
S1133730A0918B0AB0918C0A0196A11DB11D8093B2
S1133740890A90938A0AA0938B0AB0938C0ABF913A
S1133750AF919F918F913F912F910F900FBE0F903A
S11337601F9018952FB7F8946091850A7091860A76
S11337708091870A9091880A2FBF0895823091051D
S113378038F0880F991F880F991F05970197F1F753
S11337900895789484B5826084BD84B5816084BDC5
S11337A085B5826085BD85B5816085BDEEE6F0E0B6
S11337B0808181608083E1E8F0E010828081826012
S11337C08083808181608083E0E8F0E08081816093
S11337D08083E1EBF0E0808184608083E0EBF0E0C3
S11337E0808181608083E1E9F0E080818260808370
S11337F0808181608083E0E9F0E080818160808362
S1133800E1EAF0E08081826080838081816080834E
S1133810E0EAF0E0808181608083E1E2F1E0808190
S113382082608083808181608083E0E2F1E0808136
S113383081608083EAE7F0E0808184608083808116
S113384082608083808181608083808180688083BE
S11338501092C100089580931202089590E0FC0133
S11338603197E231F10508F05EC0EE5AFE4F3DC1DA
S1133870E0E8F0E080818F7780830895E0E8F0E06D
S113388080818F7D80830895E0E8F0E08081877FE8
S11338908083089584B58F7784BD089584B58F7D22
S11338A084BD0895E0EBF0E080818F7780830895F4
S11338B0E0EBF0E080818F7D80830895E0E9F0E023
S11338C080818F7780830895E0E9F0E080818F7DA7
S11338D080830895E0E9F0E08081877F8083089504
S11338E0E0EAF0E080818F7780830895E0EAF0E0F9
S11338F080818F7D80830895E0EAF0E08081877F76
S113390080830895E0E2F1E080818F7780830895D9
S1133910E0E2F1E080818F7D80830895E0E2F1E0D0
S11339208081877F80830895CF93DF9390E0FC01AB
S1133930E25FFC4F2491FC01EC5AFC4F84918823F4
S113394071F190E0880F991FFC01E253FC4FA5919F
S1133950B4918C549C4FFC01C591D49161110BC05E
S11339608FB7F8949C91209592239C93E8812E2301
S113397028838FBF14C0623061F48FB7F8943C91F0
S1133980922F909593239C93E8812E2B28838FBFAD
S113399006C08FB7F894EC912E2B2C938FBFDF9138
S11339A0CF9108951F93CF93DF93C62F282F30E034
S11339B0F901E853FD4F8491F901E25FFC4F149142
S11339C0F901EC5AFC4FD491DD23C1F0811146DF9B
S11339D02D2F30E0F901EE0FFF1FEC54FC4FA591A1
S11339E0B4918FB7F894C11105C0EC9110951E23C2
S11339F01C9303C0EC911E2B1C938FBFDF91CF91BE
S1133A001F9108950F931F93762F90E0FC01E25FBE
S1133A10FC4F6491FC01EC5AFC4FE4917111762F38
S1133A20F0E0EE0FFF1FE656FC4F8591949189015B
S1133A309A013F70472F0E94290261157105810583
S1133A40910549F0DC01CB010196A11DB11DBC011A
S1133A50CD019F7003C060E070E0CB011F910F9116
S1133A600895DB018F939F9346D0BF91AF91A29F9E
S1133A70800D911DA39F900DB29F900D1124089568
S1133A8097FB072E16F4009406D077FD08D041D09A
S1133A9007FC05D03EF4909581959F4F089570954D
S1133AA061957F4F0895A1E21A2EAA1BBB1BFD014D
S1133AB00DC0AA1FBB1FEE1FFF1FA217B307E40709
S1133AC0F50720F0A21BB30BE40BF50B661F771F61
S1133AD0881F991F1A9469F7609570958095909541
S1133AE09B01AC01BD01CF010895EE0FFF1F0590AE
S1133AF0F491E02D199421D0A59F900DB49F900DC1
S1133B00A49F800D911D112408950790F691E02D36
S1133B101994AA1BBB1B51E107C0AA1FBB1FA61700
S1133B20B70710F0A61BB70B881F991F5A95A9F762
S1133B3080959095BC01CD010895A29FB001B39FDB
S1133B40C001A39F700D811D1124911DB29F700DA2
S10F3B50811D1124911D0895F894FFCFED
S1133B5C0B003600080007000600050004000300F3
S1133B6CFFFF01018001800180FF7FFF7FFF7F2029
S1133B7C075B014F045C07A401B3047072696E7493
S1133B8C410052656164204779726F6D657465728A
S1133B9C005265616420416363656C65726F6D6589
S1133BAC7465720052656164204D61676E65746F53
S1133BBC005265616420556C747261736F6E696335
S1133BCC0049444C45000000000039150A15DF1467
S1133BDCE714FA140915000000002619781AB41811
S1093BECCD18BF180219F8
S9030000FC
