:1000000020C200004FC200004DC200004BC20000E1
:1000100049C2000047C2000045C2000043C20000C0
:1000200041C200003FC200003DC200003BC20000D0
:1000300039C200000C942E0935C2000033C2000002
:1000400031C200002FC200002DC200002BC20000F0
:1000500029C2000027C2000025C200000C94C2186B
:1000600021C200000C940D170C944C171BC2000009
:1000700019C2000017C2000015C2000013C2000020
:1000800011C200000FC200000DC200000BC2000030
:1000900009C2000007C2000005C200000C94AE10A7
:1000A00001C20000FFC10000FDC10000FBC1000053
:1000B000F9C10000F7C10000F5C10000F3C1000064
:1000C000F1C10000EFC10000EDC10000EBC1000074
:1000D000E9C10000E7C10000E5C10000E3C1000084
:1000E000E1C10000B411B711B711B711B711B711C1
:1000F000B711B711CE10B711B711B711B711B711AA
:10010000B711B711CE10B711B711B711B711B71199
:10011000B711B711D610B711B711B711B711B71181
:10012000B711B711FB10B711B711B711B711B7114C
:10013000B711B711D610B711B711B711B711B71161
:10014000B711B7110011B711B711B711B711B71126
:10015000B711B7110511B711B711B711B711B71111
:10016000B711B7111611B711B711B711B711B711F0
:10017000B711B7113F11B711B711B711B711B711B7
:10018000B711B7110A11B711B711B711B711B711DC
:10019000B711B7112411B711B711B711B711B711B2
:1001A000B711B7114111B711B711B711B711B71185
:1001B000B711B7114111B711B711B711B711B71175
:1001C000B711B7114111B711B711B711B711B71165
:1001D000B711B7114111B711B711B711B711B71155
:1001E000B711B7114A11B711B711B711B711B7113C
:1001F000B711B7117B11B711B711B711B711B711FB
:10020000B711B7114A11B711B711B711B711B7111B
:10021000B711B7117B11B711B711B711B711B711DA
:10022000B711B7116211B711B711B711B711B711E3
:10023000B711B7117F11B711B711B711B711B711B6
:10024000B711B7117F11B711B711B711B711B711A6
:10025000B711B7119411B711B711B711B711B71181
:10026000B711B711AE11B711B711B711B711B71157
:10027000B711B711AE1107634236B79BD8A71A3929
:10028000685618AEBAAB558C1D3CB7CC5763BD6DE4
:10029000EDFD753EF6177231BF000000803F08008B
:1002A0000000BE922449123EABAAAA2ABECDCCCCF5
:1002B0004C3E00000080BEABAAAAAA3E000000008F
:1002C000BF000000803F0000000000084178D3BB61
:1002D0004387D1133D190E3CC3BD4282AD2B3E680E
:1002E000EC8276BED98FE1A93E4C80EFFFBE01C4FF
:1002F000FF7F3F0000000000C819CC19B619BC19D7
:10030000C219111AD019D619DC19E219E819EE1917
:10031000F419FA19111A001A061A0C1A00000A0B1D
:1003200002090C0D0E080703040100000000000084
:1003300000000000000000000000000000000000BD
:10034000000000000000000012111000000000007A
:10035000000000000000000000000000000000009D
:1003600000000102102020080810204010204080CA
:100370000201020108040201010204081020408069
:1003800080402010080402018004020180402010F7
:100390000804020108040201010204081020408040
:1003A000010204081020408005050505070508081E
:1003B0000808020202020A0A0808040404040101EF
:1003C0000101010101010303030303030303040704
:1003D00007070C0C0C0C0C0C0C0C0202020206069B
:1003E0000606060606060B0B0B0B0B0B0B0B000091
:1003F00020002300260029002C002F0032000001DD
:100400000000030106010901000022002500280068
:100410002B002E003100340002010000050108010C
:100420000B0100002100240027002A002D003000CD
:10043000330001010000040107010A01320B9C1284
:10044000751711241FBECFEFD1E2DEBFCDBF00E094
:100450000CBF12E0A0E0B2E0EEE0F7E300E00BBF7B
:1004600002C007900D92AE39B107D9F72AE0AEE984
:10047000B2E001C01D92AF38B207E1F714E0C2E468
:10048000D4E000E006C022970109FE010BBF0E94E4
:100490005E1BCC33D10780E00807A9F70E94C60A8B
:1004A0000C94851BADCDCF92DF92EF92FF920F930C
:1004B0001F93E82FF92F05C00150110921093109B7
:1004C00061F1908196239417B9F305C00150110989
:1004D0002109310911F1908196239413F7CFC12C92
:1004E000D12CE12CF12C0AC08FEFC81AD80AE80AE7
:1004F000F80A0C151D052E053F0579F0808186232D
:10050000841791F36C2D7D2D8E2D9F2D1F910F91B2
:10051000FF90EF90DF90CF90089560E070E080E072
:1005200090E01F910F91FF90EF90DF90CF90089592
:10053000CF93DF93EC010E94BD0D80919E029091BC
:100540009F02892B31F483EA92E090939F0280937B
:100550009E024091A0025091A1029E01240F351FDE
:100560002B3D85E0380770F44217530770F4C091B3
:100570009E02D0919F02C40FD51F3093A1022093F9
:10058000A00205C0C0E0D0E002C0C0E0D0E00E9400
:10059000810ECE01DF91CF9108950895FC0183E093
:1005A000878312861186138608950F931F93CF9326
:1005B000DF93EC01062F142F688587E999E00E94EC
:1005C0007D12602F87E999E00E942412612F87E94C
:1005D00099E00E94241287E999E00E9499128E8383
:1005E000DF91CF911F910F910895CF93DF93EC018D
:1005F0008F81823021F440E069E3CE01D6DF40E014
:1006000063E2CE01D2DF4FE660E2CE01CEDFDF91C2
:10061000CF9108959F92AF92BF92CF92DF92EF92C7
:10062000FF920F931F93CF93DF93EC01688587E9C7
:1006300099E00E947D12E0919709F091980901904C
:10064000F081E02D68EA87E999E0199587E999E05A
:100650000E94991246E0688587E999E00E947A1223
:100660000E940C198B0110C089859A85892B61F035
:100670000E940C19601B710B89859A858617970754
:1006800018F481E08B8732C087E999E00E94CA1193
:10069000069754F387E999E00E94D211A82E87E9C2
:1006A00099E00E94D211982E87E999E00E94D21118
:1006B000082F87E999E00E94D211B82E87E999E0C6
:1006C0000E94D211182F87E999E00E94D211D92CEB
:1006D000C12CCA28D982C882FB2CE12CE02AFB82DB
:1006E000EA82982F8827812B9D838C83DF91CF917D
:1006F0001F910F91FF90EF90DF90CF90BF90AF9040
:100700009F900895CF93DF93C62FD42F87E999E068
:100710000E947D126D2F87E999E00E94241287E9DB
:1007200099E00E949912811111C041E06C2F87E974
:1007300099E00E947A1287E999E00E94CA11892BF8
:1007400041F087E999E00E94D21105C08FEF9FEF39
:1007500002C08FEF9FEFDF91CF9108950F931F930A
:10076000CF93DF93EC01162F042F633009F456C0AA
:100770004230C9F556C0133009F058C0873D910585
:1007800009F458C001E011E02CC0013091F04FE0B5
:100790006AE6CE01B7DF8F3F2FEF920751F013309B
:1007A00009F046C0873D910509F047C000E012E01E
:1007B00018C0133011F0111114C0002349F04FE09C
:1007C00069E6CE019FDF833D9105D1F1013039F01B
:1007D0004FE068E6CE0196DF833D910599F1133035
:1007E000B9F00230B9F01F83112351F01330A0F497
:1007F000013011F48BE601C08AE6888781E041C0B0
:10080000013011F489E601C088E6888781E039C0AB
:1008100080E037C080E035C081E033C0442341F13F
:100820001EC08FEF860F833030F60FC001E0C3CFBC
:1008300000E0C1CF01E012E0D4CF00E011E0D1CF61
:1008400001E001C000E01F82DBCF4FE06BE6CE018C
:1008500059DF8F3F2FEF920709F08DCF98CF4FE0F0
:100860006BE650DF8F3F2FEF920709F087CF8DCFD8
:100870004FE06AE647DF8F3F2FEF920709F092CFF4
:1008800098CFDF91CF911F910F910895FC010396AE
:10089000928381832FEF3FEF348323839683858375
:1008A0009087878310820895FC0111861086089531
:1008B000CF93DF939C01FB01DC011196CD91DC917C
:1008C0001297D383C2838C819D81958384838C818D
:1008D0009D81DC0113967C936E9312977D836C83CC
:1008E00031872087F90180818F5F8083DF91CF91ED
:1008F0000895CF93DF93EB01488159814F3F2FEF4C
:10090000520721F4FC01A781B0850DC0DC011396CC
:100910001296ED91FC911397208131814217530774
:1009200010F0DF01F5CF1296ED91FC911397FB8348
:10093000EA83D583C483BD83AC831396DC93CE93C3
:10094000129799878887FC0120812F5F2083DF9190
:10095000CF910895CF93DF93FC01A085B185C2812B
:10096000D381848195819D838C83C481D58182814B
:1009700093819B838A831196CD91DC911297CE1738
:10098000DF0731F48C819D8112969C938E93119791
:10099000118610868C9181508C93DF91CF910895B0
:1009A000CF93DF93EC0186E0E9E0F2E0DE015296BE
:1009B00001900D928A95E1F786E0EFE0F2E0DE012A
:1009C0001C9601900D928A95E1F784E0898F1CA214
:1009D0001BA21DA2DF91CF9108950F931F93CF9378
:1009E000DF93EC01062F142F6A8D87E999E00E94AE
:1009F0007D12602F87E999E00E942412612F87E918
:100A000099E00E94241287E999E00E949912888F48
:100A1000DF91CF911F910F9108950F931F93CF9363
:100A2000DF93EC01062F142F6B8D87E999E00E946C
:100A30007D12602F87E999E00E942412612F87E9D7
:100A400099E00E94241287E999E00E949912888F08
:100A5000DF91CF911F910F910895FC01218D2330DB
:100A600011F0603210F4D9CF0895B7CF0895CF9325
:100A7000DF93EC01898D8330A9F440E061E2CE017F
:100A8000ECDF47E560E2CE01E8DF44E664E2CE0158
:100A9000E4DF40E265E2CE01E0DF40E066E2CE0165
:100AA000DCDF1FC0823049F448E063E2CE0195DF0D
:100AB00047E460E2CE0191DF08C040E063E2CE018E
:100AC0008CDF47E260E2CE0188DF4CE060E0CE01DF
:100AD000A4DF40E261E0CE01A0DF40E062E0CE01B1
:100AE0009CDFDF91CF9108959F92AF92BF92CF92FA
:100AF000DF92EF92FF920F931F93CF93DF93EC015E
:100B00006A8D87E999E00E947D12E0919709F09142
:100B100098090190F081E02D68EA87E999E019953C
:100B200087E999E00E949912888F46E06A8D87E9EB
:100B300099E00E947A120E940C198B0110C08BA1BF
:100B40009CA1892B61F00E940C19601B710B8BA179
:100B50009CA18617970718F481E08DA332C087E91E
:100B600099E00E94CA11069754F387E999E00E9420
:100B7000D211A82E87E999E00E94D211982E87E918
:100B800099E00E94D211082F87E999E00E94D211C2
:100B9000B82E87E999E00E94D211182F87E999E0D1
:100BA0000E94D211D92CC12CCA28D982C882FB2C10
:100BB000E12CE02AFB82EA82982F8827812B9D83F3
:100BC0008C83DF91CF911F910F91FF90EF90DF9079
:100BD000CF90BF90AF909F900895CF92DF92EF9209
:100BE000FF920F931F93CF93DF93EC016B8D87E9F7
:100BF00099E00E947D12898D833031F46E8D7727C4
:100C000067FD7095606804C06D8D772767FD7095EE
:100C1000E0919709F09198090190F081E02D87E922
:100C200099E0199587E999E00E949912888F46E02A
:100C30006B8D87E999E00E947A120E940C198B0152
:100C400010C08BA19CA1892B61F00E940C19601B24
:100C5000710B8BA19CA18617970718F481E08DA3D7
:100C60006EC087E999E00E94CA11069754F3898DF6
:100C70008330F9F487E999E00E94D211C82E87E900
:100C800099E00E94D211D82E87E999E00E94D211F2
:100C9000E82E87E999E00E94D211F82E87E999E0C1
:100CA0000E94D211082F87E999E00E94D211182FD3
:100CB00036C087E999E00E94D211D82E87E999E0E1
:100CC0000E94D211C82E898D811115C087E999E043
:100CD0000E94D211F82E87E999E00E94D211E82EE5
:100CE00087E999E00E94D211182F87E999E00E94C4
:100CF000D211082F14C087E999E00E94D211182F51
:100D000087E999E00E94D211082F87E999E00E94B3
:100D1000D211F82E87E999E00E94D211E82E6C2DAD
:100D200070E07D297F836E834E2D50E05F295987C7
:100D30004887202F30E0C901912B9B878A87DF915C
:100D4000CF911F910F91FF90EF90DF90CF9008957A
:100D5000CF93DF93EC01C8DECE013FDFDF91CF916F
:100D60000895CF93DF93C62FD42F87E999E00E948F
:100D70007D126D2F87E999E00E94241287E999E09E
:100D80000E949912811111C041E06C2F87E999E00E
:100D90000E947A1287E999E00E94CA11892B41F0DA
:100DA00087E999E00E94D21105C08FEF9FEF02C042
:100DB0008FEF9FEFDF91CF9108950F931F93CF9304
:100DC000DF93EC01162F042F643009F4ADC04230DC
:100DD00009F047C0ADC04FE06DE1CE01C2DF8934FC
:100DE000910509F4ABC0013041F04FE06EE1CE0156
:100DF000B8DF8934910509F4A3C0143011F0133021
:100E000068F50023A9F040E269E1CE01AADF01966E
:100E100069F0143009F099C04FE06EE1CE01A1DF16
:100E2000CC9709F094C001E012E01BC0013099F0AA
:100E300040E268E1CE0195DF019669F0143009F0D7
:100E400089C04FE06EE1CE018CDF11E0CC9709F054
:100E500010E000E006C0143009F460C0023009F46C
:100E60005FC0198F113071F108F442C01230C1F027
:100E7000133009F057C0013011F48DE101C08EE14B
:100E80008B8F8A8F88E08E8F89E08D8F8AE088A390
:100E90008BE08F8F8CE08AA38DE089A381E064C012
:100EA00089E18A8F8EE18B8F83E08D8F84E08E8F36
:100EB00087E08F8F88E088A385E089A386E08AA3F6
:100EC00081E052C0013011F489E101C088E18A8FCC
:100ED0008EE18B8F83E08D8F84E08E8F87E08F8F04
:100EE00088E088A385E089A386E08AA381E03CC0EE
:100EF000013011F489E101C088E18A8F8EE18B8F86
:100F000083E08D8F84E08E8F85E08F8F86E088A3CD
:100F100087E089A388E08AA381E026C080E024C01E
:100F200080E022C081E020C0442309F45ECF53CF8B
:100F30008DEF860F823008F062CF0EC001E003C053
:100F400000E001C001E013E089CF01E08ACF01E0B9
:100F500010E087CF00E085CF4FE06DE1CE0101DFEB
:100F60008934910579F341CFDF91CF911F910F9192
:100F7000089531E1FC013083319722E220833197DB
:100F8000A3E3A083319760833197708331971082F8
:100F900031971082319760E86083319710823197E2
:100FA000108231971082319762E06083319763E05D
:100FB0006083319764E06083319765E060833197A7
:100FC00066E06083319767E06083319768E0608313
:100FD000319769E06083319760E1608331973083B6
:100FE000319732E13083319733E13083319734E107
:100FF0003083319735E13083319736E13083319753
:1010000037E13083319738E13083319739E13083EC
:10101000319730E23083319731E23083319720834A
:10102000319723E220833197408331975083319762
:1010300026E22083319727E22083319728E220831C
:10104000319729E22083319720E32083319721E3F0
:1010500020838997089582E08093B0001092B200B7
:1010600080E38093B300E0E7F0E0808182608083DA
:1010700084E08093B100A0912709B0912809CD9117
:10108000CDBFDD91DEBFFF91EF91DF91CF91BF9199
:10109000AF919F918F917F916F915F914F913F9110
:1010A0002F911F910F91FF90EF90DF90CF90BF9005
:1010B000AF909F908F907F906F905F904F903F90F8
:1010C0002F901F900F900CBE0F900BBE0F900FBE75
:1010D0000F90089581E008950F920FB6F8940F9243
:1010E0000CB60F920BB60F921F9211242F923F92C3
:1010F0004F925F926F927F928F929F92AF92BF9228
:10110000CF92DF92EF92FF920F931F932F933F9313
:101110004F935F936F937F938F939F93AF93BF93FF
:10112000CF93DF93EF93FF93A0912709B091280904
:101130000DB60D920EB60D92BAD6A0912709B091B8
:101140002809CD91CDBFDD91DEBFFF91EF91DF91F9
:10115000CF91BF91AF919F918F917F916F915F914F
:101160004F913F912F911F910F91FF90EF90DF9042
:10117000CF90BF90AF909F908F907F906F905F9037
:101180004F903F902F901F900F900CBE0F900BBE72
:101190000F900FBE0F9008950F920FB6F8940F9214
:1011A0000CB60F920BB60F921F9211242F923F9202
:1011B0004F925F926F927F928F929F92AF92BF9267
:1011C000CF92DF92EF92FF920F931F932F933F9353
:1011D0004F935F936F937F938F939F93AF93BF933F
:1011E000CF93DF93EF93FF93A0912709B091280944
:1011F0000DB60D920EB60D92C6D4811158D6A0919F
:101200002709B0912809CD91CDBFDD91DEBFFF91B7
:10121000EF91DF91CF91BF91AF919F918F917F918E
:101220006F915F914F913F912F911F910F91FF907F
:10123000EF90DF90CF90BF90AF909F908F907F9076
:101240006F905F904F903F902F901F900F900CBE2B
:101250000F900BBE0F900FBE0F9008959DDF189555
:10126000CEE8D8E080E998E0C2D29983888388EEFE
:1012700093E0C8D5F7CFC2E0D2E004E012E00F2E31
:10128000F0E8EF2EF8E0FF2EF02D60E088810E945C
:10129000501A85E090E00E94181961E088810E9450
:1012A000501A8AE090E00E94181960E088810E943C
:1012B000501A60E0F80180810E94121A20E432E4A2
:1012C0004FE050E061E0F80180810E94801A9B01AC
:1012D000772314F42F5F3F4FB901759567958827E1
:1012E00077FD8095982F0E94A0132DEC3CEC48EEE2
:1012F00051E40E9405130E946D13F701718360830E
:1013000088E893E17FD5C1CF0F2EFCEAAF2EF8E03D
:10131000BF2EF02D0EEA18E0C2E8D8E00F2EF4E858
:101320008F2EF8E09F2EF02D0F2EF6E82F2EF8E0EE
:101330003F2EF02D8AEA98E00BDDF5016081718186
:10134000882777FD8095982F0E94A01320E030E039
:101350004AE754E40E94051320E030E044E752E4F9
:101360000E9458142FE632E143E85AE30E945814D1
:101370002DEC3CEC4CE151E40E9458140E946D139A
:101380002B013C01F80160817181882777FD8095F0
:10139000982F0E94A01320E030E04AE754E40E9416
:1013A000051320E030E044E752E40E9458142FE691
:1013B00032E143E85AE30E9458142DEC3CEC4CE136
:1013C00051E40E9458140E946D136B017C018091BE
:1013D000AA089091AB08BC01882777FD8095982FCB
:1013E0000E94A01320E030E04AE754E40E94051375
:1013F00020E030E044E752E40E9458142FE632E146
:1014000043E85AE30E9458142DEC3CEC4CE151E4C3
:101410000E9458140E946D1379836883F4015182ED
:101420004082F101D182C08288EE93E0EBD482CF7A
:101430000F2EF0EAAF2EF8E0BF2EF02D02EA18E0F2
:10144000C8E8D8E00F2EFAE88F2EF8E09F2EF02D96
:101450000F2EFCE82F2EF8E03F2EF02D8EE998E0BD
:10146000D9D8F50160817181882777FD8095982F03
:101470000E94A01320E030E04CE051E40E94581498
:1014800020E030E04AE754E40E9405130E946D1307
:101490002B013C01F80160817181882777FD8095DF
:1014A000982F0E94A01320E030E04CE051E40E940D
:1014B000581420E030E04AE754E40E9405130E94EB
:1014C0006D136B017C0180919E0890919F08BC0177
:1014D000882777FD8095982F0E94A01320E030E0A8
:1014E0004CE051E40E94581420E030E04AE754E414
:1014F0000E9405130E946D1379836883F401518261
:101500004082F101D182C08288EE93E07BD4A6CFE5
:1015100026E040E855E260E070E089EE99E00E9444
:10152000A91687E999E0D0D742E064E08AEA98E01A
:1015300044DC8AEA98E09BDA86E0E5E1F2E0ACEB95
:10154000B8E001900D928A95E1F786E0EBE1F2E0D8
:10155000A6EBB8E001900D928A95E1F742E063E0D6
:101560008EE998E0FBD88EE998E03FD861E0809161
:1015700002020E94121A60E0809104020E94121A74
:1015800060E0809100020C94121A0895AF92BF920D
:10159000CF92DF92EF92FF920F93CF93DF93CDB76D
:1015A000DEB72A970FB6F894DEBF0FBECDBF0E94FC
:1015B0002319AEDFA12CB12CC12CD12CCE01099660
:1015C0007C010AE020E030E040E850E061E272E0B7
:1015D00089E49BE0A1D1CE0107967C0109E020E0DF
:1015E00030E040E850E068E272E088E19AE094D1AF
:1015F000CE0105967C0108E020E030E040E850E0B4
:1016000067E372E084E899E087D1CE0103967C011C
:1016100007E020E030E040E850E06AE472E080E378
:1016200099E07AD1CE0101967C0105E020E030E01E
:1016300040E850E068E572E08BE399E06DD174D248
:1016400080E090E02A960FB6F894DEBF0FBECDBFC3
:10165000DF91CF910F91FF90EF90DF90CF90BF90EF
:10166000AF9008950F931F938AEA98E099D98EE975
:1016700098E00E94CE0206EB1EE42DE530E049E141
:1016800050E066E370E080E998E02FD01F910F9161
:101690000895C0E30F2EF0E8EF2EF8E0FF2EF02DB6
:1016A00000E918E089EE99E00E94F415892B29F0F1
:1016B00089EE99E00E940D16C82FC03391F0E70122
:1016C000699179914AE050E089EE99E00E94AC1866
:1016D0006DE089EE99E00E94E617C017D10781F707
:1016E000C0E388EE93E08ED3DDCF0F931F93FC0110
:1016F000C901718360835583448364E670E00E946E
:10170000FD1A758764871383028381E00E9485191F
:101710001F910F9108958F929F92AF92BF92CF9297
:10172000DF92EF92FF920F931F93CF93DF93EC0121
:1017300088810E948819BC01882777FD8095982FA1
:101740001F921F9223E12F9328E82F93A12CB12CF5
:101750006501EE24EA9413E0F12E00E010E020E0B1
:1017600030E0A9010E94AF1AEBD72A813B810F908C
:101770000F900F900F90283344E03407A1F420E03D
:1017800030E04AE754E441D72EE03DE24AE95FEB1E
:101790000E94BB1422EF32ED4DED51E40E9458142B
:1017A0009CD74B0116C0263B3E4499F420E030E024
:1017B0004AE754E42AD72FE93BEA4DE85FEB0E9461
:1017C000BB1421EC3AE446E752E40E94581485D752
:1017D0004B01C401DF91CF911F910F91FF90EF90CA
:1017E000DF90CF90BF90AF909F908F9008950F9310
:1017F0001F93CF93DF93EC011F821E8219861886F8
:101800008C819D811816190634F500E010E0CE0198
:1018100082DF6C857D854A855B85649F9001659F2D
:10182000300D749F300D1124821793076CF09B8745
:101830008A8728853985820F931F998788878E81AB
:101840009F8101969F838E830F5F1F4F8C819D81A7
:1018500008171907E4F2888599856E817F810E94B7
:10186000FD1ACB01DF91CF911F910F910895E09167
:10187000EF08F091F0088081811107C08FEF9FEF92
:1018800090930702809306020895E091EF08F0918B
:10189000F0080580F681E02D0680F781E02D828139
:1018A000938190930702809306020895CF93DF936C
:1018B000EC01E0912709F0912809938382838091BC
:1018C000D7089091D808C817D90760F46091270904
:1018D000709128098091ED089091EE086E5F7F4F1E
:1018E00008D817C060912709709128098091EF08E6
:1018F0009091F0086E5F7F4F0E94790480910602FC
:1019000090910702C817D90720F4D0930702C0931B
:101910000602DF91CF9108954F925F926F927F926E
:101920008F929F92AF92BF92CF92DF92EF92FF92EF
:101930000F931F93CF93DF934C015B012A01390171
:1019400081E290E00E949802EC01009709F4DAC06D
:10195000C114D10409F0BFC0C2010E949802988F3F
:101960008F8B892B09F0B9C0CE010E94CD02CAC06D
:10197000CF013191DA013D93AD01DC018C918823D7
:1019800011F02150A9F718A2102F043008F013E02D
:101990001E8B5E01B2E0AB0EB11CC5010E94540467
:1019A000CE010C960E945404D987C88784E090E049
:1019B000811B91099D878C87DB8BCA8BA301B401A6
:1019C000C601D7DA99838883E114F10419F0F7018D
:1019D000D183C0830FB6F8940F928091D9088F5F9E
:1019E0008093D9088091270990912809892BA9F51E
:1019F000D0932809C09327098091D9088130E1F557
:101A000083E099E00E9446048CE099E00E9446043D
:101A100085E199E00E9446048EE199E00E94460427
:101A20008AEF98E00E94460481EF98E00E94460405
:101A300084EE98E00E9446048BED98E00E944604F4
:101A40008AEF98E09093F0088093EF0881EF98E098
:101A50009093EE088093ED080FC08091D508811116
:101A60000BC0E0912709F09128098689081720F01A
:101A7000D0932809C09327098091D1088F5F809364
:101A8000D1088E899091D608981710F48093D608C3
:101A900090E09C01220F331F220F331F220F331FB0
:101AA000820F931FB5018D5F964F0E9458040F90CF
:101AB0000FBE8091D508882351F0E0912709F0915D
:101AC00028098689801728F407DB81E01CC081E0A3
:101AD0001AC081E018C0D88ECF8AF1E04F1A5108A1
:101AE000CF88D88CC40CD51CD5018C91898F8C9152
:101AF000882309F448CFAE01465E5F4FF501319669
:101B000027E036CF8FEFDF91CF911F910F91FF909C
:101B1000EF90DF90CF90BF90AF909F908F907F908D
:101B20006F905F904F900895AF92BF92CF92DF92E7
:101B3000EF92FF920F93A12CB12CC12CD12CE12C50
:101B4000F12C00E020E030E045E550E068E672E08E
:101B50008EE19FE0E1DE813041F4F8948093D50876
:101B60001092D8081092D70876DA0F91FF90EF9074
:101B7000DF90CF90BF90AF9008958091D0088F5F95
:101B80008093D0080895CF92DF92EF92FF920F9347
:101B90001F93CF93DF938091D008811199C08091DA
:101BA000D7089091D80801969093D8088093D708C9
:101BB000E090D708F090D808E114F104B1F48091D6
:101BC000EF089091F0082091ED083091EE083093E5
:101BD000F0082093EF089093EE088093ED08809131
:101BE000D2088F5F8093D20842DE809106029091E6
:101BF0000702E816F90608F454C0D12CCC24C3948B
:101C000001C0DC2CE091EF08F091F0088081811197
:101C100007C08FEF9FEF909307028093060242C0A8
:101C2000E091EF08F091F0080580F681E02DC68183
:101C3000D7812A813B81E216F30628F4309307020C
:101C4000209306022FC08E010E5F1F4FC8010E9415
:101C5000AA048C899D89892B21F0CE010C960E94C3
:101C6000AA042E898091D608821710F42093D608F2
:101C700030E0C901880F991F880F991F880F991F9D
:101C8000820F931FB8018D5F964F0E945804E09118
:101C90002709F09128099E898689981708F0B1CF05
:101CA000B1CFD12CE0912709F0912809868990E0E5
:101CB000FC01EE0FFF1FEE0FFF1FEE0FFF1F8E0F39
:101CC0009F1FFC01ED5FF64F8081823040F409C018
:101CD0008091D4088F5F8093D408D12C02C0DD247A
:101CE000D3948091D308882311F0DD24D3948D2DD3
:101CF000DF91CF911F910F91FF90EF90DF90CF90E8
:101D00000895DF92EF92FF920F931F93CF93DF938B
:101D10000FB6F8940F928091D00881508093D0082C
:101D20008091D00881115FC08091D908882309F47F
:101D30005CC00F2EF4EEEF2EF8E0FF2EF02DDD2428
:101D4000D39430C0E091E908F091EA08C681D781C8
:101D5000CE010C960E94AA048E010E5F1F4FC8018F
:101D60000E94AA048E899091D608981710F4809347
:101D7000D60890E09C01220F331F220F331F220F41
:101D8000331F820F931FB8018D5F964F0E94580436
:101D9000E0912709F09128099E898689981710F00B
:101DA000D092D308F70180818111CCCF8091D408E3
:101DB000882391F08091D408882371F0C1E0E3DE9C
:101DC0008111C093D3088091D40881508093D408A6
:101DD0008091D4088111F3CF8091D308813039F4F8
:101DE0007BD981E005C080E003C080E001C080E0D5
:101DF0000F900FBEDF91CF911F910F91FF90EF9049
:101E0000DF900895CF93DF93EC01009799F0B5DE52
:101E10008091D7089091D808C80FD91F80912709C1
:101E20009091280902960E94AA04CE013FDD69DF45
:101E3000811101C051D9DF91CF9108950F2EF3E0A8
:101E4000EF2EF9E0FF2EF02DCBEDD8E026C095DE89
:101E5000188157DF112309F10FB6F8940F92E09122
:101E6000E008F091E10806811781C80102960E94FE
:101E7000AA048091D90881508093D9088091DA080A
:101E800081508093DA080F900FBEF8018789908DFA
:101E90000E94CD02C8010E94CD028091DA08811112
:101EA000D6CFF70180818230C0F316D9F6CF80916A
:101EB000D008882321F081E08093D3080895109200
:101EC000D3088091D60890E0FC01EE0FFF1FEE0FC3
:101ED000FF1FEE0FFF1F8E0F9F1FFC01ED5FF64FE0
:101EE0008081811117C08091D60881508093D608D7
:101EF0008091D60890E0FC01EE0FFF1FEE0FFF1F50
:101F0000EE0FFF1F8E0F9F1FFC01ED5FF64F8081CC
:101F1000882349F3E091D608F0E0CF01880F991F9C
:101F2000880F991F880F991FE80FF91FED5FF64F73
:101F3000A181B28112960D90BC91A02DB283A18394
:101F4000CF010396A817B90731F412968D919C9191
:101F50001397928381830180F281E02D868197819E
:101F6000909328098093270908951092960981E09B
:101F7000809394091092930961E084E10E94501AC1
:101F800061E085E10E94501AE9EBF0E080818E7FEC
:101F9000808380818D7F80838DEF8093B80085E47E
:101FA0008093BC000895413208F045C09091960995
:101FB0009111FCCF91E090939609209394092FEF13
:101FC0002093290910926E09240F20936D09909394
:101FD000950990919509880F892B80939509809197
:101FE0009309813051F4109293098091950980935F
:101FF000BB0085EC8093BC0003C085EE8093BC00E1
:10200000809196098130E1F380916E09841710F474
:1020100040916E09442389F0EFE6F9E0A62FB72F2F
:102020002FEF240F30E02059364F91919D93E21706
:10203000F307D9F704C080E00895842F0895842F12
:1020400008950F93413208F050C090919609911174
:10205000FCCF92E090939609009394099FEF9093A0
:10206000290910926E0940936D09442369F0FB0120
:10207000AFE6B9E06F5F7F4F4150640F711D9191E2
:102080009D93E617F707D9F7109295099091950956
:10209000880F892B8093950980919309813051F4A1
:1020A00010929309809195098093BB0085EC8093F1
:1020B000BC0003C085EE8093BC00222341F08091D8
:1020C0009609823021F4809196098230E1F3809163
:1020D00029098F3F61F080912909803251F0809168
:1020E0002909803341F483E007C081E005C080E026
:1020F00003C082E001C084E00F9108956132A8F42A
:1021000020919609243099F460934B09662389F055
:10211000FC01ADE4B9E001966150860F911D21915B
:102120002D93E817F907D9F706C081E0089582E0FA
:10213000089580E0089580E0089585ED8093BC00C7
:10214000ECEBF0E0808184FDFDCF109296090895BC
:1021500085EC8093BC001092960908951F920F920F
:102160000FB60F9211240BB60F922F933F934F93FC
:102170005F936F937F938F939F93AF93BF93EF93EF
:10218000FF938091B900887F90E0893C910508F029
:10219000EEC0FC01EE58FF4F0C944E1B8091950948
:1021A0008093BB0085EC8093BC00E1C090916E09E8
:1021B00080916D09981780F4E0916E0981E08E0F8F
:1021C00080936E09F0E0E159F64F80818093BB0067
:1021D00085EC8093BC00CBC080919409882311F0DA
:1021E000ACDFC5C081E08093930984EA8093BC0092
:1021F00010929609BCC080E2809329099EDFB7C087
:1022000080E38093290999DFB2C088E3809329098C
:102210009FDFADC0E0916E0981E08E0F80936E0963
:102220008091BB00F0E0E159F64F808390916E09F8
:1022300080916D09981720F485EC8093BC0097C0BD
:1022400085E88093BC0093C0E0916E0981E08E0F19
:1022500080936E098091BB00F0E0E159F64F8083D6
:1022600080919409882311F068DF81C081E0809318
:10227000930984EA8093BC001092960978C05DDFD0
:1022800076C083E08093960910922A0985EC8093AA
:10229000BC006DC080912A09803280F4E0912A0947
:1022A00081E08E0F80932A098091BB00F0E0E55D0C
:1022B000F64F808385EC8093BC0059C085E88093FD
:1022C000BC0055C080912A09803230F4E0912A097F
:1022D000F0E0E55DF64F108230DF60912A0970E092
:1022E000E0918F09F09190098BE299E01995109295
:1022F0002A092EDF3CC085E88093BC0038C084E00A
:102300008093960910924C0910924B09E091910923
:10231000F0919209199580914B09811105C081E0D6
:1023200080934B0910924D09E0914C0981E08E0F8A
:1023300080934C09F0E0E35BF64F80818093BB0013
:1023400090914C0980914B09981720F485EC80936B
:10235000BC000DC085E88093BC0009C085EC80936B
:10236000BC001092960903C010922909E6DEFF9185
:10237000EF91BF91AF919F918F917F916F915F91FD
:102380004F913F912F910F900BBE0F900FBE0F906A
:102390001F9018958091C70990E02091C809821B71
:1023A000910908952091C8098091C709281750F410
:1023B000E22FF0E0E753F64F808190E02F5F20930B
:1023C000C80908958FEF9FEF0895E091C8098091A3
:1023D000C709E81730F4F0E0E753F64F808190E04A
:1023E00008958FEF9FEF08950895CF92DF92EF92B7
:1023F000FF920F931F93CF93DF938C017B016A01B0
:102400008091A309882399F04115510599F0EB01BA
:10241000E40EF51E6991D801ED91FC910190F081D7
:10242000E02DC8011995CE15DF05A1F703C0642F73
:10243000C70164DEC601DF91CF911F910F91FF901C
:10244000EF90DF90CF900895CF93DF931F92CDB799
:10245000DEB769832091A3092223E1F02091A4092A
:10246000203240F021E030E0FC013383228380E021
:1024700090E016C08091A509E82FF0E0EA55F64FEC
:10248000998190838F5F8093A5098093A40981E04F
:1024900090E006C061E0CE01019630DE81E090E080
:1024A0000F90DF91CF910895FC011382128248EEC4
:1024B00053E060E070E0448355836683778381E76F
:1024C00092E09183808308951092C8091092C70901
:1024D0001092A5091092A40948CD0895862F413283
:1024E00008F040E269EC79E05EDD1092C809809363
:1024F000C709089521E0F2CF089581E08093A309F0
:102500006093C6091092A5091092A40908950F932B
:10251000062F21E04091A40966EA79E08091C6097E
:1025200090DD1092A5091092A4091092A3090F91B1
:10253000089561E0ECCF089587E999E0B5CF08955B
:102540005058BB27AA270ED072C163D130F068D192
:1025500020F031F49F3F11F41EF433C10EF4E095E6
:10256000E7FB29C1E92F74D180F3BA17620773071B
:102570008407950718F071F49EF58CC10EF4E09570
:102580000B2EBA2FA02D0B01B90190010C01CA012D
:10259000A0011124FF27591B99F0593F50F4503ED8
:1025A00068F11A16F040A22F232F342F4427585FCA
:1025B000F3CF469537952795A795F0405395C9F7E2
:1025C0007EF41F16BA0B620B730B840BBAF091509A
:1025D000A1F0FF0FBB1F661F771F881FC2F70EC039
:1025E000BA0F621F731F841F48F48795779567950C
:1025F000B795F7959E3F08F0B3CF9395880F08F0F5
:102600009927EE0F9795879508950CD010C108D1A2
:1026100040F0FFD030F021F45F3F19F0CCC05111F1
:102620003AC1CFC015D198F39923C9F35523B1F31B
:10263000951B550BBB27AA2762177307840738F031
:102640009F5F5F4F220F331F441FAA1FA9F333D090
:102650000E2E3AF0E0E830D091505040E695001C44
:10266000CAF729D0FE2F27D0660F771F881FBB1F00
:10267000261737074807AB07B0E809F0BB0B802DDA
:10268000BF01FF2793585F4F2AF09E3F510568F026
:1026900092C001C15F3FECF3983EDCF386957795DD
:1026A0006795B795F7959F5FC9F7880F911D969528
:1026B000879597F90895E1E0660F771F881FBB1F84
:1026C000621773078407BA0720F0621B730B840B31
:1026D000BA0BEE1F88F7E095089504D06894B11105
:1026E000DAC00895BDD088F09F5790F0B92F992790
:1026F000B751A0F0D1F0660F771F881F991F1AF00D
:10270000BA95C9F712C0B13081F0C4D0B1E00895D4
:10271000C1C0672F782F8827B85F39F0B93FCCF355
:10272000869577956795B395D9F73EF49095809502
:10273000709561957F4F8F4F9F4F0895E89409C022
:1027400097FB3EF490958095709561957F4F8F4FE4
:102750009F4F9923A9F0F92F96E9BB279395F695FA
:10276000879577956795B795F111F8CFFAF4BB0F78
:1027700011F460FF1BC06F5F7F4F8F4F9F4F16C0DC
:10278000882311F096E911C0772321F09EE8872F66
:10279000762F05C0662371F096E8862F70E060E022
:1027A0002AF09A95660F771F881FDAF7880F96959B
:1027B000879597F9089597F99F6780E870E060E042
:1027C00008959FEF80EC0895DF93CF931F930F93AD
:1027D000FF92EF92DF927B018C01689405C0DA2EA4
:1027E000EF0172D0FE01E894A591259135914591B4
:1027F0005591AEF3EF01B6DEFE019701A801DA9420
:1028000079F7DF90EF90FF900F911F91CF91DF91BB
:10281000089500240A941616170618060906089546
:1028200000240A9412161306140605060895092EAC
:102830000394000C11F4882352F0BB0F40F4BF2B1B
:1028400011F460FF04C06F5F7F4F8F4F9F4F08955B
:1028500057FD9058440F551F59F05F3F71F0479551
:10286000880F97FB991F61F09F3F79F08795089536
:10287000121613061406551FF2CF4695F1DF08C055
:10288000161617061806991FF1CF86957105610572
:1028900008940895E894BB2766277727CB0197F91A
:1028A00008959B01AC0160E070E080E89FE3ADCE4D
:1028B0000BD0BDCFAEDF28F0B3DF18F0952309F0C1
:1028C0007ACF7FCF1124E7CFC3DFA0F3959FD1F359
:1028D000950F50E0551F629FF001729FBB27F00DCE
:1028E000B11D639FAA27F00DB11DAA1F649F662723
:1028F000B00DA11D661F829F2227B00DA11D621F72
:10290000739FB00DA11D621F839FA00D611D221F2B
:10291000749F3327A00D611D231F849F600D211D0F
:10292000822F762F6A2F11249F5750408AF0E1F0B2
:1029300088234AF0EE0FFF1FBB1F661F771F881FFB
:1029400091505040A9F79E3F510570F034CFA3CF6E
:102950005F3FECF3983EDCF3869577956795B795E6
:10296000F795E7959F5FC1F7FE2B880F911D969510
:10297000879597F90895FA01EE0FFF1F309621050C
:10298000310599F16115710561F48038BFE39B074A
:1029900049F168949038810561F08038BFEF9B075A
:1029A00041F0992342F5FF3FE1053105210511F181
:1029B000E8940894E795D901AA2329F4AB2FBE2FF8
:1029C000F85FD0F310C0FF5F70F4A695E0F7F73919
:1029D00050F019F0FF3A38F49F779F930CD00F9086
:1029E00007FC905808953EF0ECCE60E070E080E87F
:1029F0009FE308954FE79F775F934F933F932F9304
:102A000080D02F913F914F915F9152DF05C019F413
:102A10000EF0D1CE3FCFD5CE23DFC8F39638C0F726
:102A200007F80F92E8942BE33AEA48EB5FE74EDFB2
:102A30000F920F920F924DB75EB70F92A2D0E6E7BA
:102A4000F2E0C2DE4F915F91EF91FF91E595EE1FAD
:102A5000FF1F49F0FE57E0684427EE0F441FFA9528
:102A6000E1F74195550B14D00F9007FE1ACF08954A
:102A70009F3F31F0915020F4879577956795B795F2
:102A8000880F911D9695879597F9089594CEF0CF6C
:102A9000E7DEE8F39923D9F3940F511DBBF391506E
:102AA000504094F059F0882332F0660F771F881F4A
:102AB00091505040C1F79E3F510544F7880F911D3A
:102AC0009695879597F908955F3FACF0983E9CF0F6
:102AD000BB27869577956795B79508F4B160939570
:102AE000C1F7BB0F58F711F460FFE8CF6F5F7F4F5E
:102AF0008F4F9F4FE3CFCFCE0EF0BACF62CE689408
:102B00005ACEAEDEC8F39923D1F3C6F3DF93CF9349
:102B10001F930F93FF92C92FDD2788232AF0219757
:102B2000660F771F881FDAF720E030E040E85FEBA0
:102B30009FE3883920F0803E30F021968F7701DDC9
:102B4000EEE9F2E003C0FDDCEBECF2E03DDE8B01F0
:102B5000BE01EC01FB2E6F5771097595771F880B2D
:102B6000990BEEDD28E132E741E35FE3ADDEAF2D07
:102B70009801AE01FF900F911F91CF91DF91F2DC90
:102B800056CEFA01DC01AA0FBB1F9B01AC01BF5757
:102B900028F422273327442750781FC0B75188F4E0
:102BA000AB2F0024469537952795011CA395D2F3AA
:102BB000002069F0220F331F441FB395DAF30DD0C4
:102BC000BFCC61307105A0E88A07B94630F49B019B
:102BD000AC016627772788279078309621F02083EC
:102BE0003183428353830895FC01818D228D90E0CF
:102BF000805C9F4F821B91098F7399270895FC0178
:102C0000918D828D981731F0828DE80FF11D858DA1
:102C100090E008958FEF9FEF0895FC01918D828DD4
:102C2000981761F0828DDF01A80FB11D5D968C9120
:102C3000928D9F5F9F73928F90E008958FEF9FEF2B
:102C40000895FC01848DDF01A80FB11DA35ABF4F69
:102C50002C91848D90E001968F739078848FA68953
:102C6000B7892C93A089B1898C9180648C93938DC2
:102C7000848D981306C00288F389E02D80818F7DB2
:102C800080830895CF93DF93EC01888D81110AC072
:102C90001AC00FB607FC08C0808185FF05C00DC0B3
:102CA000CE01CFDFEA89FB89808185FDF2CFA8893B
:102CB000B9898C9186FFEDCF06C0A889B9898C911E
:102CC00085FFF2CFEDCFDF91CF9108950F931F9342
:102CD000CF93DF93EC01162F81E0888F9B8D8C8D35
:102CE000981321C0E889F989808185FD23C01BC024
:102CF0000FB607FC07C0E889F989808185FF02C00B
:102D0000CE019FDF9C8D091799F38B8DFE01E80F93
:102D1000F11DE35AFF4F10830B8FEA89FB898081F5
:102D2000806280830FC08B8D90E001968F739078C6
:102D3000082FE8CFEE89FF896083E889F9898081CF
:102D40008064808381E090E0DF91CF911F910F91AB
:102D50000895CF92DF92EF92FF921F93CF93DF936C
:102D6000EC016A017B01122FE889F98982E08083F6
:102D7000411581EE580761057105A9F060E079E021
:102D80008DE390E0A70196014BD4BA01A90141500F
:102D900051096109710976956795579547954115D0
:102DA00080E15807A0F0E889F989108260E874E8AA
:102DB0008EE190E0A701960133D4BA01A9014150F8
:102DC0005109610971097695679557954795EC8585
:102DD000FD855083EE85FF854083188EEC89FD8943
:102DE0001083EA89FB89808180618083EA89FB897D
:102DF000808188608083EA89FB8980818068808304
:102E0000EA89FB8980818F7D8083DF91CF911F913B
:102E1000FF90EF90DF90CF9008951F920F920FB622
:102E20000F9211240BB60F922F938F939F93AF9312
:102E3000BF93EF93FF93E091F909F091FA09808134
:102E400082FD17C0E091FF09F091000A2081809176
:102E5000020A8F5F8F739091030A891779F0E2E07D
:102E6000FAE0A081B0E0A751B64F5D962C93808325
:102E700005C0E091FF09F091000A8081FF91EF9178
:102E8000BF91AF919F918F912F910F900BBE0F909B
:102E90000FBE0F901F9018951F920F920FB60F92B2
:102EA00011240BB60F922F933F934F935F936F9321
:102EB0007F938F939F93AF93BF93EF93FF9389EE8D
:102EC00099E0BFDEFF91EF91BF91AF919F918F91FC
:102ED0007F916F915F914F913F912F910F900BBE1A
:102EE0000F900FBE0F901F9018951092EC09109242
:102EF000EB0988EE93E0A0E0B0E08093ED099093B9
:102F0000EE09A093EF09B093F00981E892E0909365
:102F1000EA098093E90985EC90E09093F6098093A3
:102F2000F50984EC90E09093F8098093F70980EC20
:102F300090E09093FA098093F90981EC90E09093E6
:102F4000FC098093FB0982EC90E09093FE0980934A
:102F5000FD0986EC90E09093000A8093FF0910929F
:102F6000020A1092030A1092040A1092050A0895A8
:102F7000CF92DF92EF92FF920F931F93CF93DF9345
:102F80006C0141155105B1F0062F172FEA01E12C14
:102F9000F12CD8016D918D01D601ED91FC9101903C
:102FA000F081E02DC6011995E80EF91E21972097B2
:102FB00081F702C0E12CF12CC701DF91CF911F9165
:102FC0000F91FF90EF90DF90CF900895DC01ED918D
:102FD000FC910190F081E02D19950895DC01ED91AF
:102FE000FC910280F381E02D42E050E06DE872E058
:102FF000199508956F927F928F929F92AF92BF9290
:10300000CF92DF92EF92FF920F931F93CF93DF93B4
:10301000CDB7DEB7A1970FB6F894DEBF0FBECDBF18
:103020006C01742E352F862F972F622E19A221E066
:10303000261520F00F2EFAE06F2EF02D7E01A1E272
:10304000EA0EF11C862C912CA12CB12C672D732F2C
:10305000A5019401E5D2E22F732F022F132F242F05
:10306000352FF72D6E9EF0191124B1E0EB1AF108FF
:10307000FA3010F4F05D01C0F95CD701FC93012B2C
:10308000022B032B29F07E2E372F842F952FDECF96
:10309000E114F10491F0F70101900020E9F7319774
:1030A000AF014E195F09D601ED91FC910280F381C9
:1030B000E02DB701C601199502C080E090E0A1960D
:1030C0000FB6F894DEBF0FBECDBFDF91CF911F9139
:1030D0000F91FF90EF90DF90CF90BF90AF909F90B7
:1030E0008F907F906F900895CF92DF92EF92FF9232
:1030F0000F931F93CF93DF93EC016A017B0121159E
:10310000310541F4E881F9810190F081E02D642FCF
:10311000199519C02A303105A9F4772384F46DE29A
:1031200055DF8C0144275527BA014C195D096E09FA
:103130007F092AE0CE015EDF800F911F04C02AE0E4
:1031400059DF01C057DFDF91CF911F910F91FF90A1
:10315000EF90DF90CF9008950F931F93CF93DF935D
:10316000EC019A01AB01662757FD6095762FBCDF15
:103170008C01CE0133DF800F911FDF91CF911F9122
:103180000F9108951F920F920FB60F9211242F9353
:103190003F938F939F93AF93BF938091870A9091B2
:1031A000880AA091890AB0918A0A3091860A23E0A0
:1031B000230F2D3720F40196A11DB11D05C026E86F
:1031C000230F0296A11DB11D2093860A8093870AC2
:1031D0009093880AA093890AB0938A0A80918B0AF7
:1031E00090918C0AA0918D0AB0918E0A0196A11D32
:1031F000B11D80938B0A90938C0AA0938D0AB09393
:103200008E0ABF91AF919F918F913F912F910F9017
:103210000FBE0F901F9018952FB7F8946091870AF2
:103220007091880A8091890A90918A0A2FBF089527
:103230008230910538F0880F991F880F991F0597E4
:103240000197F1F70895789484B5826084BD84B5C0
:10325000816084BD85B5826085BD85B5816085BD91
:10326000EEE6F0E0808181608083E1E8F0E01082AA
:10327000808182608083808181608083E0E8F0E0EB
:10328000808181608083E1EBF0E0808184608083D5
:10329000E0EBF0E0808181608083E1E9F0E0808113
:1032A00082608083808181608083E0E9F0E08081BA
:1032B00081608083E1EAF0E08081826080838081A8
:1032C00081608083E0EAF0E0808181608083E1E2D8
:1032D000F1E0808182608083808181608083E0E290
:1032E000F1E0808181608083EAE7F0E080818460A2
:1032F00080838081826080838081816080838081FF
:10330000806880831092C100089580930802089518
:10331000863308F08653EBE7F0E09081282F287081
:10332000977F922B908387702091080290E4299FC9
:1033300090011124282B20937C00EAE7F0E08081A3
:1033400080648083808186FDFDCF8091780020910C
:10335000790090E0922B089590E0FC013197E231E2
:10336000F10508F05EC0E458FE4F98C1E0E8F0E0D7
:1033700080818F7780830895E0E8F0E080818F7D01
:1033800080830895E0E8F0E08081877F808308955E
:1033900084B58F7784BD089584B58F7D84BD0895ED
:1033A000E0EBF0E080818F7780830895E0EBF0E040
:1033B00080818F7D80830895E0E9F0E080818F77C0
:1033C00080830895E0E9F0E080818F7D8083089517
:1033D000E0E9F0E08081877F80830895E0EAF0E013
:1033E00080818F7780830895E0EAF0E080818F7D8F
:1033F00080830895E0EAF0E08081877F80830895EC
:10340000E0E2F1E080818F7780830895E0E2F1E0EF
:1034100080818F7D80830895E0E2F1E08081877F65
:1034200080830895CF93DF9390E0FC01EE59FC4F29
:103430002491FC01E855FC4F8491882371F190E0C0
:10344000880F991FFC01EE5DFB4FA591B491885F39
:103450009B4FFC01C591D49161110BC08FB7F894BB
:103460009C91209592239C93E8812E2328838FBFE3
:1034700014C0623061F48FB7F8943C91922F90950C
:1034800093239C93E8812E2B28838FBF06C08FB790
:10349000F894EC912E2B2C938FBFDF91CF91089550
:1034A0001F93CF93DF93C62F282F30E0F901E45EFE
:1034B000FC4F8491F901EE59FC4F1491F901E85544
:1034C000FC4FD491DD23C1F0811146DF2D2F30E078
:1034D000F901EE0FFF1FE85FFB4FA591B4918FB785
:1034E000F894C11105C0EC9110951E231C9303C0E4
:1034F000EC911E2B1C938FBFDF91CF911F910895EC
:103500000F931F93762F90E0FC01EE59FC4F6491CE
:10351000FC01E855FC4FE4917111762FF0E0EE0FBD
:10352000FF1FE251FC4F8591949189019A013F70F0
:10353000472F0E945302611571058105910549F0DD
:10354000DC01CB010196A11DB11DBC01CD019F7015
:1035500003C060E070E0CB011F910F9108954F927E
:103560005F926F927F92AF92BF92CF92DF92EF9273
:10357000FF920F931F93CF93DF93CDB7DEB729014F
:103580003A019B01AC0124193509460957098A897A
:103590009B89AC89BD89BC01CD016A197B098C0965
:1035A0009D091CD0A801970124193509460957091E
:1035B00059D0CA01B9016A0D7B1D8C1D9D1DDF917B
:1035C000CF911F910F91FF90EF90DF90CF90BF9020
:1035D000AF907F906F905F904F900895DB018F9335
:1035E0009F9362D0BF91AF91A29F800D911DA39F29
:1035F000900DB29F900D1124089597FB072E16F49D
:10360000009406D077FD08D05DD007FC05D03EF4CD
:10361000909581959F4F0895709561957F4F08957E
:10362000A1E21A2EAA1BBB1BFD010DC0AA1FBB1FC6
:10363000EE1FFF1FA217B307E407F50720F0A21B38
:10364000B30BE40BF50B661F771F881F991F1A94A5
:1036500069F760957095809590959B01AC01BD01CF
:10366000CF010895052E97FB16F400940FD057FD57
:1036700005D0D6DF07FC02D046F408C0509540952F
:10368000309521953F4F4F4F5F4F0895909580950E
:10369000709561957F4F8F4F9F4F0895EE0FFF1FDD
:1036A0000590F491E02D199421D0A59F900DB49F21
:1036B000900DA49F800D911D112408950790F691FF
:1036C000E02D1994AA1BBB1B51E107C0AA1FBB1F09
:1036D000A617B70710F0A61BB70B881F991F5A959E
:1036E000A9F780959095BC01CD010895A29FB001E6
:1036F000B39FC001A39F700D811D1124911DB29F26
:0E370000700D811D1124911D0895F894FFCFC6
:10370E00360004000300FFFF01018001800180FFED
:10371E007FFF7FFF7F20075B014F045C07A401B38F
:10372E00047072696E74410052656164204779724B
:10373E006F6D6574657200526561642041636365E7
:10374E006C65726F6D6574657200526561642049B7
:10375E006E667261726564005265616420556C74A8
:10376E007261736F6E69630049444C45000000003E
:10377E00002412F511CA11D211E511F41100000046
:10378E00006616B817F4150D16FF1542160D0A0031
:0E379E006E616E00696E66006F7666002E002A
:00000001FF
