:1000000038C2000067C2000065C2000063C2000081
:1000100061C200005FC200005DC200005BC2000060
:1000200059C2000057C2000055C2000053C2000070
:1000300051C200000C94BE0D4DC200004BC2000026
:1000400049C2000047C2000045C2000043C2000090
:1000500041C200003FC200003DC200000C944E1F90
:1000600039C200000C94081D0C94471D33C20000D7
:1000700031C200002FC200002DC200002BC20000C0
:1000800029C2000027C2000025C2000023C20000D0
:100090000C94B31D0C94F21D1DC200000C94D315DA
:1000A00019C2000017C2000015C2000013C20000F0
:1000B00011C200000FC200000DC200000BC2000000
:1000C00009C2000007C2000005C2000003C2000010
:1000D00001C20000FFC10000FDC10000FBC1000023
:1000E000F9C10000D916DC16DC16DC16DC16DC16AD
:1000F000DC16DC16F315DC16DC16DC16DC16DC165A
:10010000DC16DC16F315DC16DC16DC16DC16DC1649
:10011000DC16DC16FB15DC16DC16DC16DC16DC1631
:10012000DC16DC162016DC16DC16DC16DC16DC16FB
:10013000DC16DC16FB15DC16DC16DC16DC16DC1611
:10014000DC16DC162516DC16DC16DC16DC16DC16D6
:10015000DC16DC162A16DC16DC16DC16DC16DC16C1
:10016000DC16DC163B16DC16DC16DC16DC16DC16A0
:10017000DC16DC166416DC16DC16DC16DC16DC1667
:10018000DC16DC162F16DC16DC16DC16DC16DC168C
:10019000DC16DC164916DC16DC16DC16DC16DC1662
:1001A000DC16DC166616DC16DC16DC16DC16DC1635
:1001B000DC16DC166616DC16DC16DC16DC16DC1625
:1001C000DC16DC166616DC16DC16DC16DC16DC1615
:1001D000DC16DC166616DC16DC16DC16DC16DC1605
:1001E000DC16DC166F16DC16DC16DC16DC16DC16EC
:1001F000DC16DC16A016DC16DC16DC16DC16DC16AB
:10020000DC16DC166F16DC16DC16DC16DC16DC16CB
:10021000DC16DC16A016DC16DC16DC16DC16DC168A
:10022000DC16DC168716DC16DC16DC16DC16DC1693
:10023000DC16DC16A416DC16DC16DC16DC16DC1666
:10024000DC16DC16A416DC16DC16DC16DC16DC1656
:10025000DC16DC16B916DC16DC16DC16DC16DC1631
:10026000DC16DC16D316DC16DC16DC16DC16DC1607
:10027000DC16DC16D316084AD73B3BCE016E84BC95
:10028000BFFDC12F3D6C74319ABD56833DDA3D00F0
:10029000C77F11BED9E4BB4C3E916BAAAABE000039
:1002A00000803F07634236B79BD8A71A39685618B3
:1002B000AEBAAB558C1D3CB7CC5763BD6DEDFD752B
:1002C0003EF6177231BF000000803F08000000BEFC
:1002D000922449123EABAAAA2ABECDCCCC4C3E00F9
:1002E000000080BEABAAAAAA3E00000000BF00002A
:1002F00000803F0000000000084178D3BB4387D155
:10030000133D190E3CC3BD4282AD2B3E68EC827694
:10031000BED98FE1A93E4C80EFFFBE01C4FF7F3FF5
:10032000000000000000302034201E2024202A205D
:10033000792038203E2044204A20502056205C203E
:100340006220792068206E20742000000A0B0209C8
:100350000C0D0E080703040100000000000000005F
:10036000000000000000000000000000000000008D
:10037000000000000000121110000000000000004A
:10038000000000000000000000000000000000006D
:100390000102102020080810204010204080020197
:1003A000020108040201010204081020408080407C
:1003B000201008040201800402018040201008047B
:1003C0000201080402010102040810204080010219
:1003D00004081020408005050505070508080808E1
:1003E000020202020A0A08080404040401010101CD
:1003F00001010101030303030303030304070707C8
:100400000C0C0C0C0C0C0C0C02020202060606066C
:10041000060606060B0B0B0B0B0B0B0B000020004C
:100420002300260029002C002F00320000010000CC
:1004300003010601090100002200250028002B000D
:100440002E003100340002010000050108010B01FB
:1004500000002100240027002A002D003000330076
:1004600001010000040107010A01B510C117701D48
:100470001B1E11241FBECFEFD1E2DEBFCDBF00E0B7
:100480000CBF12E0A0E0B2E0E8E2F3E400E00BBF52
:1004900002C007900D92A63AB107D9F72BE0A6EA61
:1004A000B2E001C01D92A534B207E1F714E0C2E743
:1004B000D4E000E006C022970109FE010BBF0E94B4
:1004C0006B21CA36D10780E00807A9F70E943C10CB
:1004D0000C94922195CDCF92DF92EF92FF920F93E1
:1004E0001F93E82FF92F05C0015011092109310987
:1004F00061F1908196239417B9F305C00150110959
:100500002109310911F1908196239413F7CFC12C61
:10051000D12CE12CF12C0AC08FEFC81AD80AE80AB6
:10052000F80A0C151D052E053F0579F080818623FC
:10053000841791F36C2D7D2D8E2D9F2D1F910F9182
:10054000FF90EF90DF90CF90089560E070E080E042
:1005500090E01F910F91FF90EF90DF90CF90089562
:10056000CF93DF93EC010E94E2128091A60290915A
:10057000A702892B31F48BEA92E09093A702809333
:10058000A6024091A8025091A9029E01240F351F96
:100590002B3D85E0380770F44217530770F4C09183
:1005A000A602D091A702C40FD51F3093A9022093B1
:1005B000A80205C0C0E0D0E002C0C0E0D0E00E94C8
:1005C000A613CE01DF91CF9108950895FC0183E039
:1005D000878312861186138608950F931F93CF93F6
:1005E000DF93EC01062F142F688580EB99E00E94C1
:1005F000A217602F80EB99E00E944917612F80EBD2
:1006000099E00E94491780EB99E00E94BE178E8303
:10061000DF91CF911F910F910895CF93DF93EC015C
:100620008F81823021F440E069E3CE01D6DF40E0E3
:1006300063E2CE01D2DF4FE660E2CE01CEDFDF9192
:10064000CF9108959F92AF92BF92CF92DF92EF9297
:10065000FF920F931F93CF93DF93EC01688580EB9C
:1006600099E00E94A217E091B009F091B1090190C0
:10067000F081E02D68EA80EB99E0199580EB99E034
:100680000E94BE1746E0688580EB99E00E949F17A4
:100690000E94981F8B0110C089859A85892B61F073
:1006A0000E94981F601B710B89859A858617970792
:1006B00018F481E08B8732C080EB99E00E94EF163E
:1006C000069754F380EB99E00E94F716A82E80EB72
:1006D00099E00E94F716982E80EB99E00E94F71699
:1006E000082F80EB99E00E94F716B82E80EB99E076
:1006F0000E94F716182F80EB99E00E94F716D92C6C
:10070000C12CCA28D982C882FB2CE12CE02AFB82AA
:10071000EA82982F8827812B9D838C83DF91CF914C
:100720001F910F91FF90EF90DF90CF90BF90AF900F
:100730009F900895CF93DF93C62FD42F80EB99E03D
:100740000E94A2176D2F80EB99E00E94491780EB61
:1007500099E00E94BE17811111C041E06C2F80EB1F
:1007600099E00E949F1780EB99E00E94EF16892B79
:1007700041F080EB99E00E94F71605C08FEF9FEFE4
:1007800002C08FEF9FEFDF91CF9108950F931F93DA
:10079000CF93DF93EC01162F042F633009F456C07A
:1007A0004230C9F556C0133009F058C0873D910555
:1007B00009F458C001E011E02CC0013091F04FE085
:1007C0006AE6CE01B7DF8F3F2FEF920751F013306B
:1007D00009F046C0873D910509F047C000E012E0EE
:1007E00018C0133011F0111114C0002349F04FE06C
:1007F00069E6CE019FDF833D9105D1F1013039F0EB
:100800004FE068E6CE0196DF833D910599F1133004
:10081000B9F00230B9F01F83112351F01330A0F466
:10082000013011F48BE601C08AE6888781E041C07F
:10083000013011F489E601C088E6888781E039C07B
:1008400080E037C080E035C081E033C0442341F10F
:100850001EC08FEF860F833030F60FC001E0C3CF8C
:1008600000E0C1CF01E012E0D4CF00E011E0D1CF31
:1008700001E001C000E01F82DBCF4FE06BE6CE015C
:1008800059DF8F3F2FEF920709F08DCF98CF4FE0C0
:100890006BE650DF8F3F2FEF920709F087CF8DCFA8
:1008A0004FE06AE647DF8F3F2FEF920709F092CFC4
:1008B00098CFDF91CF911F910F910895FC0103967E
:1008C000928381832FEF3FEF348323839683858345
:1008D0009087878310820895FC0111861086089501
:1008E000CF93DF939C01FB01DC011196CD91DC914C
:1008F0001297D383C2838C819D81958384838C815D
:100900009D81DC0113967C936E9312977D836C839B
:1009100031872087F90180818F5F8083DF91CF91BC
:100920000895CF93DF93EB01488159814F3F2FEF1B
:10093000520721F4FC01A781B0850DC0DC0113969C
:100940001296ED91FC911397208131814217530744
:1009500010F0DF01F5CF1296ED91FC911397FB8318
:10096000EA83D583C483BD83AC831396DC93CE9393
:10097000129799878887FC0120812F5F2083DF9160
:10098000CF910895CF93DF93FC01A085B185C281FB
:10099000D381848195819D838C83C481D58182811B
:1009A00093819B838A831196CD91DC911297CE1708
:1009B000DF0731F48C819D8112969C938E93119761
:1009C000118610868C9181508C93DF91CF91089580
:1009D00022E0FC0120832DE5218308950E949018D8
:1009E0002EE434ED42E45EE30E946A1A9B01AC01FE
:1009F00060E070E080E89FE30E94C5172DEC3AE2CA
:100A00004DE257E40C94071A08951F93CF93DF9398
:100A1000EB01142FDD233CF4FC01E61BF70BC28134
:100A2000DD27C7FDD095FC01618180EB99E00E9434
:100A3000A217E091B009F091B1090190F081E02D89
:100A40006C2F80EB99E01995612F80EB99E00E9463
:100A5000491780EB99E00E94BE17DF91CF911F915B
:100A60000895FC012081213029F440EB60E270E020
:100A7000CCCF0895211104C040EE60E270E0C5CFF4
:100A800008950F931F93CF93DF938C01FC01618135
:100A900080EB99E00E94A217E091B009F091B109B2
:100AA0000190F081E02D68EA80EB99E0199580EBE8
:100AB00099E00E94BE1743E0F801618180EB99E064
:100AC0000E949F1780EB99E00E94EF160397D4F3E2
:100AD00080EB99E00E94F716082F80EB99E00E94C6
:100AE000F716182F80EB99E00E94F716482F55272C
:100AF00047FD5095652F752FBA0155274427402B88
:100B0000D12FF0E0CF2FCE01A0E0B0E08A019B0111
:100B1000082B192B2A2B3B2BC901B801DF91CF9150
:100B20001F910F910895ADDF0E942B1920E030E056
:100B300040E859E30C94071A0895CF93C62F80EB31
:100B400099E00E94A217E091B009F091B1090190DB
:100B5000F081E02D6FE080EB99E0199580EB99E052
:100B60000E94BE1741E06C2F80EB99E00E949F1716
:100B700080EB99E00E94EF16892B29F080EB99E039
:100B80000E94F71602C08FEF9FEFCF9108951F9339
:100B9000CF93DF93EC01162F6981CFDF2FEF210F69
:100BA000223030F48D3B910519F481E088830BC02D
:100BB0001D7F31F48B3B910529F4188281E003C03D
:100BC00080E001C080E0DF91CF911F9108950F93E5
:100BD0001F93CF93DF93EC01062F142F8FEF840F19
:100BE000823030F48DE58983CE01D1DF811108C0D8
:100BF0001D7F41F48CE58983602FCE01C8DF03C0DF
:100C000081E001C080E0DF91CF911F910F910895A5
:100C1000CF93DF93EC01DBDF8823B9F09881992330
:100C200059F0913091F494E29B8395E29C8390E398
:100C30009D8391E39E8309C093E29B8394E29C830E
:100C400095E29D8396E29E8300C0DF91CF91089547
:100C5000CF93DF93EC0186E0E3E1F2E0DE01529610
:100C600001900D928A95E1F786E0E9E1F2E0DE017C
:100C70001C9601900D928A95E1F784E0898F1CA261
:100C80001BA21DA2DF91CF9108954F925F926F92A8
:100C90007F928F929F92AF92BF92CF92DF92EF920C
:100CA000FF920F931F93CF93DF9300D01F92CDB786
:100CB000DEB78C01DC014D905D906D907C901397B8
:100CC00014968D909D90AD90BC90179718968D912D
:100CD0009D910D90BC91A02D89839A83AB83BC8399
:100CE000A3019201C301B2010E94071A6B017C01AA
:100CF000A5019401C501B4010E94071A9B01AC0132
:100D0000C701B6010E94C6176B017C0129813A8197
:100D10004B815C81CA01B9010E94071A9B01AC0199
:100D2000C701B6010E94C6170E94BA1A6B017C0166
:100D30009B01AC01C301B2010E949018F8016083CD
:100D4000718382839383A7019601C501B4010E9438
:100D50009018D80114966D937D938D939C9317975B
:100D6000A701960169817A818B819C810E949018EC
:100D7000F80160877187828793870F900F900F909B
:100D80000F90DF91CF911F910F91FF90EF90DF9027
:100D9000CF90BF90AF909F908F907F906F905F901B
:100DA0004F9008954F925F926F927F928F929F9291
:100DB000AF92BF92CF92DF92EF92FF920F931F9369
:100DC000CF93DF93CDB7DEB7AA970FB6F894DEBF07
:100DD0000FBECDBF8C01298F3A8F4B8F5C8F6D8FEB
:100DE0007E8FDC011696CD90DC901797EE24D7FC11
:100DF000E094FE2C52964D915C915397662757FDD7
:100E00006095762F1C968D919C911D97AA2797FD32
:100E1000A095BA2F480F591F6A1F7B1FDB01CA011B
:100E200077231CF40196A11DB11DB595A795979543
:100E30008795A7019601281B390B4A0B5B0B2F8F57
:100E400038A349A35AA3D8011896CD90DC901997DE
:100E5000EE24D7FCE094FE2C54964D915C9155976E
:100E6000662757FD6095762F1E968D919C911F9752
:100E7000AA2797FDA095BA2F480F591F6A1F7B1FFD
:100E8000DB01CA0177231CF40196A11DB11DB595A4
:100E9000A79597958795A7019601281B390B4A0BB3
:100EA0005B0B2BA33CA34DA35EA3D8011A964D90D8
:100EB0005C901B97662457FC6094762C56964D9157
:100EC0005C915797662757FD6095762F50968D91C8
:100ED0009C915197AA2797FDA095BA2F480F591FAB
:100EE0006A1F7B1FDB01CA0177231CF40196A11D39
:100EF000B11DB595A79597958795481A590A6A0A1D
:100F00007B0AF80184809580AA2497FCA094BA2CCF
:100F1000828193819C01442737FD4095542F2FA354
:100F200038A749A75AA72BA13CA14DA15EA1C50195
:100F3000B4010E9417216B017C01A30192016FA1F2
:100F400078A589A59AA50E941721A7019601261BBD
:100F5000370B480B590BCA01B9010E942B196D8739
:100F60007E878F87988BD801CD90DC90EE24D7FCBC
:100F7000E094FE2CA3019201C701B6010E94172143
:100F80002B013C012F8D38A149A15AA1C501B40103
:100F90000E941721A3019201261B370B480B590B06
:100FA000CA01B9010E942B19698B7A8B8B8B9C8BA0
:100FB0002F8D38A149A15AA16FA178A589A59AA51D
:100FC0000E9417214B015C012BA13CA14DA15EA108
:100FD000C701B6010E941721A5019401261B370BFA
:100FE000480B590BCA01B9010E942B196D8B7E8BDE
:100FF0008F8B988FCE010D9648DED80112966D9199
:101000007C911397882777FD8095982F0E942B1944
:101010006B017C012D893E894F89588D2F8F38A314
:1010200049A35AA3D80114966D917C9115978827EE
:1010300077FD8095982F0E942B192B013C0129895F
:101040003A894B895C892BA33CA34DA35EA32F8DCA
:1010500038A149A15AA1C701B6010E94071A4B0144
:101060005C012BA13CA14DA15EA1C301B2010E9474
:10107000071A9B01AC01C501B4010E94C517698321
:101080007A838B839C838D859E85AF85B8898FA35A
:1010900098A7A9A7BAA7D8016D917C91882777FD59
:1010A0008095982F0E942B194B015C012FA138A528
:1010B00049A55AA5C301B2010E94071A2B013C01A0
:1010C000A50194016F8D78A189A19AA10E94071AA8
:1010D0009B01AC01C301B2010E94C5176D837E83E1
:1010E0008F839887A50194016BA17CA18DA19EA1FE
:1010F0000E94071A4B015C012FA138A549A55AA5EA
:10110000C701B6010E94071A9B01AC01C501B401D9
:101110000E94C51769877A878B879C87CE010196C5
:10112000B4DD698D7A8D882777FD8095982F0E9490
:101130002B192B013C016B8D7C8D882777FD8095C9
:10114000982F0E942B194B015C016D8D7E8D882795
:1011500077FD8095982F0E942B196B017C012981C6
:101160003A814B815C81C301B2010E94071A6F8FE3
:1011700078A389A39AA32D813E814F815885C5010B
:10118000B4010E94071A9B01AC016F8D78A189A15F
:101190009AA10E94C6176F8F78A389A39AA3298565
:1011A0003A854B855C85C701B6010E94071A9B01F1
:1011B000AC016F8D78A189A19AA10E94C6176F8F8B
:1011C00078A389A39AA32D853E854F855889C301AD
:1011D000B2010E94071A2B013C0129893A894B89E7
:1011E0005C89C501B4010E94071A9B01AC01C301CF
:1011F000B2010E94C6174B015C012D893E894F89BF
:10120000588DC701B6010E94071A9B01AC01C501A8
:10121000B4010E94C6172F8D38A149A15AA10E947E
:10122000391820E030E044E353E40E94071A2BED24
:101230003FE049E450E40E9490186B017C0120E0FB
:1012400030E0A9010E948C18882354F420E030E09B
:1012500044EB53E4C701B6010E94C6176B017C0141
:10126000C701B601AA960FB6F894DEBF0FBECDBF78
:10127000DF91CF911F910F91FF90EF90DF90CF9072
:10128000BF90AF909F908F907F906F905F904F90A6
:101290000895CF93DF93CDB7DEB72C970FB6F894B0
:1012A000DEBF0FBECDBFFC01218D233079F431E0CC
:1012B000232F3F8318861A8619861C861B8630E0EA
:1012C00040E05A8560E07C856DDD0EC01A8219828F
:1012D0002FEF422F2B832C831E821D8220E03A8128
:1012E0005FEF60E07E815EDD2C960FB6F894DEBF86
:1012F0000FBECDBFDF91CF9108950F931F93CF9372
:10130000DF93EC01062F142F6A8D80EB99E00E9489
:10131000A217602F80EB99E00E944917612F80EBA4
:1013200099E00E94491780EB99E00E94BE17888FD0
:10133000DF91CF911F910F9108950F931F93CF933A
:10134000DF93EC01062F142F6B8D80EB99E00E9448
:10135000A217602F80EB99E00E944917612F80EB64
:1013600099E00E94491780EB99E00E94BE17888F90
:10137000DF91CF911F910F910895FC01218D2330B2
:1013800011F0603210F4D9CF0895B7CF0895CF93FC
:10139000DF93EC01898D8330A9F440E061E2CE0156
:1013A000ECDF47E560E2CE01E8DF44E664E2CE012F
:1013B000E4DF40E265E2CE01E0DF40E066E2CE013C
:1013C000DCDF1FC0823049F448E063E2CE0195DFE4
:1013D00047E460E2CE0191DF08C040E063E2CE0165
:1013E0008CDF47E260E2CE0188DF4CE060E0CE01B6
:1013F000A4DF40E261E0CE01A0DF40E062E0CE0188
:101400009CDFDF91CF9108959F92AF92BF92CF92D0
:10141000DF92EF92FF920F931F93CF93DF93EC0134
:101420006A8D80EB99E00E94A217E091B009F091DB
:10143000B1090190F081E02D68EA80EB99E01995FF
:1014400080EB99E00E94BE17888F46E06A8D80EBA2
:1014500099E00E949F170E94981F8B0110C08BA1DA
:101460009CA1892B61F00E94981F601B710B8BA1BE
:101470009CA18617970718F481E08DA332C080EBFA
:1014800099E00E94EF16069754F380EB99E00E94D2
:10149000F716A82E80EB99E00E94F716982E80EBA5
:1014A00099E00E94F716082F80EB99E00E94F7164A
:1014B000B82E80EB99E00E94F716182F80EB99E088
:1014C0000E94F716D92CC12CCA28D982C882FB2CBD
:1014D000E12CE02AFB82EA82982F8827812B9D83CA
:1014E0008C83DF91CF911F910F91FF90EF90DF9050
:1014F000CF90BF90AF909F900895CF92DF92EF92E0
:10150000FF920F931F93CF93DF93EC016B8D80EBD2
:1015100099E00E94A217898D833031F46E8D772770
:1015200067FD7095606804C06D8D772767FD7095C5
:10153000E091B009F091B1090190F081E02D80EBCC
:1015400099E0199580EB99E00E94BE17888F46E0DC
:101550006B8D80EB99E00E949F170E94981F8B0172
:1015600010C08BA19CA1892B61F00E94981F601B69
:10157000710B8BA19CA18617970718F481E08DA3AE
:101580006EC080EB99E00E94EF16069754F3898DA8
:101590008330F9F480EB99E00E94F716C82E80EBB7
:1015A00099E00E94F716D82E80EB99E00E94F7167A
:1015B000E82E80EB99E00E94F716F82E80EB99E078
:1015C0000E94F716082F80EB99E00E94F716182F5B
:1015D00036C080EB99E00E94F716D82E80EB99E098
:1015E0000E94F716C82E898D811115C080EB99E0F5
:1015F0000E94F716F82E80EB99E00E94F716E82E6D
:1016000080EB99E00E94F716182F80EB99E00E947A
:10161000F716082F14C080EB99E00E94F716182FD8
:1016200080EB99E00E94F716082F80EB99E00E946A
:10163000F716F82E80EB99E00E94F716E82E6C2D35
:1016400070E07D297F836E834E2D50E05F2959879E
:101650004887202F30E0C901912B9B878A87DF9133
:10166000CF911F910F91FF90EF90DF90CF90089551
:10167000CF93DF93EC01C8DECE013FDFDF91CF9146
:101680000895CF93DF93C62FD42F80EB99E00E946B
:10169000A2176D2F80EB99E00E94491780EB99E02B
:1016A0000E94BE17811111C041E06C2F80EB99E0C0
:1016B0000E949F1780EB99E00E94EF16892B41F062
:1016C00080EB99E00E94F71605C08FEF9FEF02C0F4
:1016D0008FEF9FEFDF91CF9108950F931F93CF93DB
:1016E000DF93EC01162F042F643009F4ADC04230B3
:1016F00009F047C0ADC04FE06DE1CE01C2DF8934D3
:10170000910509F4ABC0013041F04FE06EE1CE012C
:10171000B8DF8934910509F4A3C0143011F01330F7
:1017200068F50023A9F040E269E1CE01AADF019645
:1017300069F0143009F099C04FE06EE1CE01A1DFED
:10174000CC9709F094C001E012E01BC0013099F081
:1017500040E268E1CE0195DF019669F0143009F0AE
:1017600089C04FE06EE1CE018CDF11E0CC9709F02B
:1017700010E000E006C0143009F460C0023009F443
:101780005FC0198F113071F108F442C01230C1F0FE
:10179000133009F057C0013011F48DE101C08EE122
:1017A0008B8F8A8F88E08E8F89E08D8F8AE088A367
:1017B0008BE08F8F8CE08AA38DE089A381E064C0E9
:1017C00089E18A8F8EE18B8F83E08D8F84E08E8F0D
:1017D00087E08F8F88E088A385E089A386E08AA3CD
:1017E00081E052C0013011F489E101C088E18A8FA3
:1017F0008EE18B8F83E08D8F84E08E8F87E08F8FDB
:1018000088E088A385E089A386E08AA381E03CC0C4
:10181000013011F489E101C088E18A8F8EE18B8F5C
:1018200083E08D8F84E08E8F85E08F8F86E088A3A4
:1018300087E089A388E08AA381E026C080E024C0F5
:1018400080E022C081E020C0442309F45ECF53CF62
:101850008DEF860F823008F062CF0EC001E003C02A
:1018600000E001C001E013E089CF01E08ACF01E090
:1018700010E087CF00E085CF4FE06DE1CE0101DFC2
:101880008934910579F341CFDF91CF911F910F9169
:10189000089531E1FC013083319722E220833197B2
:1018A000A3E3A083319760833197708331971082CF
:1018B00031971082319760E86083319710823197B9
:1018C000108231971082319762E06083319763E034
:1018D0006083319764E06083319765E0608331977E
:1018E00066E06083319767E06083319768E06083EA
:1018F000319769E06083319760E16083319730838D
:10190000319732E13083319733E13083319734E1DD
:101910003083319735E13083319736E13083319729
:1019200037E13083319738E13083319739E13083C3
:10193000319730E23083319731E230833197208321
:10194000319723E220833197408331975083319739
:1019500026E22083319727E22083319728E22083F3
:10196000319729E22083319720E32083319721E3C7
:1019700020838997089582E08093B0001092B2008E
:101980008AEF8093B300E0E7F0E08081826080839B
:1019900084E08093B100A0914009B0914109CD91BC
:1019A000CDBFDD91DEBFFF91EF91DF91CF91BF9170
:1019B000AF919F918F917F916F915F914F913F91E7
:1019C0002F911F910F91FF90EF90DF90CF90BF90DC
:1019D000AF909F908F907F906F905F904F903F90CF
:1019E0002F901F900F900CBE0F900BBE0F900FBE4C
:1019F0000F90089581E008950F920FB6F8940F921A
:101A00000CB60F920BB60F921F9211242F923F9299
:101A10004F925F926F927F928F929F92AF92BF92FE
:101A2000CF92DF92EF92FF920F931F932F933F93EA
:101A30004F935F936F937F938F939F93AF93BF93D6
:101A4000CF93DF93EF93FF93A0914009B0914109A9
:101A50000DB60D920EB60D924FD7A0914009B091E0
:101A60004109CD91CDBFDD91DEBFFF91EF91DF91B7
:101A7000CF91BF91AF919F918F917F916F915F9126
:101A80004F913F912F911F910F91FF90EF90DF9019
:101A9000CF90BF90AF909F908F907F906F905F900E
:101AA0004F903F902F901F900F900CBE0F900BBE49
:101AB0000F900FBE0F9008950F920FB6F8940F92EB
:101AC0000CB60F920BB60F921F9211242F923F92D9
:101AD0004F925F926F927F928F929F92AF92BF923E
:101AE000CF92DF92EF92FF920F931F932F933F932A
:101AF0004F935F936F937F938F939F93AF93BF9316
:101B0000CF93DF93EF93FF93A0914009B0914109E8
:101B10000DB60D920EB60D925BD58111EDD6A0914A
:101B20004009B0914109CD91CDBFDD91DEBFFF915C
:101B3000EF91DF91CF91BF91AF919F918F917F9165
:101B40006F915F914F913F912F911F910F91FF9056
:101B5000EF90DF90CF90BF90AF909F908F907F904D
:101B60006F905F904F903F902F901F900F900CBE02
:101B70000F900BBE0F900FBE0F9008959DDF18952C
:101B80000F2EFCE0EF2EF2E0FF2EF02D0F2EFEE0E8
:101B9000CF2EF2E0DF2EF02D0F2EF8E88F2EF8E09A
:101BA0009F2EF02D08E012E00F2EFAE0AF2EF2E0AB
:101BB000BF2EF02D0F2EFAE86F2EF8E07F2EF02DBD
:101BC000C4E0D2E00F2EF6E04F2EF2E05F2EF02DB3
:101BD0000F2EFCE82F2EF8E03F2EF02DF3D460E01E
:101BE000F70180810E94B82085E090E00E94A41F48
:101BF00061E0F70180810E94B8208AE090E00E94B5
:101C0000A41F60E0F70180810E94B82060E0F60127
:101C100080810E947A2020E432E44FE050E061E0CD
:101C2000F60180810E94E8209B01772314F42F5F46
:101C30003F4FB90175956795882777FD8095982F57
:101C40000E942B192DEC3CEC48EE51E40E949018B8
:101C50000E94F818F4017183608360E0F8018081CC
:101C60000E94B82085E090E00E94A41F61E0F80186
:101C700080810E94B8208AE090E00E94A41F60E06A
:101C8000F80180810E94B82020E432E44FE050E067
:101C900061E0F50180810E94E8209B01772314F424
:101CA0002F5F3F4FB90175956795882777FD809520
:101CB000982F0E942B192DEC3CEC48EE51E40E9429
:101CC00090180E94F818F3017183608360E08881A6
:101CD0000E94B82085E090E00E94A41F61E0888106
:101CE0000E94B8208AE090E00E94A41F60E08881F2
:101CF0000E94B82020E432E44FE050E061E0F201BD
:101D000080810E94E8209B01772314F42F5F3F4FCE
:101D1000B90175956795882777FD8095982F0E9462
:101D20002B192DEC3CEC48EE51E40E9490180E94D7
:101D3000F818F1017183608309D584EF91E087D5AC
:101D40004DCF0F2EF3ECAF2EF8E0BF2EF02D05ECAB
:101D500018E0CEE8D8E00F2EF0E98F2EF8E09F2EA5
:101D6000F02D0F2EF2E92F2EF8E03F2EF02D2AD481
:101D700081EC98E07DDCEAD4F501608171818827EF
:101D800077FD8095982F0E942B1920E030E04AE7DC
:101D900054E40E94901820E030E044E752E40E94AE
:101DA000071A2DEC3CEC4CE151E40E94071A20E0AC
:101DB00030E040E251E40E9490180E94F8182B0194
:101DC0003C01F80160817181882777FD8095982F0B
:101DD0000E942B1920E030E04AE754E40E9490185A
:101DE00020E030E044E752E40E94071A2DEC3CEC7E
:101DF0004CE151E40E94071A20E030E040E251E457
:101E00000E9490180E94F8186B017C018091C10813
:101E10009091C208BC01882777FD8095982F0E9479
:101E20002B1920E030E04AE754E40E94901820E0AB
:101E300030E044E752E40E94071A2DEC3CEC4CE100
:101E400051E40E94071A20E030E040E251E40E9491
:101E500090180E94F81879836883F40151824082B7
:101E6000F101D182C08284EF91E0F1D480CF0F2EB6
:101E7000F7EBAF2EF8E0BF2EF02D09EB18E0C4E928
:101E8000D8E00F2EF6E98F2EF8E09F2EF02D0F2EC2
:101E9000F8E92F2EF8E03F2EF02D94D385EB98E053
:101EA0000E94220353D4F50160817181882777FD58
:101EB0008095982F0E942B1920E030E04CE051E4EF
:101EC0000E94071A20E030E04AE754E40E9490188C
:101ED0000E94F8182B013C01F8016081718188276C
:101EE00077FD8095982F0E942B1920E030E04CE080
:101EF00051E40E94071A20E030E04AE754E40E94CF
:101F000090180E94F8186B017C018091B50890919F
:101F1000B608BC01882777FD8095982F0E942B1961
:101F200020E030E04CE051E40E94071A20E030E06D
:101F30004AE754E40E9490180E94F8187983688355
:101F4000F40151824082F101D182C08284EF91E09C
:101F50007ED4A3CFCCE9D8E035D381EC98E088DB00
:101F6000F5D381EC98E095D90E94F81879836883BD
:101F700084EF91E06CD4F0CFCEE9D8E023D38EEAA1
:101F800098E00E9493050E94F818882777FD8095B5
:101F9000982F0E942B1920E030E54DE754E40E9471
:101FA000EE046B017C01D2D3C701B6010E94F81880
:101FB0007983688384EF91E04AD4E0CF26E040E85B
:101FC00055E260E070E08FE99AE00E94A41C80EB8B
:101FD00099E09FD742E064E081EC98E07EDB81EC01
:101FE00098E0D5D986E0EFE1F2E0A3EDB8E001900A
:101FF0000D928A95E1F786E0E5E2F2E0ADECB8E01B
:1020000001900D928A95E1F742E063E085EB98E05C
:102010000E94C60385EB98E00E940D0342E062E057
:102020008EEA98E00E9408068EEA98E00E94310548
:1020300061E080910C020E947A2060E080910E02A3
:102040000E947A2060E080910A020E947A2061E07A
:10205000809108020E947A2060E0809106020E942E
:102060007A2061E0809104020E947A2060E08091F1
:1020700002020C947A200895AF92BF92CF92DF9221
:10208000EF92FF920F93CF93DF93CDB7DEB72C97EC
:102090000FB6F894DEBF0FBECDBF0E94AF1F8EDF1C
:1020A000A12CB12CC12CD12CCE010B967C010AE0C5
:1020B00020E030E040EA50E06BE272E081ED90E138
:1020C00050D1CE0109967C0109E020E030E040EAE1
:1020D00050E062E372E087E39FE043D1CE010796D0
:1020E0007C0108E020E030E040EA50E061E472E08A
:1020F00081EA9EE036D1CE0105967C0106E020E023
:1021000030E040EA50E064E572E08AEA9FE029D1DD
:10211000CE0103967C0105E020E030E040EA50E08B
:1021200061E672E080EC9DE01CD1CE0101967C015D
:1021300004E020E030E040EA50E061E772E08CEB40
:102140009FE00FD116D280E090E02C960FB6F89465
:10215000DEBF0FBECDBFDF91CF910F91FF90EF900B
:10216000DF90CF90BF90AF9008950F931F9381ECB5
:1021700098E00E94280685EB98E00E94E6028EEA2D
:1021800098E00E94E80406EB1EE42DE530E049E10A
:1021900050E066E370E080EA98E077D01F910F91FD
:1021A00008950F2EF8E8EF2EF8E0FF2EF02D00EA4C
:1021B00018E08FE99AE00E94EF1B892B09F461C0B7
:1021C0008FE99AE00E94081C883459F461E48FE991
:1021D0009AE00E948C1E6DE08FE99AE00E948C1EAE
:1021E00050C0803509F043C0609100027091010237
:1021F0007093E8086093E7084AE050E08FE99AE0BE
:102200000E94461F6AE08FE99AE00E948C1EE70157
:10221000699179918091E7089091E808860F971F5E
:102220009093E8088093E7084AE050E08FE99AE04D
:102230000E94461F6AE08FE99AE00E948C1EC01738
:10224000D10731F76091E7087091E8084AE050E063
:102250008FE99AE00E94461F6AE08FE99AE00E94A7
:102260008C1E6DE08FE99AE00E948C1E0AC06EE41D
:102270008FE99AE00E948C1E6DE08FE99AE00E943F
:102280008C1E84E690E0E3D294CF0F931F93FC0161
:10229000C901718360835583448364E670E00E94C2
:1022A0002621758764871383028381E00E941120B1
:1022B0001F910F910895E0910809F091090980811B
:1022C000811107C08FEF9FEF90931102809310024E
:1022D0000895E0910809F09109090580F681E02D43
:1022E0000680F781E02D8281938190931102809383
:1022F00010020895CF93DF93EC01E0914009F09133
:102300004109938382838091F0089091F108C81766
:10231000D90768F4609140097091410980910609DC
:10232000909107096E5F7F4F0E94910417C06091E2
:1023300040097091410980910809909109096E5FE7
:102340007F4F0E9491048091100290911102C81752
:10235000D90720F4D0931102C0931002DF91CF91DE
:1023600008954F925F926F927F928F929F92AF9259
:10237000BF92CF92DF92EF92FF920F931F93CF9372
:10238000DF934C015B012A01390181E290E00E9458
:10239000B002EC01009709F4DAC0C114D10409F0CD
:1023A000BFC0C2010E94B002988F8F8B892B09F0A9
:1023B000B9C0CE010E94E502CAC0CF013191DA0155
:1023C0003D93AD01DC018C91882311F02150A9F7D8
:1023D00018A2102F043008F013E01E8B5E01B2E04B
:1023E000AB0EB11CC5010E946C04CE010C960E947C
:1023F0006C04D987C88784E090E0811B91099D8790
:102400008C87DB8BCA8BA301B401C60142DA9983A6
:102410008883E114F10419F0F701D183C0830FB66A
:10242000F8940F928091F2088F5F8093F208809168
:10243000400990914109892BA9F5D0934109C09396
:1024400040098091F2088130E1F58CE199E00E9429
:102450005E0485E299E00E945E048EE299E00E94AB
:102460005E0487E399E00E945E0483E199E00E94A4
:102470005E048AE099E00E945E048DEF98E00E947D
:102480005E0484EF98E00E945E0483E199E09093FB
:102490000909809308098AE099E0909307098093DD
:1024A00006090FC08091EE0881110BC0E091400930
:1024B000F09141098689081720F0D0934109C09313
:1024C00040098091EA088F5F8093EA088E89909195
:1024D000EF08981710F48093EF0890E09C01220F0A
:1024E000331F220F331F220F331F820F931FB5019B
:1024F000845E964F0E9470040F900FBE8091EE088C
:10250000882351F0E0914009F091410986898017B4
:1025100028F472DA81E01CC081E01AC081E018C0A2
:10252000D88ECF8AF1E04F1A5108CF88D88CC40CCE
:10253000D51CD5018C91898F8C91882309F448CFC3
:10254000AE01465E5F4FF501319627E036CF8FEF43
:10255000DF91CF911F910F91FF90EF90DF90CF907F
:10256000BF90AF909F908F907F906F905F904F90B3
:102570000895AF92BF92CF92DF92EF92FF920F93A6
:10258000A12CB12CC12CD12CE12CF12C00E020E0AD
:1025900030E045E550E060E872E083E494E1E1DE9C
:1025A000813041F4F8948093EE081092F108109273
:1025B000F008E1D90F91FF90EF90DF90CF90BF909E
:1025C000AF9008958091E9088F5F8093E90808959E
:1025D000CF92DF92EF92FF920F931F93CF93DF93EF
:1025E0008091E908811199C08091F0089091F108DB
:1025F00001969093F1088093F008E090F008F09035
:10260000F108E114F104B1F48091080990910909ED
:102610002091060930910709309309092093080990
:1026200090930709809306098091EB088F5F809350
:10263000EB0841DE8091100290911102E816F90634
:1026400008F454C0D12CCC24C39401C0DC2CE091FC
:102650000809F09109098081811107C08FEF9FEF70
:10266000909311028093100242C0E0910809F0910A
:1026700009090580F681E02DC681D7812A813B8139
:10268000E216F30628F430931102209310022FC0B3
:102690008E010E5F1F4FC8010E94C2048C899D8964
:1026A000892B21F0CE010C960E94C2042E898091C4
:1026B000EF08821710F42093EF0830E0C901880F6B
:1026C000991F880F991F880F991F820F931FB801B8
:1026D000845E964F0E947004E0914009F091410998
:1026E0009E898689981708F0B1CFB1CFD12CE0919F
:1026F0004009F0914109868990E0FC01EE0FFF1F2F
:10270000EE0FFF1FEE0FFF1F8E0F9F1FFC01E45EF9
:10271000F64F8081823040F409C08091ED088F5FD0
:102720008093ED08D12C02C0DD24D3948091EC0875
:10273000882311F0DD24D3948D2DDF91CF911F914B
:102740000F91FF90EF90DF90CF900895DF92EF927E
:10275000FF920F931F93CF93DF930FB6F8940F92CE
:102760008091E90881508093E9088091E9088111FE
:102770005FC08091F208882309F45CC00F2EFDEF42
:10278000EF2EF8E0FF2EF02DDD24D39430C0E09141
:102790000209F0910309C681D781CE010C960E94EF
:1027A000C2048E010E5F1F4FC8010E94C2048E89B1
:1027B0009091EF08981710F48093EF0890E09C0137
:1027C000220F331F220F331F220F331F820F931F3D
:1027D000B801845E964F0E947004E0914009F09128
:1027E00041099E898689981710F0D092EC08F7016C
:1027F00080818111CCCF8091ED08882391F0809168
:10280000ED08882371F0C1E0E3DE8111C093EC088C
:102810008091ED0881508093ED088091ED08811141
:10282000F3CF8091EC08813039F4E6D881E005C01F
:1028300080E003C080E001C080E00F900FBEDF9118
:10284000CF911F910F91FF90EF90DF900895CF935C
:10285000DF93EC01009799F0B5DE8091F00890913C
:10286000F108C80FD91F8091400990914109029643
:102870000E94C204CE013EDD69DF811101C0BCD8D7
:10288000DF91CF9108950F2EFCE1EF2EF9E0FF2E9E
:10289000F02DC4EFD8E026C095DE188157DF112354
:1028A00009F10FB6F8940F92E091F908F091FA0847
:1028B00006811781C80102960E94C2048091F20825
:1028C00081508093F2088091F30881508093F3083F
:1028D0000F900FBEF8018789908D0E94E502C80114
:1028E0000E94E5028091F3088111D6CFF701808123
:1028F0008230C0F381D8F6CF8091E908882321F097
:1029000081E08093EC0808951092EC088091EF0824
:1029100090E0FC01EE0FFF1FEE0FFF1FEE0FFF1FF9
:102920008E0F9F1FFC01E45EF64F8081811117C05E
:102930008091EF0881508093EF088091EF0890E03C
:10294000FC01EE0FFF1FEE0FFF1FEE0FFF1F8E0F9C
:102950009F1FFC01E45EF64F8081882349F3E091DC
:10296000EF08F0E0CF01880F991F880F991F880F9B
:10297000991FE80FF91FE45EF64FA181B28112960C
:102980000D90BC91A02DB283A183CF010396A8170F
:10299000B90731F412968D919C911397928381839C
:1029A0000180F281E02D8681978190934109809387
:1029B000400908951092AF0981E08093AD0910920B
:1029C000AC0961E084E10E94B82061E085E10E94E9
:1029D000B820E9EBF0E080818E7F808380818D7F5D
:1029E00080838DEF8093B80085E48093BC000895C8
:1029F000413208F045C09091AF099111FCCF91E0B0
:102A00009093AF092093AD092FEF209342091092C4
:102A10008709240F209386099093AE099091AE09FF
:102A2000880F892B8093AE098091AC09813051F4D5
:102A30001092AC098091AE098093BB0085EC809325
:102A4000BC0003C085EE8093BC008091AF0981304B
:102A5000E1F380918709841710F44091870944239A
:102A600089F0E8E8F9E0A62FB72F2FEF240F30E028
:102A70002757364F91919D93E217F307D9F704C07A
:102A800080E00895842F0895842F08950F93413294
:102A900008F050C09091AF099111FCCF92E0909353
:102AA000AF090093AD099FEF9093420910928709F7
:102AB00040938609442369F0FB01A8E8B9E06F5F01
:102AC0007F4F4150640F711D91919D93E617F70759
:102AD000D9F71092AE099091AE09880F892B809397
:102AE000AE098091AC09813051F41092AC0980910B
:102AF000AE098093BB0085EC8093BC0003C085EEDB
:102B00008093BC00222341F08091AF09823021F4F0
:102B10008091AF098230E1F3809142098F3F61F0EB
:102B200080914209803251F080914209803341F412
:102B300083E007C081E005C080E003C082E001C0FF
:102B400084E00F9108956132A8F42091AF092430F8
:102B500099F460936409662389F0FC01A6E6B9E064
:102B600001966150860F911D21912D93E817F90769
:102B7000D9F706C081E0089582E0089580E00895C5
:102B800080E0089585ED8093BC00ECEBF0E080815F
:102B900084FDFDCF1092AF09089585EC8093BC00B1
:102BA0001092AF0908951F920F920FB60F92112441
:102BB0000BB60F922F933F934F935F936F937F9337
:102BC0008F939F93AF93BF93EF93FF938091B9003F
:102BD000887F90E0893C910508F0EEC0FC01EE583A
:102BE000FF4F0C945B218091AE098093BB0085EC74
:102BF0008093BC00E1C09091870980918609981765
:102C000080F4E091870981E08E0F80938709F0E0DE
:102C1000E857F64F80818093BB0085EC8093BC0021
:102C2000CBC08091AD09882311F0ACDFC5C081E035
:102C30008093AC0984EA8093BC001092AF09BCC0B9
:102C400080E2809342099EDFB7C080E3809342090F
:102C500099DFB2C088E3809342099FDFADC0E09165
:102C6000870981E08E0F809387098091BB00F0E097
:102C7000E857F64F808390918709809186099817CD
:102C800020F485EC8093BC0097C085E88093BC005D
:102C900093C0E091870981E08E0F8093870980912E
:102CA000BB00F0E0E857F64F80838091AD098823A0
:102CB00011F068DF81C081E08093AC0984EA8093E1
:102CC000BC001092AF0978C05DDF76C083E08093CE
:102CD000AF091092430985EC8093BC006DC08091D0
:102CE0004309803280F4E091430981E08E0F8093A4
:102CF00043098091BB00F0E0EC5BF64F808385ECEC
:102D00008093BC0059C085E88093BC0055C0809179
:102D10004309803230F4E0914309F0E0EC5BF64F78
:102D2000108230DF6091430970E0E091A809F091D2
:102D3000A90984E499E01995109243092EDF3CC05B
:102D400085E88093BC0038C084E08093AF0910927E
:102D5000650910926409E091AA09F091AB091995EF
:102D600080916409811105C081E08093640910920B
:102D70006609E091650981E08E0F80936509F0E0B6
:102D8000EA59F64F80818093BB009091650980914C
:102D90006409981720F485EC8093BC000DC085E889
:102DA0008093BC0009C085EC8093BC001092AF09F1
:102DB00003C010924209E6DEFF91EF91BF91AF91FF
:102DC0009F918F917F916F915F914F913F912F9143
:102DD0000F900BBE0F900FBE0F901F901895809113
:102DE000E00990E02091E109821B9109089520916A
:102DF000E1098091E009281750F4E22FF0E0EE514C
:102E0000F64F808190E02F5F2093E10908958FEFC6
:102E10009FEF0895E091E1098091E009E81730F40F
:102E2000F0E0EE51F64F808190E008958FEF9FEF34
:102E300008950895CF92DF92EF92FF920F931F9320
:102E4000CF93DF938C017B016A018091BC098823B9
:102E500099F04115510599F0EB01E40EF51E6991C9
:102E6000D801ED91FC910190F081E02DC8011995F8
:102E7000CE15DF05A1F703C0642FC70164DEC601CC
:102E8000DF91CF911F910F91FF90EF90DF90CF9046
:102E90000895CF93DF931F92CDB7DEB7698320915A
:102EA000BC092223E1F02091BD09203240F021E04D
:102EB00030E0FC013383228380E090E016C08091F3
:102EC000BE09E82FF0E0E154F64F998190838F5FBF
:102ED0008093BE098093BD0981E090E006C061E067
:102EE000CE01019630DE81E090E00F90DF91CF912E
:102EF0000895FC011382128248EE53E060E070E016
:102F0000448355836683778389E892E09183808345
:102F100008951092E1091092E0091092BE091092F2
:102F2000BD0948CD0895862F413208F040E262EE97
:102F300079E05EDD1092E1098093E009089521E0D7
:102F4000F2CF089581E08093BC096093DF0910926D
:102F5000BE091092BD0908950F93062F21E04091FC
:102F6000BD096FEB79E08091DF0990DD1092BE0919
:102F70001092BD091092BC090F91089561E0ECCF49
:102F8000089580EB99E0B5CF08955058BB27AA2744
:102F90000ED0FCC1EDD130F0F2D120F031F49F3FE2
:102FA00011F41EF4BDC10EF4E095E7FBB3C1E92FA7
:102FB000FED180F3BA17620773078407950718F0EC
:102FC00071F49EF516C20EF4E0950B2EBA2FA02DCB
:102FD0000B01B90190010C01CA01A0011124FF27C6
:102FE000591B99F0593F50F4503E68F11A16F040C1
:102FF000A22F232F342F4427585FF3CF46953795C0
:103000002795A795F0405395C9F77EF41F16BA0B84
:10301000620B730B840BBAF09150A1F0FF0FBB1F32
:10302000661F771F881FC2F70EC0BA0F621F731F7B
:10303000841F48F4879577956795B795F7959E3FD8
:1030400008F0B3CF9395880F08F09927EE0F979566
:10305000879508958DD158F080E891E009F49EEFAE
:103060008ED128F040E851E059F45EEF09C058C114
:10307000C0C1E92FE0789BD168F3092E052AC1F37E
:10308000261737074807590738F00E2E07F8E025AE
:1030900069F0E025E0640AC0EF6307F8009407FADE
:1030A000DB01B9019D01DC01CA01AD01EF9347D0FD
:1030B0006DD10AD05F91552331F02BED3FE049E40B
:1030C00050FD49EC63CF0895DF93DD27B92FBF771B
:1030D00040E85FE31616170648075B0710F4D92F80
:1030E0008FD19F938F937F936F9382D2E6E7F2E025
:1030F0001AD14CD12F913F914F915F9194D1DD2303
:1031000049F09058A2EA2AED3FE049EC5FE3D0781D
:103110005D274DDFDF913AC1D9D008F481E00895F1
:103120000CD034C12CD140F023D130F021F45F3FDA
:1031300019F0F0C051115EC1F3C039D198F3992351
:10314000C9F35523B1F3951B550BBB27AA2762176B
:103150007307840738F09F5F5F4F220F331F441FB0
:10316000AA1FA9F333D00E2E3AF0E0E830D09150E8
:103170005040E695001CCAF729D0FE2F27D0660FD5
:10318000771F881FBB1F261737074807AB07B0E814
:1031900009F0BB0B802DBF01FF2793585F4F2AF02A
:1031A0009E3F510568F0B6C025C15F3FECF3983EE5
:1031B000DCF3869577956795B795F7959F5FC9F787
:1031C000880F911D9695879597F90895E1E0660F10
:1031D000771F881FBB1F621773078407BA0720F089
:1031E000621B730B840BBA0BEE1F88F7E0950895F2
:1031F00004D06894B111FEC00895E1D088F09F57C3
:1032000090F0B92F9927B751A0F0D1F0660F771F32
:10321000881F991F1AF0BA95C9F712C0B13081F012
:10322000E8D0B1E00895E5C0672F782F8827B85F10
:1032300039F0B93FCCF3869577956795B395D9F773
:103240003EF490958095709561957F4F8F4F9F4F7D
:103250000895E89409C097FB3EF490958095709589
:1032600061957F4F8F4F9F4F9923A9F0F92F96E9D2
:10327000BB279395F695879577956795B795F11147
:10328000F8CFFAF4BB0F11F460FF1BC06F5F7F4FE4
:103290008F4F9F4F16C0882311F096E911C07723F6
:1032A00021F09EE8872F762F05C0662371F096E8FF
:1032B000862F70E060E02AF09A95660F771F881FCE
:1032C000DAF7880F9695879597F90895990F000872
:1032D000550FAA0BE0E8FEEF16161706E807F907E8
:1032E000C0F012161306E407F50798F0621B730B83
:1032F000840B950B39F40A2661F0232B242B252B04
:1033000021F408950A2609F4A140A6958FEF811DA6
:10331000811D089597F99F6780E870E060E0089547
:103320009FEF80EC0895DF93CF931F930F93FF924D
:10333000EF92DF927B018C01689405C0DA2EEF01D9
:1033400072D0FE01E894A591259135914591559152
:10335000AEF3EF012CDEFE019701A801DA9479F7B4
:10336000DF90EF90FF900F911F91CF91DF91089523
:1033700000240A9416161706180609060895002454
:103380000A9412161306140605060895092E0394CE
:10339000000C11F4882352F0BB0F40F4BF2B11F442
:1033A00060FF04C06F5F7F4F8F4F9F4F089557FDA1
:1033B0009058440F551F59F05F3F71F04795880FA3
:1033C00097FB991F61F09F3F79F08795089512163A
:1033D00013061406551FF2CF4695F1DF08C01616E6
:1033E00017061806991FF1CF869571056105089497
:1033F0000895E894BB2766277727CB0197F90895AE
:103400009B01AC0160E070E080E89FE389CE0BD0C7
:10341000BDCFAEDF28F0B3DF18F0952309F07ACFE7
:103420007FCF1124E7CFC3DFA0F3959FD1F3950F92
:1034300050E0551F629FF001729FBB27F00DB11D38
:10344000639FAA27F00DB11DAA1F649F6627B00DC8
:10345000A11D661F829F2227B00DA11D621F739FB1
:10346000B00DA11D621F839FA00D611D221F749FBF
:103470003327A00D611D231F849F600D211D822F06
:10348000762F6A2F11249F5750408AF0E1F088234D
:103490004AF0EE0FFF1FBB1F661F771F881F91505A
:1034A0005040A9F79E3F510570F034CFA3CF5F3F46
:1034B000ECF3983EDCF3869577956795B795F7958D
:1034C000E7959F5FC1F7FE2B880F911D9695879515
:1034D00097F90895FA01EE0FFF1F30962105310587
:1034E00099F16115710561F48038BFE39B0749F1DB
:1034F00068949038810561F08038BFEF9B0741F0F8
:10350000992342F5FF3FE1053105210511F1E894CA
:103510000894E795D901AA2329F4AB2FBE2FF85FB1
:10352000D0F310C0FF5F70F4A695E0F7F73950F0C4
:1035300019F0FF3A38F49F779F930CD00F9007FC57
:10354000905808953EF0ECCE60E070E080E89FE394
:1035500008954FE79F775F934F933F932F93CCD07E
:103560002F913F914F915F9152DF4AC011F40EF4B9
:10357000D7CE72C024DFD0F39923D9F3CEF39F576F
:10358000550B87FF77D00024A0E640EA90018058D1
:103590005695979528F4805C660F771F881F20F05A
:1035A00026173707480730F4621B730B840B20295A
:1035B00031294A2BA69517940794202531254A27AF
:1035C00058F7660F771F881F20F026173707480720
:1035D00030F4620B730B840B200D311D411DA0953F
:1035E00081F7B901842F9158880F96958795089592
:1035F0009B01AC010CCF19F40EF08CCEFACE90CE1C
:10360000DEDEC8F39638C0F707F80F92E8942BE394
:103610003AEA48EB5FE709DF0F920F920F924DB73E
:103620005EB70F92A9D0E3EAF2E07DDE4F915F91A1
:10363000EF91FF91E595EE1FFF1F49F0FE57E068FF
:103640004427EE0F441FFA95E1F74195550B1BD027
:103650000F9007FED5CE08959F3F31F0915020F492
:10366000879577956795B795880F911D969587955E
:1036700097F9089591505040660F771F881FD2F731
:10368000089548CEE9CF9BDEE8F39923D9F3940F50
:10369000511DBBF39150504094F059F0882332F003
:1036A000660F771F881F91505040C1F79E3F51050C
:1036B00044F7880F911D9695879597F908955F3F78
:1036C000ACF0983E9CF0BB27869577956795B795AB
:1036D00008F4B1609395C1F7BB0F58F711F460FF80
:1036E000E8CF6F5F7F4F8F4F9F4FE3CF83CE0EF0BA
:1036F000B3CF16CE68940ECE62DEC8F39923D1F311
:10370000C6F3DF93CF931F930F93FF92C92FDD274B
:1037100088232AF02197660F771F881FDAF720E0A9
:1037200030E040E85FEB9FE3883920F0803E30F0E6
:1037300021968F772BDCEBECF2E003C027DCE8EF7F
:10374000F2E0F1DD8B01BE01EC01FB2E6F57710938
:103750007595771F880B990B7EDD28E132E741E3F1
:103760005FE361DEAF2D9801AE01FF900F911F91D5
:10377000CF91DF911CDC0ACEFA01DC01AA0FBB1F3E
:103780009B01AC01BF5728F42227332744275078E8
:103790001FC0B75188F4AB2F002446953795279565
:1037A000011CA395D2F3002069F0220F331F441FA0
:1037B000B395DAF30DD0E9CB61307105A0E88A0743
:1037C000B94630F49B01AC016627772788279078AB
:1037D000309621F020833183428353830895FC0186
:1037E000818D228D90E0805C9F4F821B91098F73A9
:1037F00099270895FC01918D828D981731F0828D63
:10380000E80FF11D858D90E008958FEF9FEF0895EB
:10381000FC01918D828D981761F0828DDF01A80FD8
:10382000B11D5D968C91928D9F5F9F73928F90E0FA
:1038300008958FEF9FEF0895FC01848DDF01A80F9D
:10384000B11DA35ABF4F2C91848D90E001968F73C8
:103850009078848FA689B7892C93A089B1898C919F
:1038600080648C93938D848D981306C00288F389AD
:10387000E02D80818F7D80830895CF93DF93EC01CD
:10388000888D81110AC01AC00FB607FC08C080815C
:1038900085FF05C00DC0CE01CFDFEA89FB8980819D
:1038A00085FDF2CFA889B9898C9186FFEDCF06C03E
:1038B000A889B9898C9185FFF2CFEDCFDF91CF91A7
:1038C00008950F931F93CF93DF93EC01162F81E0A0
:1038D000888F9B8D8C8D981321C0E889F989808110
:1038E00085FD23C01BC00FB607FC07C0E889F98916
:1038F000808185FF02C0CE019FDF9C8D091799F35F
:103900008B8DFE01E80FF11DE35AFF4F10830B8FE3
:10391000EA89FB898081806280830FC08B8D90E073
:1039200001968F739078082FE8CFEE89FF89608326
:10393000E889F98980818064808381E090E0DF916B
:10394000CF911F910F910895CF92DF92EF92FF9246
:103950001F93CF93DF93EC016A017B01122FE8895B
:10396000F98982E08083411581EE58076105710570
:10397000A9F060E079E08DE390E0A701960179D4A9
:10398000BA01A901415051096109710976956795FC
:1039900057954795411580E15807A0F0E889F989C6
:1039A000108260E874E88EE190E0A701960161D48E
:1039B000BA01A901415051096109710976956795CC
:1039C00057954795EC85FD855083EE85FF854083AF
:1039D000188EEC89FD891083EA89FB8980818061DA
:1039E0008083EA89FB89808188608083EA89FB89FA
:1039F000808180688083EA89FB8980818F7D8083D4
:103A0000DF91CF911F91FF90EF90DF90CF900895BD
:103A10001F920F920FB60F9211240BB60F922F9395
:103A20008F939F93AF93BF93EF93FF93E091120A0D
:103A3000F091130A808182FD17C0E091180AF0917D
:103A4000190A208180911B0A8F5F8F7390911C0A45
:103A5000891779F0EBE1FAE0A081B0E0AE5FB54FF5
:103A60005D962C93808305C0E091180AF091190AA5
:103A70008081FF91EF91BF91AF919F918F912F9195
:103A80000F900BBE0F900FBE0F901F9018951F92B6
:103A90000F920FB60F9211240BB60F922F933F93F4
:103AA0004F935F936F937F938F939F93AF93BF9346
:103AB000EF93FF9382E09AE0BFDEFF91EF91BF9119
:103AC000AF919F918F917F916F915F914F913F91B6
:103AD0002F910F900BBE0F900FBE0F901F90189557
:103AE0001092050A1092040A88EE93E0A0E0B0E07C
:103AF0008093060A9093070AA093080AB093090AD4
:103B000089E992E09093030A8093020A85EC90E0A1
:103B100090930F0A80930E0A84EC90E09093110A20
:103B20008093100A80EC90E09093130A8093120A1D
:103B300081EC90E09093150A8093140A82EC90E057
:103B40009093170A8093160A86EC90E09093190AD6
:103B50008093180A10921B0A10921C0A10921D0AD8
:103B600010921E0A08951F920F920FB60F92112401
:103B70000BB60F922F938F939F93AF93BF93EF93B7
:103B8000FF93E091AF0AF091B00A808182FD17C0E7
:103B9000E091B50AF091B60A20818091B80A8F5F52
:103BA0008F739091B90A891779F0E8EBFAE0A08158
:103BB000B0E0A156B54F5D962C93808305C0E0918F
:103BC000B50AF091B60A8081FF91EF91BF91AF9154
:103BD0009F918F912F910F900BBE0F900FBE0F9062
:103BE0001F9018951F920F920FB60F9211240BB6CB
:103BF0000F922F933F934F935F936F937F938F9386
:103C00009F93AF93BF93EF93FF938FE99AE014DEF6
:103C1000FF91EF91BF91AF919F918F917F916F91A4
:103C20005F914F913F912F910F900BBE0F900FBE60
:103C30000F901F9018951092A20A1092A10A88EE78
:103C400093E0A0E0B0E08093A30A9093A40AA0932D
:103C5000A50AB093A60A89E992E09093A00A8093FE
:103C60009F0A8DEC90E09093AC0A8093AB0A8CECA9
:103C700090E09093AE0A8093AD0A88EC90E0909328
:103C8000B00A8093AF0A89EC90E09093B20A8093D7
:103C9000B10A8AEC90E09093B40A8093B30A8EEC58
:103CA00090E09093B60A8093B50A1092B80A1092E9
:103CB000B90A1092BA0A1092BB0A0895CF92DF9205
:103CC000EF92FF920F931F93CF93DF936C014115F7
:103CD0005105B1F0062F172FEA01E12CF12CD80184
:103CE0006D918D01D601ED91FC910190F081E02D57
:103CF000C6011995E80EF91E2197209781F702C099
:103D0000E12CF12CC701DF91CF911F910F91FF9012
:103D1000EF90DF90CF900895DC01ED91FC91019040
:103D2000F081E02D199508956F927F928F929F9266
:103D3000AF92BF92CF92DF92EF92FF920F931F93B9
:103D4000CF93DF93CDB7DEB7A1970FB6F894DEBF60
:103D50000FBECDBF6C01742E352F862F972F622E8C
:103D600019A221E0261520F00F2EFAE06F2EF02D7B
:103D70007E01A1E2EA0EF11C862C912CA12CB12C23
:103D8000672D732FA501940174D2E22F732F022F98
:103D9000132F242F352FF72D6E9EF0191124B1E02B
:103DA000EB1AF108FA3010F4F05D01C0F95CD701AC
:103DB000FC93012B022B032B29F07E2E372F842F0F
:103DC000952FDECFE114F10491F0F701019000206E
:103DD000E9F73197AF014E195F09D601ED91FC91DA
:103DE0000280F381E02DB701C601199502C080E081
:103DF00090E0A1960FB6F894DEBF0FBECDBFDF9165
:103E0000CF911F910F91FF90EF90DF90CF90BF90D7
:103E1000AF909F908F907F906F900895CF92DF9298
:103E2000EF92FF920F931F93CF93DF93EC016A0100
:103E30007B012115310541F4E881F9810190F08180
:103E4000E02D642F199519C02A303105A9F4772384
:103E500084F46DE261DF8C0144275527BA014C19C7
:103E60005D096E097F092AE0CE015EDF800F911F98
:103E700004C02AE059DF01C057DFDF91CF911F91C5
:103E80000F91FF90EF90DF90CF9008959A01AB01D2
:103E9000662757FD6095762FC1CF08951F920F9228
:103EA0000FB60F9211242F933F938F939F93AF934D
:103EB000BF9380913D0B90913E0BA0913F0BB09131
:103EC000400B30913C0B23E0230F2D3720F401965B
:103ED000A11DB11D05C026E8230F0296A11DB11D2D
:103EE00020933C0B80933D0B90933E0BA0933F0B94
:103EF000B093400B8091410B9091420BA091430BEA
:103F0000B091440B0196A11DB11D8093410B90937C
:103F1000420BA093430BB093440BBF91AF919F9181
:103F20008F913F912F910F900FBE0F901F9018957A
:103F30002FB7F89460913D0B70913E0B80913F0B31
:103F40009091400B2FBF08958230910538F0880F73
:103F5000991F880F991F05970197F1F70895789495
:103F600084B5826084BD84B5816084BD85B582607E
:103F700085BD85B5816085BDEEE6F0E0808181601C
:103F80008083E1E8F0E0108280818260808380811C
:103F900081608083E0E8F0E0808181608083E1EBF4
:103FA000F0E0808184608083E0EBF0E080818160DC
:103FB0008083E1E9F0E0808182608083808181609C
:103FC0008083E0E9F0E0808181608083E1EAF0E0D5
:103FD000808182608083808181608083E0EAF0E07C
:103FE000808181608083E1E2F1E080818260808372
:103FF000808181608083E0E2F1E080818160808364
:10400000EAE7F0E080818460808380818260808341
:104010008081816080838081806880831092C1006C
:10402000089580931202089590E0FC013197E231E7
:10403000F10508F05EC0ED56FE4F3DC1E0E8F0E04E
:1040400080818F7780830895E0E8F0E080818F7D24
:1040500080830895E0E8F0E08081877F8083089581
:1040600084B58F7784BD089584B58F7D84BD089510
:10407000E0EBF0E080818F7780830895E0EBF0E063
:1040800080818F7D80830895E0E9F0E080818F77E3
:1040900080830895E0E9F0E080818F7D808308953A
:1040A000E0E9F0E08081877F80830895E0EAF0E036
:1040B00080818F7780830895E0EAF0E080818F7DB2
:1040C00080830895E0EAF0E08081877F808308950F
:1040D000E0E2F1E080818F7780830895E0E2F1E013
:1040E00080818F7D80830895E0E2F1E08081877F89
:1040F00080830895CF93DF9390E0FC01E057FC4F5D
:104100002491FC01EA52FC4F8491882371F190E0E4
:10411000880F991FFC01E05BFB4FA591B4918A5C6D
:104120009B4FFC01C591D49161110BC08FB7F894DE
:104130009C91209592239C93E8812E2328838FBF06
:1041400014C0623061F48FB7F8943C91922F90952F
:1041500093239C93E8812E2B28838FBF06C08FB7B3
:10416000F894EC912E2B2C938FBFDF91CF91089573
:104170001F93CF93DF93C62F282F30E0F901E65B22
:10418000FC4F8491F901E057FC4F1491F901EA5278
:10419000FC4FD491DD23C1F0811146DF2D2F30E09B
:1041A000F901EE0FFF1FEA5CFB4FA591B4918FB7A9
:1041B000F894C11105C0EC9110951E231C9303C007
:1041C000EC911E2B1C938FBFDF91CF911F9108950F
:1041D0000F931F93762F90E0FC01E057FC4F649102
:1041E000FC01EA52FC4FE4917111762FF0E0EE0FE2
:1041F000FF1FE45EFB4F8591949189019A013F7006
:10420000472F0E946B02611571058105910549F0E8
:10421000DC01CB010196A11DB11DBC01CD019F7038
:1042200003C060E070E0CB011F910F910895DB01A6
:104230008F939F9346D0BF91AF91A29F800D911D08
:10424000A39F900DB29F900D1124089597FB072E08
:1042500016F4009406D077FD08D041D007FC05D0B5
:104260003EF4909581959F4F0895709561957F4F8D
:104270000895A1E21A2EAA1BBB1BFD010DC0AA1FA7
:10428000BB1FEE1FFF1FA217B307E407F50720F0BF
:10429000A21BB30BE40BF50B661F771F881F991F3A
:1042A0001A9469F760957095809590959B01AC0183
:1042B000BD01CF010895EE0FFF1F0590F491E02D91
:1042C000199421D0A59F900DB49F900DA49F800DAF
:1042D000911D112408950790F691E02D1994AA1BC1
:1042E000BB1B51E107C0AA1FBB1FA617B70710F0E1
:1042F000A61BB70B881F991F5A95A9F78095909513
:10430000BC01CD010895A29FB001B39FC001A39F3E
:10431000700D811D1124911DB29F700D811D1124FE
:08432000911D0895F894FFCFF0
:104328000C00360008000700060005000400030022
:10433800FFFF01018001800180FF7FFF7FFF7F2059
:10434800075B014F045C07A401B3047072696E74C3
:10435800410052656164204779726F6D65746572BA
:10436800005265616420416363656C65726F6D65B9
:104378007465720052656164204D61676E65746F83
:10438800005265616420556C747261736F6E696365
:10439800005265616420416C74696D6574657200D2
:1043A80049444C45000000000049171A17EF16F75A
:1043B800160A17191700000000611C5E1EEF1B0883
:0643C8001CFA1B3D1C0065
:00000001FF
