:1000000037C2000066C2000064C2000062C2000085
:1000100060C200005EC200005CC200005AC2000064
:1000200058C2000056C2000054C2000052C2000074
:1000300050C200000C947D0C4CC200004AC200006B
:1000400048C2000046C2000044C2000042C2000094
:1000500040C200003EC200003CC200000C94301DB3
:1000600038C200000C947B1B0C94BA1B32C20000F7
:1000700030C200002EC200002CC200002AC20000C4
:1000800028C2000026C2000024C2000022C20000D4
:1000900020C200001EC200001CC200000C944614C6
:1000A00018C2000016C2000014C2000012C20000F4
:1000B00010C200000EC200000CC200000AC2000004
:1000C00008C2000006C2000004C2000002C2000014
:1000D00000C20000FEC10000FCC10000FAC1000027
:1000E000F8C100004C154F154F154F154F154F1502
:1000F0004F154F1566144F154F154F154F154F15CA
:100100004F154F1566144F154F154F154F154F15B9
:100110004F154F156E144F154F154F154F154F15A1
:100120004F154F1593144F154F154F154F154F156C
:100130004F154F156E144F154F154F154F154F1581
:100140004F154F1598144F154F154F154F154F1547
:100150004F154F159D144F154F154F154F154F1532
:100160004F154F15AE144F154F154F154F154F1511
:100170004F154F15D7144F154F154F154F154F15D8
:100180004F154F15A2144F154F154F154F154F15FD
:100190004F154F15BC144F154F154F154F154F15D3
:1001A0004F154F15D9144F154F154F154F154F15A6
:1001B0004F154F15D9144F154F154F154F154F1596
:1001C0004F154F15D9144F154F154F154F154F1586
:1001D0004F154F15D9144F154F154F154F154F1576
:1001E0004F154F15E2144F154F154F154F154F155D
:1001F0004F154F1513154F154F154F154F154F151B
:100200004F154F15E2144F154F154F154F154F153C
:100210004F154F1513154F154F154F154F154F15FA
:100220004F154F15FA144F154F154F154F154F1504
:100230004F154F1517154F154F154F154F154F15D6
:100240004F154F1517154F154F154F154F154F15C6
:100250004F154F152C154F154F154F154F154F15A1
:100260004F154F1546154F154F154F154F154F1577
:100270004F154F154615084AD73B3BCE016E84BC3F
:10028000BFFDC12F3D6C74319ABD56833DDA3D00F0
:10029000C77F11BED9E4BB4C3E916BAAAABE000039
:1002A00000803F07634236B79BD8A71A39685618B3
:1002B000AEBAAB558C1D3CB7CC5763BD6DEDFD752B
:1002C0003EF6177231BF000000803F08000000BEFC
:1002D000922449123EABAAAA2ABECDCCCC4C3E00F9
:1002E000000080BEABAAAAAA3E00000000BF00002A
:1002F00000803F0000000000084178D3BB4387D155
:10030000133D190E3CC3BD4282AD2B3E68EC827694
:10031000BED98FE1A93E4C80EFFFBE01C4FF7F3FF5
:10032000000000000000361E3A1E241E2A1E301E49
:100330007F1E3E1E441E4A1E501E561E5C1E621E1E
:10034000681E7F1E6E1E741E7A1E00000A0B0209B4
:100350000C0D0E080703040100000000000000005F
:10036000000000000000000000000000000000008D
:10037000000000000000121110000000000000004A
:10038000000000000000000000000000000000006D
:100390000102102020080810204010204080020197
:1003A000020108040201010204081020408080407C
:1003B000201008040201800402018040201008047B
:1003C0000201080402010102040810204080010219
:1003D00004081020408005050505070508080808E1
:1003E000020202020A0A08080404040401010101CD
:1003F00001010101030303030303030304070707C8
:100400000C0C0C0C0C0C0C0C02020202060606066C
:10041000060606060B0B0B0B0B0B0B0B000020004C
:100420002300260029002C002F00320000010000CC
:1004300003010601090100002200250028002B000D
:100440002E003100340002010000050108010B01FB
:1004500000002100240027002A002D003000330076
:1004600001010000040107010A01BE0E3416E31B5E
:1004700011241FBECFEFD1E2DEBFCDBF00E00CBF25
:1004800012E0A0E0B2E0EAEEFFE300E00BBF02C042
:1004900007900D92AC3AB107D9F72AE0ACEAB2E086
:1004A00001C01D92A33AB207E1F714E0C0E7D4E01F
:1004B00000E006C022970109FE010BBF0E94CC1F7D
:1004C000CA36D10780E00807A9F70E94450E0C94B0
:1004D000F31F96CDCF92DF92EF92FF920F931F936F
:1004E000E82FF92F05C0015011092109310961F1E7
:1004F000908196239417B9F305C001501109210981
:10050000310911F1908196239413F7CFC12CD12C8E
:10051000E12CF12C0AC08FEFC81AD80AE80AF80AB1
:100520000C151D052E053F0579F080818623841763
:1005300091F36C2D7D2D8E2D9F2D1F910F91FF908E
:10054000EF90DF90CF90089560E070E080E090E061
:100550001F910F91FF90EF90DF90CF900895CF9370
:10056000DF93EC010E9455118091AC029091AD0295
:10057000892B31F481EB92E09093AD028093AC0231
:100580004091AE025091AF029E01240F351F2B3DCA
:1005900085E0380770F44217530770F4C091AC023D
:1005A000D091AD02C40FD51F3093AF022093AE029D
:1005B00005C0C0E0D0E002C0C0E0D0E00E94191247
:1005C000CE01DF91CF9108950895FC0183E08783E8
:1005D00012861186138608950F931F93CF93DF938E
:1005E000EC01062F142F688587EA99E00E94151602
:1005F000602F87EA99E00E94BC15612F87EA99E095
:100600000E94BC1587EA99E00E9431168E83DF9123
:10061000CF911F910F910895CF93DF93EC018F81BC
:10062000823021F440E069E3CE01D6DF40E063E2AE
:10063000CE01D2DF4FE660E2CE01CEDFDF91CF9177
:1006400008959F92AF92BF92CF92DF92EF92FF9266
:100650000F931F93CF93DF93EC01688587EA99E0AE
:100660000E941516E091A709F091A8090190F08168
:10067000E02D68EA87EA99E0199587EA99E00E94F7
:10068000311646E0688587EA99E00E9412160E94BA
:100690007A1D8B0110C089859A85892B61F00E9493
:1006A0007A1D601B710B89859A858617970718F448
:1006B00081E08B8732C087EA99E00E946215069735
:1006C00054F387EA99E00E946A15A82E87EA99E018
:1006D0000E946A15982E87EA99E00E946A15082FF1
:1006E00087EA99E00E946A15B82E87EA99E00E948D
:1006F0006A15182F87EA99E00E946A15D92CC12C37
:10070000CA28D982C882FB2CE12CE02AFB82EA822B
:10071000982F8827812B9D838C83DF91CF911F9108
:100720000F91FF90EF90DF90CF90BF90AF909F9090
:100730000895CF93DF93C62FD42F87EA99E00E94C4
:1007400015166D2F87EA99E00E94BC1587EA99E09B
:100750000E943116811111C041E06C2F87EA99E0A7
:100760000E94121687EA99E00E946215892B41F0D7
:1007700087EA99E00E946A1505C08FEF9FEF02C0DB
:100780008FEF9FEFDF91CF9108950F931F93CF933A
:10079000DF93EC01162F042F633009F456C042306A
:1007A000C9F556C0133009F058C0873D910509F4CA
:1007B00058C001E011E02CC0013091F04FE06AE632
:1007C000CE01B7DF8F3F2FEF920751F0133009F0C2
:1007D00046C0873D910509F047C000E012E018C00F
:1007E000133011F0111114C0002349F04FE069E6F5
:1007F000CE019FDF833D9105D1F1013039F04FE00B
:1008000068E6CE0196DF833D910599F11330B9F08A
:100810000230B9F01F83112351F01330A0F40130DE
:1008200011F48BE601C08AE6888781E041C001307F
:1008300011F489E601C088E6888781E039C080E04C
:1008400037C080E035C081E033C0442341F11EC091
:100850008FEF860F833030F60FC001E0C3CF00E08A
:10086000C1CF01E012E0D4CF00E011E0D1CF01E030
:1008700001C000E01F82DBCF4FE06BE6CE0159DF05
:100880008F3F2FEF920709F08DCF98CF4FE06BE6A7
:1008900050DF8F3F2FEF920709F087CF8DCF4FE0CA
:1008A0006AE647DF8F3F2FEF920709F092CF98CF8C
:1008B000DF91CF911F910F910895FC0103969283D0
:1008C00081832FEF3FEF3483238396838583908743
:1008D000878310820895FC01118610860895CF93B6
:1008E000DF939C01FB01DC011196CD91DC91129705
:1008F000D383C2838C819D81958384838C819D81E8
:10090000DC0113967C936E9312977D836C83318701
:100910002087F90180818F5F8083DF91CF910895D7
:10092000CF93DF93EB01488159814F3F2FEF52075F
:1009300021F4FC01A781B0850DC0DC01139612964D
:10094000ED91FC911397208131814217530710F0EC
:10095000DF01F5CF1296ED91FC911397FB83EA83AB
:10096000D583C483BD83AC831396DC93CE93129757
:1009700099878887FC0120812F5F2083DF91CF91A9
:100980000895CF93DF93FC01A085B185C281D38107
:10099000848195819D838C83C481D581828193815B
:1009A0009B838A831196CD91DC911297CE17DF0736
:1009B00031F48C819D8112969C938E9311971186B0
:1009C00010868C9181508C93DF91CF910895CF93B5
:1009D000DF93EC0186E0E9E0F2E0DE01529601905F
:1009E0000D928A95E1F786E0EFE0F2E0DE011C96D9
:1009F00001900D928A95E1F784E0898F1CA21BA2D9
:100A00001DA2DF91CF9108954F925F926F927F92D6
:100A10008F929F92AF92BF92CF92DF92EF92FF920E
:100A20000F931F93CF93DF9300D01F92CDB7DEB704
:100A30008C01DC014D905D906D907C901397149625
:100A40008D909D90AD90BC90179718968D919D912B
:100A50000D90BC91A02D89839A83AB83BC83A301A5
:100A60009201C301B2010E947A186B017C01A501B9
:100A70009401C501B4010E947A189B01AC01C70121
:100A8000B6010E9439166B017C0129813A814B81A4
:100A90005C81CA01B9010E947A189B01AC01C701AF
:100AA000B6010E9439160E942D196B017C019B0131
:100AB000AC01C301B2010E940317F8016083718386
:100AC00082839383A7019601C501B4010E94031795
:100AD000D80114966D937D938D939C931797A701DE
:100AE000960169817A818B819C810E940317F801AC
:100AF00060877187828793870F900F900F900F9078
:100B0000DF91CF911F910F91FF90EF90DF90CF90E9
:100B1000BF90AF909F908F907F906F905F904F901D
:100B200008954F925F926F927F928F929F92AF92B1
:100B3000BF92CF92DF92EF92FF920F931F93CF93CA
:100B4000DF93CDB7DEB7AA970FB6F894DEBF0FBE1E
:100B5000CDBF8C01298F3A8F4B8F5C8F6D8F7E8F2D
:100B6000DC011696CD90DC901797EE24D7FCE0942C
:100B7000FE2C52964D915C915397662757FD6095D8
:100B8000762F1C968D919C911D97AA2797FDA09575
:100B9000BA2F480F591F6A1F7B1FDB01CA01772339
:100BA0001CF40196A11DB11DB595A7959795879544
:100BB000A7019601281B390B4A0B5B0B2F8F38A31B
:100BC00049A35AA3D8011896CD90DC901997EE242A
:100BD000D7FCE094FE2C54964D915C915597662776
:100BE00057FD6095762F1E968D919C911F97AA2791
:100BF00097FDA095BA2F480F591F6A1F7B1FDB0175
:100C0000CA0177231CF40196A11DB11DB595A795C6
:100C100097958795A7019601281B390B4A0B5B0B0B
:100C20002BA33CA34DA35EA3D8011A964D905C90D4
:100C30001B97662457FC6094762C56964D915C91D8
:100C40005797662757FD6095762F50968D919C910A
:100C50005197AA2797FDA095BA2F480F591F6A1FD1
:100C60007B1FDB01CA0177231CF40196A11DB11D76
:100C7000B595A79597958795481A590A6A0A7B0AE8
:100C8000F80184809580AA2497FCA094BA2C8281D4
:100C900093819C01442737FD4095542F2FA338A7FB
:100CA00049A75AA72BA13CA14DA15EA1C501B40142
:100CB0000E945C1F6B017C01A30192016FA178A5CA
:100CC00089A59AA50E945C1FA7019601261B370BD8
:100CD000480B590BCA01B9010E949E176D877E8788
:100CE0008F87988BD801CD90DC90EE24D7FCE094D0
:100CF000FE2CA3019201C701B6010E945C1F2B01CB
:100D00003C012F8D38A149A15AA1C501B4010E940F
:100D10005C1FA3019201261B370B480B590BCA011C
:100D2000B9010E949E17698B7A8B8B8B9C8B2F8DC0
:100D300038A149A15AA16FA178A589A59AA50E94B9
:100D40005C1F4B015C012BA13CA14DA15EA1C70121
:100D5000B6010E945C1FA5019401261B370B480BAE
:100D6000590BCA01B9010E949E176D8B7E8B8F8B28
:100D7000988FCE010D9648DED80112966D917C9128
:100D80001397882777FD8095982F0E949E176B01F7
:100D90007C012D893E894F89588D2F8F38A349A317
:100DA0005AA3D80114966D917C911597882777FDE9
:100DB0008095982F0E949E172B013C0129893A8922
:100DC0004B895C892BA33CA34DA35EA32F8D38A137
:100DD00049A15AA1C701B6010E947A184B015C01D2
:100DE0002BA13CA14DA15EA1C301B2010E947A18C2
:100DF0009B01AC01C501B4010E94381669837A8356
:100E00008B839C838D859E85AF85B8898FA398A79A
:100E1000A9A7BAA7D8016D917C91882777FD809505
:100E2000982F0E949E174B015C012FA138A549A560
:100E30005AA5C301B2010E947A182B013C01A501F9
:100E400094016F8D78A189A19AA10E947A189B01C3
:100E5000AC01C301B2010E9438166D837E838F837B
:100E60009887A50194016BA17CA18DA19EA10E94F0
:100E70007A184B015C012FA138A549A55AA5C701D5
:100E8000B6010E947A189B01AC01C501B4010E9411
:100E9000381669877A878B879C87CE010196B4DDE7
:100EA000698D7A8D882777FD8095982F0E949E17EF
:100EB0002B013C016B8D7C8D882777FD8095982FC9
:100EC0000E949E174B015C016D8D7E8D882777FDFA
:100ED0008095982F0E949E176B017C0129813A8191
:100EE0004B815C81C301B2010E947A186F8F78A395
:100EF00089A39AA32D813E814F815885C501B401F4
:100F00000E947A189B01AC016F8D78A189A19AA1EA
:100F10000E9439166F8F78A389A39AA329853A85F1
:100F20004B855C85C701B6010E947A189B01AC0114
:100F30006F8D78A189A19AA10E9439166F8F78A32D
:100F400089A39AA32D853E854F855889C301B20197
:100F50000E947A182B013C0129893A894B895C89C6
:100F6000C501B4010E947A189B01AC01C301B20112
:100F70000E9439164B015C012D893E894F89588D9D
:100F8000C701B6010E947A189B01AC01C501B401EA
:100F90000E9439162F8D38A149A15AA10E94AC1682
:100FA00020E030E044E353E40E947A182BED3FE068
:100FB00049E450E40E9403176B017C0120E030E01B
:100FC000A9010E94FF16882354F420E030E044EB8E
:100FD00053E4C701B6010E9439166B017C01C701B9
:100FE000B601AA960FB6F894DEBF0FBECDBFDF9153
:100FF000CF911F910F91FF90EF90DF90CF90BF9016
:10100000AF909F908F907F906F905F904F900895DA
:10101000CF93DF93CDB7DEB72C970FB6F894DEBF32
:101020000FBECDBFFC01218D233079F431E0232F99
:101030003F8318861A8619861C861B8630E040E09E
:101040005A8560E07C856DDD0EC01A8219822FEF13
:10105000422F2B832C831E821D8220E03A815FEF7A
:1010600060E07E815EDD2C960FB6F894DEBF0FBE89
:10107000CDBFDF91CF9108950F931F93CF93DF934F
:10108000EC01062F142F6A8D87EA99E00E9415164D
:10109000602F87EA99E00E94BC15612F87EA99E0EA
:1010A0000E94BC1587EA99E00E943116888FDF9173
:1010B000CF911F910F9108950F931F93CF93DF93BB
:1010C000EC01062F142F6B8D87EA99E00E9415160C
:1010D000602F87EA99E00E94BC15612F87EA99E0AA
:1010E0000E94BC1587EA99E00E943116888FDF9133
:1010F000CF911F910F910895FC01218D233011F0A4
:10110000603210F4D9CF0895B7CF0895CF93DF930D
:10111000EC01898D8330A9F440E061E2CE01ECDF7F
:1011200047E560E2CE01E8DF44E664E2CE01E4DFB9
:1011300040E265E2CE01E0DF40E066E2CE01DCDFC6
:101140001FC0823049F448E063E2CE0195DF47E4F6
:1011500060E2CE0191DF08C040E063E2CE018CDFA7
:1011600047E260E2CE0188DF4CE060E0CE01A4DF20
:1011700040E261E0CE01A0DF40E062E0CE019CDF12
:10118000DF91CF9108959F92AF92BF92CF92DF925D
:10119000EF92FF920F931F93CF93DF93EC016A8D31
:1011A00087EA99E00E941516E091A709F091A80935
:1011B0000190F081E02D68EA87EA99E0199587EAC5
:1011C00099E00E943116888F46E06A8D87EA99E09F
:1011D0000E9412160E947A1D8B0110C08BA19CA147
:1011E000892B61F00E947A1D601B710B8BA19CA161
:1011F0008617970718F481E08DA332C087EA99E03B
:101200000E946215069754F387EA99E00E946A15D6
:10121000A82E87EA99E00E946A15982E87EA99E03D
:101220000E946A15082F87EA99E00E946A15B82E75
:1012300087EA99E00E946A15182F87EA99E00E94D0
:101240006A15D92CC12CCA28D982C882FB2CE12C62
:10125000E02AFB82EA82982F8827812B9D838C834A
:10126000DF91CF911F910F91FF90EF90DF90CF9082
:10127000BF90AF909F900895CF92DF92EF92FF9230
:101280000F931F93CF93DF93EC016B8D87EA99E067
:101290000E941516898D833031F46E8D772767FD96
:1012A0007095606804C06D8D772767FD7095E0913B
:1012B000A709F091A8090190F081E02D87EA99E053
:1012C000199587EA99E00E943116888F46E06B8D68
:1012D00087EA99E00E9412160E947A1D8B0110C0C5
:1012E0008BA19CA1892B61F00E947A1D601B710B60
:1012F0008BA19CA18617970718F481E08DA36EC07F
:1013000087EA99E00E946215069754F3898D83302D
:10131000F9F487EA99E00E946A15C82E87EA99E0F5
:101320000E946A15D82E87EA99E00E946A15E82E75
:1013300087EA99E00E946A15F82E87EA99E00E94F0
:101340006A15082F87EA99E00E946A15182F36C09F
:1013500087EA99E00E946A15D82E87EA99E00E94F0
:101360006A15C82E898D811115C087EA99E00E94FF
:101370006A15F82E87EA99E00E946A15E82E87EA36
:1013800099E00E946A15182F87EA99E00E946A1571
:10139000082F14C087EA99E00E946A15182F87EA7F
:1013A00099E00E946A15082F87EA99E00E946A1561
:1013B000F82E87EA99E00E946A15E82E6C2D70E0FD
:1013C0007D297F836E834E2D50E05F2959874887A2
:1013D000202F30E0C901912B9B878A87DF91CF9125
:1013E0001F910F91FF90EF90DF90CF900895CF93D2
:1013F000DF93EC01C8DECE013FDFDF91CF9108958E
:10140000CF93DF93C62FD42F87EA99E00E94151659
:101410006D2F87EA99E00E94BC1587EA99E00E9447
:101420003116811111C041E06C2F87EA99E00E94CA
:10143000121687EA99E00E946215892B41F087EA2B
:1014400099E00E946A1505C08FEF9FEF02C08FEFF1
:101450009FEFDF91CF9108950F931F93CF93DF9369
:10146000EC01162F042F643009F4ADC0423009F0AE
:1014700047C0ADC04FE06DE1CE01C2DF89349105B8
:1014800009F4ABC0013041F04FE06EE1CE01B8DFAE
:101490008934910509F4A3C0143011F0133068F5B4
:1014A0000023A9F040E269E1CE01AADF019669F0CC
:1014B000143009F099C04FE06EE1CE01A1DFCC9766
:1014C00009F094C001E012E01BC0013099F040E245
:1014D00068E1CE0195DF019669F0143009F089C00A
:1014E0004FE06EE1CE018CDF11E0CC9709F010E007
:1014F00000E006C0143009F460C0023009F45FC097
:10150000198F113071F108F442C01230C1F013305C
:1015100009F057C0013011F48DE101C08EE18B8FCD
:101520008A8F88E08E8F89E08D8F8AE088A38BE098
:101530008F8F8CE08AA38DE089A381E064C089E16C
:101540008A8F8EE18B8F83E08D8F84E08E8F87E092
:101550008F8F88E088A385E089A386E08AA381E055
:1015600052C0013011F489E101C088E18A8F8EE117
:101570008B8F83E08D8F84E08E8F87E08F8F88E064
:1015800088A385E089A386E08AA381E03CC001307E
:1015900011F489E101C088E18A8F8EE18B8F83E0AD
:1015A0008D8F84E08E8F85E08F8F86E088A387E023
:1015B00089A388E08AA381E026C080E024C080E07F
:1015C00022C081E020C0442309F45ECF53CF8DEFC9
:1015D000860F823008F062CF0EC001E003C000E049
:1015E00001C001E013E089CF01E08ACF01E010E003
:1015F00087CF00E085CF4FE06DE1CE0101DF893478
:10160000910579F341CFDF91CF911F910F9108950B
:1016100031E1FC013083319722E220833197A3E34B
:10162000A08331976083319770833197108231970F
:101630001082319760E86083319710823197108271
:1016400031971082319762E06083319763E0608365
:10165000319764E06083319765E06083319766E09D
:101660006083319767E06083319768E060833197EA
:1016700069E06083319760E160833197308331970F
:1016800032E13083319733E13083319734E1308375
:10169000319735E13083319736E13083319737E147
:1016A0003083319738E13083319739E13083319796
:1016B00030E23083319731E23083319720833197A4
:1016C00023E220833197408331975083319726E27C
:1016D0002083319727E22083319728E220833197B6
:1016E00029E22083319720E32083319721E320836F
:1016F0008997089582E08093B0001092B20080E351
:101700008093B300E0E7F0E080818260808384E032
:101710008093B100A0913709B0913809CD91CDBF28
:10172000DD91DEBFFF91EF91DF91CF91BF91AF913E
:101730009F918F917F916F915F914F913F912F91E9
:101740001F910F91FF90EF90DF90CF90BF90AF90DF
:101750009F908F907F906F905F904F903F902F90D1
:101760001F900F900CBE0F900BBE0F900FBE0F90EE
:10177000089581E008950F920FB6F8940F920CB679
:101780000F920BB60F921F9211242F923F924F92FD
:101790005F926F927F928F929F92AF92BF92CF9201
:1017A000DF92EF92FF920F931F932F933F934F93EC
:1017B0005F936F937F938F939F93AF93BF93CF93D9
:1017C000DF93EF93FF93A0913709B09138090DB6DD
:1017D0000D920EB60D9203D7A0913709B09138093A
:1017E000CD91CDBFDD91DEBFFF91EF91DF91CF9124
:1017F000BF91AF919F918F917F916F915F914F9129
:101800003F912F911F910F91FF90EF90DF90CF901C
:10181000BF90AF909F908F907F906F905F904F9010
:101820003F902F901F900F900CBE0F900BBE0F900B
:101830000FBE0F9008950F920FB6F8940F920CB64A
:101840000F920BB60F921F9211242F923F924F923C
:101850005F926F927F928F929F92AF92BF92CF9240
:10186000DF92EF92FF920F931F932F933F934F932B
:101870005F936F937F938F939F93AF93BF93CF9318
:10188000DF93EF93FF93A0913709B09138090DB61C
:101890000D920EB60D920FD58111A1D6A0913709E8
:1018A000B0913809CD91CDBFDD91DEBFFF91EF91B1
:1018B000DF91CF91BF91AF919F918F917F916F9168
:1018C0005F914F913F912F911F910F91FF90EF905A
:1018D000DF90CF90BF90AF909F908F907F906F9050
:1018E0005F904F903F902F901F900F900CBE0F90E5
:1018F0000BBE0F900FBE0F9008959DDF1895CCE999
:10190000D8E080EA98E00AD39983888388EE93E050
:1019100011D6F7CFC2E0D2E004E012E00F2EFEE8CD
:10192000EF2EF8E0FF2EF02DC0D460E088810E94F9
:10193000BE1E85E090E00E94861D61E088810E94C5
:10194000BE1E8AE090E00E94861D60E088810E94B1
:10195000BE1E60E0F80180810E94801E20E432E417
:101960004FE050E061E0F80180810E94EE1E9B0193
:10197000772314F42F5F3F4FB9017595679588273A
:1019800077FD8095982F0E949E172DEC3CEC48EE39
:1019900051E40E9403170E946B17F7017183608363
:1019A00048D588E893E1C6D5BFCF0F2EFCEBAF2E0C
:1019B000F8E0BF2EF02D0EEB18E0C0E9D8E00F2EB6
:1019C000F2E98F2EF8E09F2EF02D0F2EF4E92F2E46
:1019D000F8E03F2EF02D8AEB98E009DDF5016081FB
:1019E0007181882777FD8095982F0E949E1720E0AF
:1019F00030E04AE754E40E94031720E030E044E777
:101A000052E40E947A182FE632E143E85AE30E943A
:101A10007A182DEC3CEC4CE151E40E947A180E94BB
:101A20006B172B013C01F80160817181882777FDDC
:101A30008095982F0E949E1720E030E04AE754E4FA
:101A40000E94031720E030E044E752E40E947A1835
:101A50002FE632E143E85AE30E947A182DEC3CEC81
:101A60004CE151E40E947A180E946B176B017C01D3
:101A70008091BA089091BB08BC01882777FD8095BA
:101A8000982F0E949E1720E030E04AE754E40E941D
:101A9000031720E030E044E752E40E947A182FE672
:101AA00032E143E85AE30E947A182DEC3CEC4CE119
:101AB00051E40E947A180E946B1779836883F401BD
:101AC00051824082F101D182C08288EE93E032D50A
:101AD00082CF0F2EF0EBAF2EF8E0BF2EF02D02EBF1
:101AE00018E0C6E9D8E00F2EF8E98F2EF8E09F2E17
:101AF000F02D0F2EFAE92F2EF8E03F2EF02D8EEA72
:101B000098E00E942103F50160817181882777FDAB
:101B10008095982F0E949E1720E030E04CE051E421
:101B20000E947A1820E030E04AE754E40E9403174C
:101B30000E946B172B013C01F8016081718188279D
:101B400077FD8095982F0E949E1720E030E04CE0B2
:101B500051E40E947A1820E030E04AE754E40E9401
:101B600003170E946B176B017C018091AE08909166
:101B7000AF08BC01882777FD8095982F0E949E179B
:101B800020E030E04CE051E40E947A1820E030E0A0
:101B90004AE754E40E9403170E946B177983688315
:101BA000F40151824082F101D182C08288EE93E03B
:101BB000C1D4A5CFCEE9D8E078D38AEB98E017DC82
:101BC0008AEB98E025DA0E946B177983688331D419
:101BD00088E893E1AFD4F0CFCF93DF931F921F92A9
:101BE000CDB7DEB780919F0A9091A00A009711F0BF
:101BF0009C0102C023EA3AE0CE010196821B930BBE
:101C00000F900F90DF91CF91089526E040E855E2C4
:101C100060E070E089EF99E00E94171B87EA99E085
:101C2000EBD742E064E08AEB98E016DC8AEB98E0C0
:101C30006DDA86E0E5E1F2E0ACECB8E001900D92FF
:101C40008A95E1F786E0EBE1F2E0A6ECB8E00190DE
:101C50000D928A95E1F742E063E08EEA98E00E94F7
:101C6000C5038EEA98E00E940C0361E080910202B5
:101C70000E94801E60E0809104020E94801E60E04D
:101C8000809100020C94801E0895AF92BF92CF9273
:101C9000DF92EF92FF920F93CF93DF93CDB7DEB732
:101CA0002C970FB6F894DEBF0FBECDBF0E94911DDA
:101CB000ACDFA12CB12CC12CD12CCE010B967C0118
:101CC0000AE020E030E040EA50E061E272E086EDB8
:101CD0009EE0BAD1CE0109967C0104E020E030E01C
:101CE00040EA50E068E272E089E69DE0ADD1CE01C5
:101CF00007967C0108E020E030E040EA50E067E32E
:101D000072E085ED9CE0A0D1CE0105967C0107E054
:101D100020E030E040EA50E06AE472E08FE79CE0C7
:101D200093D1CE0103967C0106E020E030E040EA4A
:101D300050E068E572E08AED9DE086D1CE01019623
:101D40007C0105E020E030E040EA50E065E672E02A
:101D50008AE89CE079D180D280E090E02C960FB6A2
:101D6000F894DEBF0FBECDBFDF91CF910F91FF90F2
:101D7000EF90DF90CF90BF90AF9008950F931F9397
:101D80008AEB98E00E94E7048EEA98E00E94E50260
:101D900006EB1EE42DE530E049E150E066E370E03B
:101DA00080EA98E037D01F910F910895C0E30F2E7D
:101DB000FEE8EF2EF8E0FF2EF02D00EA18E089EFA4
:101DC00099E00E94621A892B29F089EF99E00E941C
:101DD0007B1AC82FC033D1F0E701699179914AE0AD
:101DE00050E089EF99E00E941A1D6DE089EF99E0BB
:101DF0000E94541CC017D10781F7EEDE4AE050E084
:101E0000BC0189EF99E00E941A1DC0E388EE93E0BF
:101E100091D3D5CF0F931F93FC01C90171836083C8
:101E20005583448364E670E00E946B1F7587648766
:101E30001383028381E00E94F31D1F910F91089587
:101E40008F929F92AF92BF92CF92DF92EF92FF92CA
:101E50000F931F93CF93DF93EC0188810E94F61DAF
:101E6000BC01882777FD8095982F1F921F9223E150
:101E70002F9328E82F93A12CB12C6501EE24EA942E
:101E800013E0F12E00E010E020E030E0A9010E9414
:101E90001D1F0E949E172A813B810F900F900F906B
:101EA0000F90283344E03407A9F420E030E04AE7FB
:101EB00054E4A9D72EE03DE24AE95FEB0E94DD1829
:101EC00022EF32ED4DED51E40E947A180E946B171B
:101ED0004B0116C0263B3E4499F420E030E04AE72F
:101EE00054E491D72FE93BEA4DE85FEB0E94DD18FF
:101EF00021EC3AE446E752E40E947A18ECD74B0111
:101F0000C401DF91CF911F910F91FF90EF90DF906F
:101F1000CF90BF90AF909F908F9008950F931F9395
:101F2000CF93DF93EC011F821E82198618868C8165
:101F30009D811816190634F500E010E0CE0180DF0F
:101F40006C857D854A855B85649F9001659F300D1A
:101F5000749F300D1124821793076CF09B878A873A
:101F600028853985820F931F998788878E819F8165
:101F700001969F838E830F5F1F4F8C819D81081771
:101F80001907E4F2888599856E817F810E946B1F15
:101F9000CB01DF91CF911F910F910895E091FF0840
:101FA000F09100098081811107C08FEF9FEF90931E
:101FB0000702809306020895E091FF08F09100095E
:101FC0000580F681E02D0680F781E02D82819381E6
:101FD00090930702809306020895CF93DF93EC015C
:101FE000E0913709F0913809938382838091E70863
:101FF0009091E808C817D90768F460913709709183
:1020000038098091FD089091FE086E5F7F4F0E9415
:10201000900417C060913709709138098091FF08CA
:10202000909100096E5F7F4F0E949004809106029C
:1020300090910702C817D90720F4D0930702C093E4
:102040000602DF91CF9108954F925F926F927F9237
:102050008F929F92AF92BF92CF92DF92EF92FF92B8
:102060000F931F93CF93DF934C015B012A0139013A
:1020700081E290E00E94AF02EC01009709F4DAC01F
:10208000C114D10409F0BFC0C2010E94AF02988FF1
:102090008F8B892B09F0B9C0CE010E94E402CAC01F
:1020A000CF013191DA013D93AD01DC018C918823A0
:1020B00011F02150A9F718A2102F043008F013E0F6
:1020C0001E8B5E01B2E0AB0EB11CC5010E946B0419
:1020D000CE010C960E946B04D987C88784E090E0FB
:1020E000811B91099D878C87DB8BCA8BA301B4016F
:1020F000C6018EDA99838883E114F10419F0F7019F
:10210000D183C0830FB6F8940F928091E9088F5F56
:102110008093E9088091370990913809892BA9F5B6
:10212000D0933809C09337098091E9088130E1F5EF
:1021300083E199E00E945D048CE199E00E945D04D6
:1021400085E299E00E945D048EE299E00E945D04C0
:102150008AE099E00E945D0481E099E00E945D04BC
:1021600084EF98E00E945D048BEE98E00E945D048D
:102170008AE099E0909300098093FF0881E099E05C
:102180009093FE088093FD080FC08091E5088111AF
:102190000BC0E0913709F09138098689081720F0C3
:1021A000D0933809C09337098091E1088F5F8093FD
:1021B000E1088E899091E608981710F48093E6085C
:1021C00090E09C01220F331F220F331F220F331F79
:1021D000820F931FB5018D5E964F0E946F040F9082
:1021E0000FBE8091E508882351F0E0913709F09106
:1021F00038098689801728F4BEDA81E01CC081E0A6
:102200001AC081E018C0D88ECF8AF1E04F1A510869
:10221000CF88D88CC40CD51CD5018C91898F8C911A
:10222000882309F448CFAE01465E5F4FF501319631
:1022300027E036CF8FEFDF91CF911F910F91FF9065
:10224000EF90DF90CF90BF90AF909F908F907F9056
:102250006F905F904F900895AF92BF92CF92DF92B0
:10226000EF92FF920F93A12CB12CC12CD12CE12C19
:10227000F12C00E020E030E045E550E065E772E059
:1022800086EB92E1E1DE813041F4F8948093E50839
:102290001092E8081092E7082DDA0F91FF90EF9066
:1022A000DF90CF90BF90AF9008958091E0088F5F4E
:1022B0008093E0080895CF92DF92EF92FF920F9300
:1022C0001F93CF93DF938091E008811199C0809193
:1022D000E7089091E80801969093E8088093E70852
:1022E000E090E708F090E808E114F104B1F480917F
:1022F000FF08909100092091FD083091FE0830936D
:1023000000092093FF089093FE088093FD088091B8
:10231000E2088F5F8093E20841DE8091060290918F
:102320000702E816F90608F454C0D12CCC24C39453
:1023300001C0DC2CE091FF08F0910009808181113F
:1023400007C08FEF9FEF909307028093060242C071
:10235000E091FF08F09100090580F681E02DC6812B
:10236000D7812A813B81E216F30628F430930702D5
:10237000209306022FC08E010E5F1F4FC8010E94DE
:10238000C1048C899D89892B21F0CE010C960E9475
:10239000C1042E898091E608821710F42093E60884
:1023A00030E0C901880F991F880F991F880F991F66
:1023B000820F931FB8018D5E964F0E946F04E091CB
:1023C0003709F09138099E898689981708F0B1CFAE
:1023D000B1CFD12CE0913709F0913809868990E08E
:1023E000FC01EE0FFF1FEE0FFF1FEE0FFF1F8E0F02
:1023F0009F1FFC01ED5EF64F8081823040F409C0E2
:102400008091E4088F5F8093E408D12C02C0DD2422
:10241000D3948091E308882311F0DD24D3948D2D8B
:10242000DF91CF911F910F91FF90EF90DF90CF90B0
:102430000895DF92EF92FF920F931F93CF93DF9354
:102440000FB6F8940F928091E00881508093E008D5
:102450008091E00881115FC08091E908882309F428
:102460005CC00F2EF4EFEF2EF8E0FF2EF02DDD24F0
:10247000D39430C0E091F908F091FA08C681D78171
:10248000CE010C960E94C1048E010E5F1F4FC80141
:102490000E94C1048E899091E608981710F48093E9
:1024A000E60890E09C01220F331F220F331F220FFA
:1024B000331F820F931FB8018D5E964F0E946F04E9
:1024C000E0913709F09138099E898689981710F0B4
:1024D000D092E308F70180818111CCCF8091E4088C
:1024E000882391F08091E408882371F0C1E0E3DE55
:1024F0008111C093E3088091E40881508093E4083F
:102500008091E4088111F3CF8091E308813039F4A0
:1025100032D981E005C080E003C080E001C080E0E6
:102520000F900FBEDF91CF911F910F91FF90EF9011
:10253000DF900895CF93DF93EC01009799F0B5DE1B
:102540008091E7089091E808C80FD91F809137095A
:102550009091380902960E94C104CE013EDD69DFE8
:10256000811101C008D9DF91CF9108950F2EF3E1B9
:10257000EF2EF9E0FF2EF02DCBEED8E026C095DE51
:10258000188157DF112309F10FB6F8940F92E091EB
:10259000F008F091F10806811781C80102960E94A7
:1025A000C1048091E90881508093E9088091EA088C
:1025B00081508093EA080F900FBEF8018789908DB3
:1025C0000E94E402C8010E94E4028091EA0881119D
:1025D000D6CFF70180818230C0F3CDD8F6CF80917D
:1025E000E008882321F081E08093E30808951092A9
:1025F000E3088091E60890E0FC01EE0FFF1FEE0F6C
:10260000FF1FEE0FFF1F8E0F9F1FFC01ED5EF64FA9
:102610008081811117C08091E60881508093E6087F
:102620008091E60890E0FC01EE0FFF1FEE0FFF1F08
:10263000EE0FFF1F8E0F9F1FFC01ED5EF64F808196
:10264000882349F3E091E608F0E0CF01880F991F55
:10265000880F991F880F991FE80FF91FED5EF64F3D
:10266000A181B28112960D90BC91A02DB283A1835D
:10267000CF010396A817B90731F412968D919C915A
:102680001397928381830180F281E02D8681978167
:10269000909338098093370908951092A60981E034
:1026A0008093A4091092A30961E084E10E94BE1EF8
:1026B00061E085E10E94BE1EE9EBF0E080818E7F43
:1026C000808380818D7F80838DEF8093B80085E447
:1026D0008093BC000895413208F045C09091A6094E
:1026E0009111FCCF91E09093A6092093A4092FEFBC
:1026F0002093390910927E09240F20937D0990932D
:10270000A5099091A509880F892B8093A50980912F
:10271000A309813051F41092A3098091A5098093F7
:10272000BB0085EC8093BC0003C085EE8093BC00A9
:102730008091A6098130E1F380917E09841710F41D
:1027400040917E09442389F0EFE7F9E0A62FB72FE7
:102750002FEF240F30E02058364F91919D93E217D0
:10276000F307D9F704C080E00895842F0895842FDB
:1027700008950F93413208F050C09091A60991112D
:10278000FCCF92E09093A6090093A4099FEF909349
:10279000390910927E0940937D09442369F0FB01B9
:1027A000AFE7B9E06F5F7F4F4150640F711D9191AA
:1027B0009D93E617F707D9F71092A5099091A509FF
:1027C000880F892B8093A5098091A309813051F44A
:1027D0001092A3098091A5098093BB0085EC80939A
:1027E000BC0003C085EE8093BC00222341F08091A1
:1027F000A609823021F48091A6098230E1F380910C
:1028000039098F3F61F080913909803251F0809110
:102810003909803341F483E007C081E005C080E0DE
:1028200003C082E001C084E00F9108956132A8F4F2
:102830002091A609243099F460935B09662389F0FE
:10284000FC01ADE5B9E001966150860F911D219123
:102850002D93E817F907D9F706C081E0089582E0C3
:10286000089580E0089580E0089585ED8093BC0090
:10287000ECEBF0E0808184FDFDCF1092A609089575
:1028800085EC8093BC001092A60908951F920F92C8
:102890000FB60F9211240BB60F922F933F934F93C5
:1028A0005F936F937F938F939F93AF93BF93EF93B8
:1028B000FF938091B900887F90E0893C910508F0F2
:1028C000EEC0FC01EE58FF4F0C94BC1F8091A5098F
:1028D0008093BB0085EC8093BC00E1C090917E09A1
:1028E00080917D09981780F4E0917E0981E08E0F38
:1028F00080937E09F0E0E158F64F80818093BB0021
:1029000085EC8093BC00CBC08091A409882311F092
:10291000ACDFC5C081E08093A30984EA8093BC004A
:102920001092A609BCC080E2809339099EDFB7C02F
:1029300080E38093390999DFB2C088E38093390935
:102940009FDFADC0E0917E0981E08E0F80937E090C
:102950008091BB00F0E0E158F64F808390917E09B2
:1029600080917D09981720F485EC8093BC0097C076
:1029700085E88093BC0093C0E0917E0981E08E0FD2
:1029800080937E098091BB00F0E0E158F64F808390
:102990008091A409882311F068DF81C081E08093D1
:1029A000A30984EA8093BC001092A60978C05DDF79
:1029B00076C083E08093A60910923A0985EC809353
:1029C000BC006DC080913A09803280F4E0913A09F0
:1029D00081E08E0F80933A098091BB00F0E0E55CC6
:1029E000F64F808385EC8093BC0059C085E88093C6
:1029F000BC0055C080913A09803230F4E0913A0928
:102A0000F0E0E55CF64F108230DF60913A0970E04B
:102A1000E0919F09F091A0098BE399E0199510923C
:102A20003A092EDF3CC085E88093BC0038C084E0C2
:102A30008093A60910925C0910925B09E091A109AC
:102A4000F091A209199580915B09811105C081E07F
:102A500080935B0910925D09E0915C0981E08E0F23
:102A600080935C09F0E0E35AF64F80818093BB00CD
:102A700090915C0980915B09981720F485EC809314
:102A8000BC000DC085E88093BC0009C085EC809334
:102A9000BC001092A60903C010923909E6DEFF912E
:102AA000EF91BF91AF919F918F917F916F915F91C6
:102AB0004F913F912F910F900BBE0F900FBE0F9033
:102AC0001F9018958091D70990E02091D809821B1A
:102AD000910908952091D8098091D709281750F4B9
:102AE000E22FF0E0E752F64F808190E02F5F2093D5
:102AF000D80908958FEF9FEF0895E091D80980914C
:102B0000D709E81730F4F0E0E752F64F808190E003
:102B100008958FEF9FEF08950895CF92DF92EF927F
:102B2000FF920F931F93CF93DF938C017B016A0178
:102B30008091B309882399F04115510599F0EB0173
:102B4000E40EF51E6991D801ED91FC910190F081A0
:102B5000E02DC8011995CE15DF05A1F703C0642F3C
:102B6000C70164DEC601DF91CF911F910F91FF90E5
:102B7000EF90DF90CF900895CF93DF931F92CDB762
:102B8000DEB769832091B3092223E1F02091B409D3
:102B9000203240F021E030E0FC013383228380E0EA
:102BA00090E016C08091B509E82FF0E0EA54F64FA6
:102BB000998190838F5F8093B5098093B40981E0F8
:102BC00090E006C061E0CE01019630DE81E090E049
:102BD0000F90DF91CF910895FC011382128248EE8D
:102BE00053E060E070E044835583668377838EE72B
:102BF00092E09183808308951092D8091092D709AA
:102C00001092B5091092B40948CD0895862F41322B
:102C100008F040E269ED79E05EDD1092D80980931A
:102C2000D709089521E0F2CF089581E08093B30998
:102C30006093D6091092B5091092B40908950F93C4
:102C4000062F21E04091B40966EB79E08091D60926
:102C500090DD1092B5091092B4091092B3090F914A
:102C6000089561E0ECCF089587EA99E0B5CF089523
:102C70005058BB27AA270ED0FCC1EDD130F0F2D1BD
:102C800020F031F49F3F11F41EF4BDC10EF4E09525
:102C9000E7FBB3C1E92FFED180F3BA1762077307D0
:102CA0008407950718F071F49EF516C20EF4E095AE
:102CB0000B2EBA2FA02D0B01B90190010C01CA01F6
:102CC000A0011124FF27591B99F0593F50F4503EA1
:102CD00068F11A16F040A22F232F342F4427585F93
:102CE000F3CF469537952795A795F0405395C9F7AB
:102CF0007EF41F16BA0B620B730B840BBAF0915063
:102D0000A1F0FF0FBB1F661F771F881FC2F70EC001
:102D1000BA0F621F731F841F48F4879577956795D4
:102D2000B795F7959E3F08F0B3CF9395880F08F0BD
:102D30009927EE0F9795879508958DD158F080E8E3
:102D400091E009F49EEF8ED128F040E851E059F46B
:102D50005EEF09C058C1C0C1E92FE0789BD168F38C
:102D6000092E052AC1F3261737074807590738F0F7
:102D70000E2E07F8E02569F0E025E0640AC0EF6355
:102D800007F8009407FADB01B9019D01DC01CA01D3
:102D9000AD01EF9347D06DD10AD05F91552331F04B
:102DA0002BED3FE049E450FD49EC63CF0895DF93FC
:102DB000DD27B92FBF7740E85FE3161617064807EF
:102DC0005B0710F4D92F8FD19F938F937F936F93CD
:102DD00082D2E6E7F2E01AD14CD12F913F914F9188
:102DE0005F9194D1DD2349F09058A2EA2AED3FE0AB
:102DF00049EC5FE3D0785D274DDFDF913AC1D9D050
:102E000008F481E008950CD034C12CD140F023D1D6
:102E100030F021F45F3F19F0F0C051115EC1F3C0F2
:102E200039D198F39923C9F35523B1F3951B550B69
:102E3000BB27AA2762177307840738F09F5F5F4F8D
:102E4000220F331F441FAA1FA9F333D00E2E3AF0CE
:102E5000E0E830D091505040E695001CCAF729D0E8
:102E6000FE2F27D0660F771F881FBB1F2617370737
:102E70004807AB07B0E809F0BB0B802DBF01FF2767
:102E800093585F4F2AF09E3F510568F0B6C025C1A8
:102E90005F3FECF3983EDCF3869577956795B795A1
:102EA000F7959F5FC9F7880F911D9695879597F9BC
:102EB0000895E1E0660F771F881FBB1F6217730735
:102EC0008407BA0720F0621B730B840BBA0BEE1F4A
:102ED00088F7E095089504D06894B111FEC0089574
:102EE000E1D088F09F5790F0B92F9927B751A0F003
:102EF000D1F0660F771F881F991F1AF0BA95C9F78E
:102F000012C0B13081F0E8D0B1E00895E5C0672F7C
:102F1000782F8827B85F39F0B93FCCF3869577953D
:102F20006795B395D9F73EF4909580957095619526
:102F30007F4F8F4F9F4F0895E89409C097FB3EF451
:102F400090958095709561957F4F8F4F9F4F9923F6
:102F5000A9F0F92F96E9BB279395F6958795779574
:102F60006795B795F111F8CFFAF4BB0F11F460FF34
:102F70001BC06F5F7F4F8F4F9F4F16C0882311F08C
:102F800096E911C0772321F09EE8872F762F05C0A0
:102F9000662371F096E8862F70E060E02AF09A953B
:102FA000660F771F881FDAF7880F9695879597F930
:102FB0000895990F0008550FAA0BE0E8FEEF1616CA
:102FC0001706E807F907C0F012161306E407F5071D
:102FD00098F0621B730B840B950B39F40A2661F091
:102FE000232B242B252B21F408950A2609F4A14034
:102FF000A6958FEF811D811D089597F99F6780E841
:1030000070E060E008959FEF80EC0895DF93CF9328
:103010001F930F93FF92EF92DF927B018C016894D4
:1030200005C0DA2EEF0172D0FE01E894A59125913A
:10303000359145915591AEF3EF012CDEFE019701DC
:10304000A801DA9479F7DF90EF90FF900F911F912C
:10305000CF91DF91089500240A94161617061806DA
:103060000906089500240A9412161306140605068C
:103070000895092E0394000C11F4882352F0BB0F1D
:1030800040F4BF2B11F460FF04C06F5F7F4F8F4F80
:103090009F4F089557FD9058440F551F59F05F3FBB
:1030A00071F04795880F97FB991F61F09F3F79F06A
:1030B00087950895121613061406551FF2CF4695EC
:1030C000F1DF08C0161617061806991FF1CF86956E
:1030D0007105610508940895E894BB276627772752
:1030E000CB0197F908959B01AC0160E070E080E8A6
:1030F0009FE389CE0BD0BDCFAEDF28F0B3DF18F051
:10310000952309F07ACF7FCF1124E7CFC3DFA0F357
:10311000959FD1F3950F50E0551F629FF001729F6C
:10312000BB27F00DB11D639FAA27F00DB11DAA1F8B
:10313000649F6627B00DA11D661F829F2227B00DD8
:10314000A11D621F739FB00DA11D621F839FA00D63
:10315000611D221F749F3327A00D611D231F849FB3
:10316000600D211D822F762F6A2F11249F5750400A
:103170008AF0E1F088234AF0EE0FFF1FBB1F661FA5
:10318000771F881F91505040A9F79E3F510570F05E
:1031900034CFA3CF5F3FECF3983EDCF38695779571
:1031A0006795B795F795E7959F5FC1F7FE2B880F59
:1031B000911D9695879597F90895FA01EE0FFF1FD7
:1031C00030962105310599F16115710561F480385A
:1031D000BFE39B0749F168949038810561F080381E
:1031E000BFEF9B0741F0992342F5FF3FE105310511
:1031F000210511F1E8940894E795D901AA2329F44F
:10320000AB2FBE2FF85FD0F310C0FF5F70F4A69510
:10321000E0F7F73950F019F0FF3A38F49F779F93B1
:103220000CD00F9007FC905808953EF0ECCE60E073
:1032300070E080E89FE308954FE79F775F934F9397
:103240003F932F93CCD02F913F914F915F9152DFBD
:103250004AC011F40EF4D7CE72C024DFD0F3992304
:10326000D9F3CEF39F57550B87FF77D00024A0E604
:1032700040EA900180585695979528F4805C660F37
:10328000771F881F20F026173707480730F4621B86
:10329000730B840B202931294A2BA6951794079488
:1032A000202531254A2758F7660F771F881F20F001
:1032B00026173707480730F4620B730B840B200D79
:1032C000311D411DA09581F7B901842F9158880FB8
:1032D0009695879508959B01AC010CCF19F40EF0DB
:1032E0008CCEFACE90CEDEDEC8F39638C0F707F863
:1032F0000F92E8942BE33AEA48EB5FE709DF0F927D
:103300000F920F924DB75EB70F92A9D0E3EAF2E0A9
:103310007DDE4F915F91EF91FF91E595EE1FFF1FCD
:1033200049F0FE57E0684427EE0F441FFA95E1F795
:103330004195550B1BD00F9007FED5CE08959F3FAA
:1033400031F0915020F4879577956795B795880F60
:10335000911D9695879597F9089591505040660F65
:10336000771F881FD2F7089548CEE9CF9BDEE8F398
:103370009923D9F3940F511DBBF39150504094F011
:1033800059F0882332F0660F771F881F9150504004
:10339000C1F79E3F510544F7880F911D969587957B
:1033A00097F908955F3FACF0983E9CF0BB27869557
:1033B00077956795B79508F4B1609395C1F7BB0F02
:1033C00058F711F460FFE8CF6F5F7F4F8F4F9F4F2B
:1033D000E3CF83CE0EF0B3CF16CE68940ECE62DE6E
:1033E000C8F39923D1F3C6F3DF93CF931F930F93C1
:1033F000FF92C92FDD2788232AF02197660F771FB8
:10340000881FDAF720E030E040E85FEB9FE388397F
:1034100020F0803E30F021968F772BDCEBECF2E051
:1034200003C027DCE8EFF2E0F1DD8B01BE01EC0127
:10343000FB2E6F5771097595771F880B990B7EDDF1
:1034400028E132E741E35FE361DEAF2D9801AE0191
:10345000FF900F911F91CF91DF911CDC0ACEFA01F2
:10346000DC01AA0FBB1F9B01AC01BF5728F4222728
:103470003327442750781FC0B75188F4AB2F00245E
:10348000469537952795011CA395D2F3002069F046
:10349000220F331F441FB395DAF30DD0E9CB61300F
:1034A0007105A0E88A07B94630F49B01AC01662794
:1034B000772788279078309621F0208331834283C4
:1034C00053830895FC01818D228D90E0805C9F4F95
:1034D000821B91098F7399270895FC01918D828D2C
:1034E000981731F0828DE80FF11D858D90E00895D9
:1034F0008FEF9FEF0895FC01918D828D981761F0F9
:10350000828DDF01A80FB11D5D968C91928D9F5F1A
:103510009F73928F90E008958FEF9FEF0895FC01C5
:10352000848DDF01A80FB11DA35ABF4F2C91848D4C
:1035300090E001968F739078848FA689B7892C9339
:10354000A089B1898C9180648C93938D848D98131C
:1035500006C00288F389E02D80818F7D80830895E5
:10356000CF93DF93EC01888D81110AC01AC00FB68A
:1035700007FC08C0808185FF05C00DC0CE01CFDFEC
:10358000EA89FB89808185FDF2CFA889B9898C9170
:1035900086FFEDCF06C0A889B9898C9185FFF2CF4F
:1035A000EDCFDF91CF9108950F931F93CF93DF93CA
:1035B000EC01162F81E0888F9B8D8C8D981321C094
:1035C000E889F989808185FD23C01BC00FB607FCFF
:1035D00007C0E889F989808185FF02C0CE019FDF9D
:1035E0009C8D091799F38B8DFE01E80FF11DE35AAD
:1035F000FF4F10830B8FEA89FB8980818062808373
:103600000FC08B8D90E001968F739078082FE8CFD4
:10361000EE89FF896083E889F989808180648083ED
:1036200081E090E0DF91CF911F910F910895CF92AB
:10363000DF92EF92FF921F93CF93DF93EC016A0129
:103640007B01122FE889F98982E08083411581EEA0
:10365000580761057105A9F060E079E08DE390E01D
:10366000A70196014BD4BA01A90141505109610942
:1036700071097695679557954795411580E15807EB
:10368000A0F0E889F989108260E874E88EE190E0A2
:10369000A701960133D4BA01A9014150510961092A
:1036A00071097695679557954795EC85FD8550830B
:1036B000EE85FF854083188EEC89FD891083EA89A9
:1036C000FB89808180618083EA89FB8980818860B1
:1036D0008083EA89FB89808180688083EA89FB890D
:1036E00080818F7D8083DF91CF911F91FF90EF903C
:1036F000DF90CF9008951F920F920FB60F92112472
:103700000BB60F922F938F939F93AF93BF93EF932B
:10371000FF93E091090AF0910A0A808182FD17C0A7
:10372000E0910F0AF091100A20818091120A8F5FB8
:103730008F739091130A891779F0E2E1FAE0A08182
:10374000B0E0A750B64F5D962C93808305C0E09102
:103750000F0AF091100A8081FF91EF91BF91AF9114
:103760009F918F912F910F900BBE0F900FBE0F90D6
:103770001F9018951F920F920FB60F9211240BB63F
:103780000F922F933F934F935F936F937F938F93FA
:103790009F93AF93BF93EF93FF9389EF99E0BFDEC1
:1037A000FF91EF91BF91AF919F918F917F916F9119
:1037B0005F914F913F912F910F900BBE0F900FBED5
:1037C0000F901F9018951092FC091092FB0988EE3B
:1037D00093E0A0E0B0E08093FD099093FE09A093F0
:1037E000FF09B093000A8EE892E09093FA09809363
:1037F000F90985EC90E09093060A8093050A84EC21
:1038000090E09093080A8093070A80EC90E09093F0
:103810000A0A8093090A81EC90E090930C0A809345
:103820000B0A82EC90E090930E0A80930D0A86ECCE
:1038300090E09093100A80930F0A1092120A10924F
:10384000130A1092140A1092150A0895CF92DF926B
:10385000EF92FF920F931F93CF93DF936C0141156B
:103860005105B1F0062F172FEA01E12CF12CD801F8
:103870006D918D01D601ED91FC910190F081E02DCB
:10388000C6011995E80EF91E2197209781F702C00D
:10389000E12CF12CC701DF91CF911F910F91FF9087
:1038A000EF90DF90CF900895DC01ED91FC910190B5
:1038B000F081E02D19950895DC01ED91FC910280D5
:1038C000F381E02D42E050E06AE972E01995089535
:1038D0006F927F928F929F92AF92BF92CF92DF9220
:1038E000EF92FF920F931F93CF93DF93CDB7DEB785
:1038F000A1970FB6F894DEBF0FBECDBF6C01742E3A
:10390000352F862F972F622E19A221E0261520F041
:103910000F2EFAE06F2EF02D7E01A1E2EA0EF11CCF
:10392000862C912CA12CB12C672D732FA50194010D
:10393000E5D2E22F732F022F132F242F352FF72DCF
:103940006E9EF0191124B1E0EB1AF108FA3010F470
:10395000F05D01C0F95CD701FC93012B022B032B16
:1039600029F07E2E372F842F952FDECFE114F1041E
:1039700091F0F70101900020E9F73197AF014E195E
:103980005F09D601ED91FC910280F381E02DB70132
:10399000C601199502C080E090E0A1960FB6F89498
:1039A000DEBF0FBECDBFDF91CF911F910F91FF9072
:1039B000EF90DF90CF90BF90AF909F908F907F90CF
:1039C0006F900895CF92DF92EF92FF920F931F9323
:1039D000CF93DF93EC016A017B012115310541F49E
:1039E000E881F9810190F081E02D642F199519C0CB
:1039F0002A303105A9F4772384F46DE255DF8C0178
:103A000044275527BA014C195D096E097F092AE040
:103A1000CE015EDF800F911F04C02AE059DF01C094
:103A200057DFDF91CF911F910F91FF90EF90DF90C3
:103A3000CF9008950F931F93CF93DF93EC019A01DA
:103A4000AB01662757FD6095762FBCDF8C01CE0158
:103A500033DF800F911FDF91CF911F910F91089558
:103A60001F920F920FB60F9211242F933F938F93B3
:103A70009F93AF93BF938091970A9091980AA091DA
:103A8000990AB0919A0A3091960A23E0230F2D37B4
:103A900020F40196A11DB11D05C026E8230F029652
:103AA000A11DB11D2093960A8093970A9093980ABE
:103AB000A093990AB0939A0A80919B0A90919C0ACC
:103AC000A0919D0AB0919E0A0196A11DB11D8093FF
:103AD0009B0A90939C0AA0939D0AB0939E0ABF9163
:103AE000AF919F918F913F912F910F900FBE0F90AB
:103AF0001F9018952FB7F8946091970A7091980AC3
:103B00008091990A90919A0A2FBF08958230910569
:103B100038F0880F991F880F991F05970197F1F7C3
:103B20000895789484B5826084BD84B5816084BD35
:103B300085B5826085BD85B5816085BDEEE6F0E026
:103B4000808181608083E1E8F0E010828081826082
:103B50008083808181608083E0E8F0E08081816003
:103B60008083E1EBF0E0808184608083E0EBF0E033
:103B7000808181608083E1E9F0E0808182608083E0
:103B8000808181608083E0E9F0E0808181608083D2
:103B9000E1EAF0E0808182608083808181608083BF
:103BA000E0EAF0E0808181608083E1E2F1E0808101
:103BB00082608083808181608083E0E2F1E08081A7
:103BC00081608083EAE7F0E0808184608083808187
:103BD000826080838081816080838081806880832F
:103BE0001092C1000895809308020895863308F06A
:103BF0008653EBE7F0E09081282F2870977F922B77
:103C0000908387702091080290E4299F90011124ED
:103C1000282B20937C00EAE7F0E080818064808399
:103C2000808186FDFDCF809178002091790090E021
:103C3000922B089590E0FC013197E231F10508F0F4
:103C40005EC0ED56FE4F98C1E0E8F0E080818F77CE
:103C500080830895E0E8F0E080818F7D808308957F
:103C6000E0E8F0E08081877F8083089584B58F77D6
:103C700084BD089584B58F7D84BD0895E0EBF0E0A8
:103C800080818F7780830895E0EBF0E080818F7DE5
:103C900080830895E0E9F0E080818F778083089544
:103CA000E0E9F0E080818F7D80830895E0E9F0E035
:103CB0008081877F80830895E0EAF0E080818F77BC
:103CC00080830895E0EAF0E080818F7D808308950D
:103CD000E0EAF0E08081877F80830895E0E2F1E010
:103CE00080818F7780830895E0E2F1E080818F7D8D
:103CF00080830895E0E2F1E08081877F80830895EA
:103D0000CF93DF9390E0FC01E057FC4F2491FC013E
:103D1000EA52FC4F8491882371F190E0880F991F3B
:103D2000FC01E05BFB4FA591B4918A5C9B4FFC01C9
:103D3000C591D49161110BC08FB7F8949C912095D7
:103D400092239C93E8812E2328838FBF14C0623076
:103D500061F48FB7F8943C91922F909593239C93A4
:103D6000E8812E2B28838FBF06C08FB7F894EC9183
:103D70002E2B2C938FBFDF91CF9108951F93CF935C
:103D8000DF93C62F282F30E0F901E65BFC4F8491CA
:103D9000F901E057FC4F1491F901EA52FC4FD4911C
:103DA000DD23C1F0811146DF2D2F30E0F901EE0F48
:103DB000FF1FEA5CFB4FA591B4918FB7F894C11136
:103DC00005C0EC9110951E231C9303C0EC911E2B93
:103DD0001C938FBFDF91CF911F9108950F931F9375
:103DE000762F90E0FC01E057FC4F6491FC01EA5211
:103DF000FC4FE4917111762FF0E0EE0FFF1FE45EAF
:103E0000FB4F8591949189019A013F70472F0E9441
:103E10006A02611571058105910549F0DC01CB014C
:103E20000196A11DB11DBC01CD019F7003C060E0D2
:103E300070E0CB011F910F9108954F925F926F92A6
:103E40007F92AF92BF92CF92DF92EF92FF920F9349
:103E50001F93CF93DF93CDB7DEB729013A019B01C2
:103E6000AC0124193509460957098A899B89AC890F
:103E7000BD89BC01CD016A197B098C099D091CD043
:103E8000A8019701241935094609570959D0CA01D3
:103E9000B9016A0D7B1D8C1D9D1DDF91CF911F9176
:103EA0000F91FF90EF90DF90CF90BF90AF907F90F9
:103EB0006F905F904F900895DB018F939F9362D036
:103EC000BF91AF91A29F800D911DA39F900DB29FB6
:103ED000900D1124089597FB072E16F4009406D038
:103EE00077FD08D05DD007FC05D03EF49095819514
:103EF0009F4F0895709561957F4F0895A1E21A2E06
:103F0000AA1BBB1BFD010DC0AA1FBB1FEE1FFF1F7D
:103F1000A217B307E407F50720F0A21BB30BE40BCD
:103F2000F50B661F771F881F991F1A9469F7609514
:103F30007095809590959B01AC01BD01CF010895CE
:103F4000052E97FB16F400940FD057FD05D0D6DF51
:103F500007FC02D046F408C0509540953095219555
:103F60003F4F4F4F5F4F08959095809570956195A5
:103F70007F4F8F4F9F4F0895EE0FFF1F0590F491D5
:103F8000E02D199421D0A59F900DB49F900DA49F72
:103F9000800D911D112408950790F691E02D19943C
:103FA000AA1BBB1B51E107C0AA1FBB1FA617B7075F
:103FB00010F0A61BB70B881F991F5A95A9F780957B
:103FC0009095BC01CD010895A29FB001B39FC0019F
:103FD000A39F700D811D1124911DB29F700D811D35
:0A3FE0001124911D0895F894FFCFFD
:103FEA00360004000300FFFF01018001800180FF09
:103FFA007FFF7FFF7F20075B014F045C07A401B3AB
:10400A00047072696E744100526561642047797266
:10401A006F6D657465720052656164204163636502
:10402A006C65726F6D6574657200526561642049D2
:10403A006E6672617265640052656164204D6167E3
:10404A006E65746F005265616420556C7472617399
:10405A006F6E69630049444C450000000000BC15BE
:10406A008D1562156A157D158C1500000000D41A8D
:10407A00261C621A7B1A6D1AB01A0D0A006E616E3E
:0C408A0000696E66006F7666002E000074
:00000001FF
