:10000000DFC100000EC200000CC200000AC20000E6
:1000100008C2000006C2000004C2000002C20000C4
:1000200000C20000FEC10000FCC10000FAC10000D7
:10003000F8C100000C94EF08F4C10000F2C1000008
:10004000F0C10000EEC10000ECC10000EAC10000F8
:10005000E8C10000E6C10000E4C100000C94FD18F6
:10006000E0C100000C9462170C94A117DAC10000E3
:10007000D8C10000D6C10000D4C10000D2C1000028
:10008000D0C10000CEC10000CCC10000CAC1000038
:100090000C94800CC6C10000C4C100000C94CE12A8
:1000A000C0C10000BEC10000BCC10000BAC1000058
:1000B000B8C10000B6C10000B4C10000B2C1000068
:1000C000B0C10000AEC10000ACC10000AAC1000078
:1000D000A8C10000A6C10000A4C10000A2C1000088
:1000E000A0C10000D313D613D613D613D613D6133C
:1000F000D613D613ED12D613D613D613D613D613A2
:10010000D613D613ED12D613D613D613D613D61391
:10011000D613D613F512D613D613D613D613D61379
:10012000D613D6131A13D613D613D613D613D61343
:10013000D613D613F512D613D613D613D613D61359
:10014000D613D6131F13D613D613D613D613D6131E
:10015000D613D6132413D613D613D613D613D61309
:10016000D613D6133513D613D613D613D613D613E8
:10017000D613D6135E13D613D613D613D613D613AF
:10018000D613D6132913D613D613D613D613D613D4
:10019000D613D6134313D613D613D613D613D613AA
:1001A000D613D6136013D613D613D613D613D6137D
:1001B000D613D6136013D613D613D613D613D6136D
:1001C000D613D6136013D613D613D613D613D6135D
:1001D000D613D6136013D613D613D613D613D6134D
:1001E000D613D6136913D613D613D613D613D61334
:1001F000D613D6139A13D613D613D613D613D613F3
:10020000D613D6136913D613D613D613D613D61313
:10021000D613D6139A13D613D613D613D613D613D2
:10022000D613D6138113D613D613D613D613D613DB
:10023000D613D6139E13D613D613D613D613D613AE
:10024000D613D6139E13D613D613D613D613D6139E
:10025000D613D613B313D613D613D613D613D61379
:10026000D613D613CD13D613D613D613D613D6134F
:10027000D613D613CD13DC19E019CA19D019D61923
:10028000251AE419EA19F019F619FC19021A081AC4
:100290000E1A251A141A1A1A201A00000A0B02093B
:1002A0000C0D0E0807030401000000000000000010
:1002B000000000000000000000000000000000003E
:1002C00000000000000012111000000000000000FB
:1002D000000000000000000000000000000000001E
:1002E0000102102020080810204010204080020148
:1002F000020108040201010204081020408080402D
:10030000201008040201800402018040201008042B
:1003100002010804020101020408102040800102C9
:100320000408102040800505050507050808080891
:10033000020202020A0A080804040404010101017D
:100340000101010103030303030303030407070778
:100350000C0C0C0C0C0C0C0C02020202060606061D
:10036000060606060B0B0B0B0B0B0B0B00002000FD
:100370002300260029002C002F003200000100007D
:1003800003010601090100002200250028002B00BE
:100390002E003100340002010000050108010B01AC
:1003A00000002100240027002A002D003000330027
:1003B00001010000040107010A016C0DBB14CA17FA
:1003C00011241FBECFEFD1E2DEBFCDBF00E00CBFD6
:1003D00012E0A0E0B2E0E4EFF5E300E00BBF02C002
:1003E00007900D92AC37B107D9F72AE0ACE7B2E03D
:1003F00001C01D92A536B207E1F713E0C0ECD3E0CF
:1004000000E006C022970109FE010BBF0E94EB1A13
:10041000CA3BD10780E00807A9F70E940F0D0C9492
:10042000F81AEECDCF92DF92EF92FF920F931F93C7
:10043000E82FF92F05C0015011092109310961F197
:10044000908196239417B9F305C001501109210931
:10045000310911F1908196239413F7CFC12CD12C3F
:10046000E12CF12C0AC08FEFC81AD80AE80AF80A62
:100470000C151D052E053F0579F080818623841714
:1004800091F36C2D7D2D8E2D9F2D1F910F91FF903F
:10049000EF90DF90CF90089560E070E080E090E012
:1004A0001F910F91FF90EF90DF90CF900895CF9321
:1004B000DF93EC010E94350F80917C0290917D02C8
:1004C000892B31F481E892E090937D0280937C0245
:1004D00040917E0250917F029E01240F351F2B3DDB
:1004E00085E0380770F44217530770F4C0917C021E
:1004F000D0917D02C40FD51F30937F0220937E02DE
:1005000005C0C0E0D0E002C0C0E0D0E00E94F90F1A
:10051000CE01DF91CF9108950895FC0183E0878398
:1005200012861186138608950F931F93CF93DF933E
:10053000EC01062F142F68858DE699E00E949C142B
:10054000602F8DE699E00E944314612F8DE699E0BB
:100550000E9443148DE699E00E94B8148E83DF91C7
:10056000CF911F910F910895CF93DF93EC018F816D
:10057000823021F440E069E3CE01D6DF40E063E25F
:10058000CE01D2DF4FE660E2CE01CEDFDF91CF9128
:1005900008959F92AF92BF92CF92DF92EF92FF9217
:1005A0000F931F93CF93DF93EC0168858DE699E05D
:1005B0000E949C14E0916D09F0916E090190F08108
:1005C000E02D68EA8DE699E019958DE699E00E94A4
:1005D000B81446E068858DE699E00E9499140E945F
:1005E00047198B0110C089859A85892B61F00E947B
:1005F0004719601B710B89859A858617970718F430
:1006000081E08B8732C08DE699E00E94E91306975E
:1006100054F38DE699E00E94F113A82E8DE699E03F
:100620000E94F113982E8DE699E00E94F113082F95
:100630008DE699E00E94F113B82E8DE699E00E94B4
:10064000F113182F8DE699E00E94F113D92CC12CDB
:10065000CA28D982C882FB2CE12CE02AFB82EA82DC
:10066000982F8827812B9D838C83DF91CF911F91B9
:100670000F91FF90EF90DF90CF90BF90AF909F9041
:100680000895CF93DF93C62FD42F8DE699E00E9473
:100690009C146D2F8DE699E00E9443148DE699E03D
:1006A0000E94B814811111C041E06C2F8DE699E0D1
:1006B0000E9499148DE699E00E94E913892B41F07C
:1006C0008DE699E00E94F11305C08FEF9FEF02C005
:1006D0008FEF9FEFDF91CF9108950F931F93CF93EB
:1006E000DF93EC01162F042F633009F456C042301B
:1006F000C9F556C0133009F058C0873D910509F47B
:1007000058C001E011E02CC0013091F04FE06AE6E2
:10071000CE01B7DF8F3F2FEF920751F0133009F072
:1007200046C0873D910509F047C000E012E018C0BF
:10073000133011F0111114C0002349F04FE069E6A5
:10074000CE019FDF833D9105D1F1013039F04FE0BB
:1007500068E6CE0196DF833D910599F11330B9F03B
:100760000230B9F01F83112351F01330A0F401308F
:1007700011F48BE601C08AE6888781E041C0013030
:1007800011F489E601C088E6888781E039C080E0FD
:1007900037C080E035C081E033C0442341F11EC042
:1007A0008FEF860F833030F60FC001E0C3CF00E03B
:1007B000C1CF01E012E0D4CF00E011E0D1CF01E0E1
:1007C00001C000E01F82DBCF4FE06BE6CE0159DFB6
:1007D0008F3F2FEF920709F08DCF98CF4FE06BE658
:1007E00050DF8F3F2FEF920709F087CF8DCF4FE07B
:1007F0006AE647DF8F3F2FEF920709F092CF98CF3D
:10080000DF91CF911F910F910895FC010396928380
:1008100081832FEF3FEF34832383968385839087F3
:10082000878310820895FC01118610860895CF9366
:10083000DF939C01FB01DC011196CD91DC911297B5
:10084000D383C2838C819D81958384838C819D8198
:10085000DC0113967C936E9312977D836C833187B2
:100860002087F90180818F5F8083DF91CF91089588
:10087000CF93DF93EB01488159814F3F2FEF520710
:1008800021F4FC01A781B0850DC0DC0113961296FE
:10089000ED91FC911397208131814217530710F09D
:1008A000DF01F5CF1296ED91FC911397FB83EA835C
:1008B000D583C483BD83AC831396DC93CE93129708
:1008C00099878887FC0120812F5F2083DF91CF915A
:1008D0000895CF93DF93FC01A085B185C281D381B8
:1008E000848195819D838C83C481D581828193810C
:1008F0009B838A831196CD91DC911297CE17DF07E7
:1009000031F48C819D8112969C938E931197118660
:1009100010868C9181508C93DF91CF910895CF9365
:10092000DF93EC0186E0E6E0F2E0DE015296019012
:100930000D928A95E1F786E0ECE0F2E0DE011C968C
:1009400001900D928A95E1F784E0898F1CA21BA289
:100950001DA2DF91CF9108950F931F93CF93DF9343
:10096000EC01062F142F6A8D8DE699E00E949C14ED
:10097000602F8DE699E00E944314612F8DE699E087
:100980000E9443148DE699E00E94B814888FDF918D
:10099000CF911F910F9108950F931F93CF93DF93E2
:1009A000EC01062F142F6B8D8DE699E00E949C14AC
:1009B000602F8DE699E00E944314612F8DE699E047
:1009C0000E9443148DE699E00E94B814888FDF914D
:1009D000CF911F910F910895FC01218D233011F0CB
:1009E000603210F4D9CF0895B7CF0895CF93DF9335
:1009F000EC01898D8330A9F440E061E2CE01ECDFA7
:100A000047E560E2CE01E8DF44E664E2CE01E4DFE0
:100A100040E265E2CE01E0DF40E066E2CE01DCDFED
:100A20001FC0823049F448E063E2CE0195DF47E41D
:100A300060E2CE0191DF08C040E063E2CE018CDFCE
:100A400047E260E2CE0188DF4CE060E0CE01A4DF47
:100A500040E261E0CE01A0DF40E062E0CE019CDF39
:100A6000DF91CF9108959F92AF92BF92CF92DF9284
:100A7000EF92FF920F931F93CF93DF93EC016A8D58
:100A80008DE699E00E949C14E0916D09F0916E0949
:100A90000190F081E02D68EA8DE699E019958DE6E8
:100AA00099E00E94B814888F46E06A8D8DE699E03F
:100AB0000E9499140E9447198B0110C08BA19CA120
:100AC000892B61F00E944719601B710B8BA19CA1BF
:100AD0008617970718F481E08DA332C08DE699E060
:100AE0000E94E913069754F38DE699E00E94F113F2
:100AF000A82E8DE699E00E94F113982E8DE699E0DC
:100B00000E94F113082F8DE699E00E94F113B82E90
:100B10008DE699E00E94F113182F8DE699E00E946E
:100B2000F113D92CC12CCA28D982C882FB2CE12C04
:100B3000E02AFB82EA82982F8827812B9D838C8371
:100B4000DF91CF911F910F91FF90EF90DF90CF90A9
:100B5000BF90AF909F900895CF92DF92EF92FF9257
:100B60000F931F93CF93DF93EC016B8D8DE699E08C
:100B70000E949C14898D833031F46E8D772767FD38
:100B80007095606804C06D8D772767FD7095E09162
:100B90006D09F0916E090190F081E02D8DE699E0EC
:100BA00019958DE699E00E94B814888F46E06B8D08
:100BB0008DE699E00E9499140E9447198B0110C09C
:100BC0008BA19CA1892B61F00E944719601B710BBE
:100BD0008BA19CA18617970718F481E08DA36EC0A6
:100BE0008DE699E00E94E913069754F3898D8330CE
:100BF000F9F48DE699E00E94F113C82E8DE699E094
:100C00000E94F113D82E8DE699E00E94F113E82E90
:100C10008DE699E00E94F113F82E8DE699E00E948E
:100C2000F113082F8DE699E00E94F113182F36C0BA
:100C30008DE699E00E94F113D82E8DE699E00E948E
:100C4000F113C82E898D811115C08DE699E00E949F
:100C5000F113F82E8DE699E00E94F113E82E8DE64F
:100C600099E00E94F113182F8DE699E00E94F1138C
:100C7000082F14C08DE699E00E94F113182F8DE61D
:100C800099E00E94F113082F8DE699E00E94F1137C
:100C9000F82E8DE699E00E94F113E82E6C2D70E09D
:100CA0007D297F836E834E2D50E05F2959874887C9
:100CB000202F30E0C901912B9B878A87DF91CF914C
:100CC0001F910F91FF90EF90DF90CF900895CF93F9
:100CD000DF93EC01C8DECE013FDFDF91CF910895B5
:100CE000CF93DF93C62FD42F8DE699E00E949C14FA
:100CF0006D2F8DE699E00E9443148DE699E00E94E5
:100D0000B814811111C041E06C2F8DE699E00E946A
:100D100099148DE699E00E94E913892B41F08DE644
:100D200099E00E94F11305C08FEF9FEF02C08FEF93
:100D30009FEFDF91CF9108950F931F93CF93DF9390
:100D4000EC01162F042F643009F4ADC0423009F0D5
:100D500047C0ADC04FE06DE1CE01C2DF89349105DF
:100D600009F4ABC0013041F04FE06EE1CE01B8DFD5
:100D70008934910509F4A3C0143011F0133068F5DB
:100D80000023A9F040E269E1CE01AADF019669F0F3
:100D9000143009F099C04FE06EE1CE01A1DFCC978D
:100DA00009F094C001E012E01BC0013099F040E26C
:100DB00068E1CE0195DF019669F0143009F089C031
:100DC0004FE06EE1CE018CDF11E0CC9709F010E02E
:100DD00000E006C0143009F460C0023009F45FC0BE
:100DE000198F113071F108F442C01230C1F0133084
:100DF00009F057C0013011F48DE101C08EE18B8FF5
:100E00008A8F88E08E8F89E08D8F8AE088A38BE0BF
:100E10008F8F8CE08AA38DE089A381E064C089E193
:100E20008A8F8EE18B8F83E08D8F84E08E8F87E0B9
:100E30008F8F88E088A385E089A386E08AA381E07C
:100E400052C0013011F489E101C088E18A8F8EE13E
:100E50008B8F83E08D8F84E08E8F87E08F8F88E08B
:100E600088A385E089A386E08AA381E03CC00130A5
:100E700011F489E101C088E18A8F8EE18B8F83E0D4
:100E80008D8F84E08E8F85E08F8F86E088A387E04A
:100E900089A388E08AA381E026C080E024C080E0A6
:100EA00022C081E020C0442309F45ECF53CF8DEFF0
:100EB000860F823008F062CF0EC001E003C000E070
:100EC00001C001E013E089CF01E08ACF01E010E02A
:100ED00087CF00E085CF4FE06DE1CE0101DF89349F
:100EE000910579F341CFDF91CF911F910F91089533
:100EF00031E1FC013083319722E220833197A3E373
:100F0000A083319760833197708331971082319736
:100F10001082319760E86083319710823197108298
:100F200031971082319762E06083319763E060838C
:100F3000319764E06083319765E06083319766E0C4
:100F40006083319767E06083319768E06083319711
:100F500069E06083319760E1608331973083319736
:100F600032E13083319733E13083319734E130839C
:100F7000319735E13083319736E13083319737E16E
:100F80003083319738E13083319739E130833197BD
:100F900030E23083319731E23083319720833197CB
:100FA00023E220833197408331975083319726E2A3
:100FB0002083319727E22083319728E220833197DD
:100FC00029E22083319720E32083319721E3208396
:100FD0008997089582E08093B0001092B20080E378
:100FE0008093B300E0E7F0E080818260808384E05A
:100FF0008093B100A091FD08B091FE08CD91CDBFC6
:10100000DD91DEBFFF91EF91DF91CF91BF91AF9165
:101010009F918F917F916F915F914F913F912F9110
:101020001F910F91FF90EF90DF90CF90BF90AF9006
:101030009F908F907F906F905F904F903F902F90F8
:101040001F900F900CBE0F900BBE0F900FBE0F9015
:10105000089581E008950F920FB6F8940F920CB6A0
:101060000F920BB60F921F9211242F923F924F9224
:101070005F926F927F928F929F92AF92BF92CF9228
:10108000DF92EF92FF920F931F932F933F934F9313
:101090005F936F937F938F939F93AF93BF93CF9300
:1010A000DF93EF93FF93A091FD08B091FE080DB67A
:1010B0000D920EB60D920E94D210A091FD08B09133
:1010C000FE08CD91CDBFDD91DEBFFF91EF91DF91A5
:1010D000CF91BF91AF919F918F917F916F915F91D0
:1010E0004F913F912F911F910F91FF90EF90DF90C3
:1010F000CF90BF90AF909F908F907F906F905F90B8
:101100004F903F902F901F900F900CBE0F900BBEF2
:101110000F900FBE0F9008950F920FB6F8940F9294
:101120000CB60F920BB60F921F9211242F923F9282
:101130004F925F926F927F928F929F92AF92BF92E7
:10114000CF92DF92EF92FF920F931F932F933F93D3
:101150004F935F936F937F938F939F93AF93BF93BF
:10116000CF93DF93EF93FF93A091FD08B091FE081A
:101170000DB60D920EB60D927ED681110E94D21040
:10118000A091FD08B091FE08CD91CDBFDD91DEBFED
:10119000FF91EF91DF91CF91BF91AF919F918F918F
:1011A0007F916F915F914F913F912F911F910F917F
:1011B000FF90EF90DF90CF90BF90AF909F908F9077
:1011C0007F906F905F904F903F902F901F900F9067
:1011D0000CBE0F900BBE0F900FBE0F9008959CDFBA
:1011E00018951F93CF93DF93EC01142F8C8D8823D8
:1011F000E9F1411117C0482F50E08C819D810E9478
:10120000EF1A2C8D8C819D81820F911D9D838C8383
:101210002A813B818217930748F1888199819D83B8
:101220008C8324C0482F50E08E819F810E94EF1A4A
:101230002C8D30E03195219531098E819F81820F6F
:10124000931F9F838E83688179818617970730F477
:101250008A819B81280F391F3F832E83123031F4FE
:101260008A8D882319F08A8D81508A8F8A8D8F5FAD
:101270008A8F80E0DF91CF911F910895FC01CB010F
:10128000448D4423A1F050E026813781240F351F7F
:1012900037832683628173812617370720F02081E8
:1012A000318137832683668177810C94EF1A089504
:1012B0000F931F93CF93DF93EC010FB6F8940F9227
:1012C0008E8D1816ACF48989882391F08E010F5EFB
:1012D0001F4F03C08989882359F0C801DDD78111C8
:1012E0000E94D1118E8D81508E8F8E8D181694F3A1
:1012F0008FEF8E8F0F900FBE0FB6F8940F928D8DDB
:101300001816ACF48885882391F08E01085F1F4F72
:1013100003C08885882359F0C801BED781110E9477
:10132000D1118D8D81508D8F8D8D181694F38FEF87
:101330008D8F0F900FBEDF91CF911F910F91089568
:10134000CF93DF93EC010FB6F8940F9288819981C7
:101350002C8D30E07B8D729FA001739F500D112466
:10136000FC01E40FF51FFB83EA831A8E9D838C83B7
:10137000421B530B840F951F9F838E838FEF8D8F9E
:101380008E8F61110AC08885882369F0CE01089686
:1013900083D7813041F45FDE06C0CE01089635DA8E
:1013A000CE01419632DA0F900FBE81E0DF91CF91EE
:1013B00008950F931F93CF93DF93182F062F882341
:1013C000D1F08FE190E073D8EC010097B1F0109F5D
:1013D000C001112401966BD899838883892B31F041
:1013E0001B8F0C8F61E0CE01ABDF07C0CE0194D81C
:1013F000C0E0D0E002C0C0E0D0E0CE01DF91CF91EC
:101400001F910F9108959F92AF92BF92CF92DF925A
:10141000EF92FF920F931F93CF93DF9300D01F9211
:101420001F92CDB7DEB78C016B015D834C83A22E7A
:10143000B12C992493947C0188E0E80EF11C0FB63E
:10144000F8940F92F801928D838D981718F0F2E0BE
:10145000AF1215C04A2DB601C801C3DEF80191894B
:10146000992339F0C801419617D7813021F4F3DD73
:1014700002C08111F0DD0F900FBE81E046C0EC810B
:10148000FD81EF2B21F40F900FBE80E03EC0B11024
:1014900004C0CE01019648D7B92C0F900FBEE5D4F9
:1014A0000FB6F8940F92F801858D8F3F09F4158ED1
:1014B000F801868D8F3F09F4168E0F900FBEBE0186
:1014C0006C5F7F4FCE0101963AD781111AC00FB6DB
:1014D000F8940F92F801928D0F900FBEF801838D52
:1014E00098130BC06C817D81C701BAD6C801E0DEBC
:1014F00080D58111A4CFAFDDA2CFC801D9DE79D5C7
:101500009ECFC801D5DE75D580E00F900F900F906B
:101510000F900F90DF91CF911F910F91FF90EF905F
:10152000DF90CF90BF90AF909F9008959F92AF9221
:10153000BF92CF92DF92EF92FF920F931F93CF93C0
:10154000DF9300D01F921F92CDB7DEB78C016B01E5
:101550005D834C83B22EA12C992493947C0181E16C
:10156000E80EF11C0FB6F8940F92F801828D8823D3
:1015700021F1E680F780B601C80180DEB1100EC00F
:10158000F801828D8150828F8085882391F0C80177
:10159000089682D6813069F45EDD0BC0F801F782CF
:1015A000E6828189882329F0C801419675D6811188
:1015B00052DD0F900FBE81E044C04C815D81452B10
:1015C00021F40F900FBE80E03CC0A11004C0CE01FA
:1015D0000196AAD6A92C0F900FBE47D40FB6F89447
:1015E0000F92F801858D8F3F09F4158EF801868DD5
:1015F0008F3F09F4168E0F900FBEBE016C5F7F4FB8
:10160000CE0101969CD6811118C00FB6F8940F92A6
:10161000F801828D0F900FBE81110BC06C817D810E
:10162000C7011ED6C80144DEE4D481119BCF13DD6F
:1016300099CFC8013DDEDDD495CFC80139DED9D4BC
:1016400080E00F900F900F900F900F90DF91CF914F
:101650001F910F91FF90EF90DF90CF90BF90AF90D0
:101660009F900895C0E0D2E002E012E00F2EFEE568
:10167000EF2EF8E0FF2EF02D20E04FEF5FEF60E05F
:1016800070E08091A4089091A50850DF8823A1F311
:1016900060E088810E94641A85E090E00E945319FE
:1016A00061E088810E94641A8AE090E00E945319E8
:1016B00060E088810E94641A60E0F80180810E94E5
:1016C000261A20E432E44FE050E061E0F801808126
:1016D0000E94941A9B01772314F42F5F3F4FB901A6
:1016E00075956795882777FD8095982F0E945A15E4
:1016F0002DEC3CEC48EE51E40E94BF140E942715EB
:10170000F7017183608320E040E050E060E070E02A
:101710008091A0089091A10876DE88E893E1EBD44F
:10172000ABCF0F2EFAE7AF2EF8E0BF2EF02D0CE76F
:1017300018E0C0E6D8E00F2EF2E68F2EF8E09F2EDC
:10174000F02D0F2EF4E62F2EF8E03F2EF02D20E0A6
:101750004FEF5FEF60E070E080919E0890919F08EE
:10176000E5DE8823A1F388E798E0B1DAF50160812E
:101770007181882777FD8095982F0E945A1520E067
:1017800030E04AE754E40E94BF1420E030E044E730
:1017900052E40E94E6152FE632E143E85AE30E9444
:1017A000E6152DEC3CEC4CE151E40E94E6150E945C
:1017B00027152B013C01F80160817181882777FD95
:1017C0008095982F0E945A1520E030E04AE754E4B3
:1017D0000E94BF1420E030E044E752E40E94E61586
:1017E0002FE632E143E85AE30E94E6152DEC3CEC8B
:1017F0004CE151E40E94E6150E9427156B017C0123
:101800006091780870917908882777FD8095982FE6
:101810000E945A1520E030E04AE754E40E94BF14C9
:1018200020E030E044E752E40E94E6152FE632E182
:1018300043E85AE30E94E6152DEC3CEC4CE151E400
:101840000E94E6150E94271579836883F40151826E
:101850004082F101D182C08220E040E050E060E0AF
:1018600070E08091A4089091A508CDDD88EE93E00A
:1018700042D46DCF0F2EFEE6AF2EF8E0BF2EF02D36
:101880000F2EF0E7CF2EF8E0DF2EF02D0F2EF6E62C
:10189000EF2EF8E0FF2EF02D08E618E0CAE6D8E0BB
:1018A00020E04FEF5FEF60E070E08091A008909142
:1018B000A1083CDE8823A1F38CE698E00E94C902CF
:1018C000F50120813181F6018081918140916C0880
:1018D00050916D08F70151834083F80131832083D3
:1018E0009983888320E040E050E060E070E08091E0
:1018F0009E0890919F0887DD88EE93E0FCD3D0CFBF
:101900001F920F920FB60F9211240F900FBE0F90DF
:101910001F90189543E060E081E04BDD9093A508AF
:101920008093A408009731F020E040E050E060E0B0
:1019300070E069DD43E060E081E03BDD90939F086B
:1019400080939E08009731F020E040E050E060E096
:1019500070E059DD43E060E081E02BDD9093A30867
:101960008093A208009731F020E040E050E060E072
:1019700070E049DD43E060E081E01BDD9093A10869
:101980008093A008009731F020E040E050E060E054
:1019900070E039DD20E040E050E060E070E08091F0
:1019A000A0089091A1082FDD26E040E855E260E014
:1019B00070E08FEB99E00E94FE168DE699E0A3D7C8
:1019C00042E064E088E798E0B7D988E798E00ED86D
:1019D00086E0E2E1F2E0AAE8B8E001900D928A9593
:1019E000E1F786E0E8E1F2E0A4E8B8E001900D92CA
:1019F0008A95E1F742E063E08CE698E00E946D038F
:101A00008CE698E00E94B40261E0809100020E949E
:101A1000261A60E0809102020C94261A0895AF9273
:101A2000BF92CF92DF92EF92FF920F93CF93DF930B
:101A3000CDB7DEB728970FB6F894DEBF0FBECDBF87
:101A40000E945E1967DFA12CB12CC12CD12CCE01D4
:101A500007967C010AE020E030E040E850E06EE1CB
:101A600072E085E79DE0D0D0CE0105967C0105E0CF
:101A700020E030E040E850E065E272E08AE39CE07C
:101A8000C3D0CE0103967C0120E030E040E850E076
:101A900064E372E081E99BE0B7D0CE0101967C015E
:101AA00020E030E040E850E067E472E082E39BE051
:101AB000ABD0B2D180E090E028960FB6F894DEBFAC
:101AC0000FBECDBFDF91CF910F91FF90EF90DF90D0
:101AD000CF90BF90AF90089588E798E00E948F0460
:101AE0008CE698E00C948D020895C0E30F2EFEE57D
:101AF000EF2EF8E0FF2EF02D0CE618E08FEB99E0CA
:101B00000E944916892B29F08FEB99E00E946216FA
:101B1000C82FC033F9F04AE050E067E070E08FEB87
:101B200099E00E94F5186DE08FEB99E00E943B1858
:101B3000E701699179914AE050E08FEB99E00E94CA
:101B4000F5186DE08FEB99E00E943B18C017D107A4
:101B500081F7C0E388EE93E0CED2D0CFE091C50804
:101B6000F091C6088081811107C08FEF9FEF90939D
:101B70000502809304020895E091C508F091C6081B
:101B80000580F681E02D0680F781E02D828193812A
:101B900090930502809304020895CF93DF93EC01A4
:101BA000E091FD08F091FE08938382838091AD0857
:101BB0009091AE08C817D90768F46091FD0870913C
:101BC000FE088091C3089091C4086E5F7F4F0E9409
:101BD000380417C06091FD087091FE088091C50817
:101BE0009091C6086E5F7F4F0E9438048091040276
:101BF00090910502C817D90720F4D0930502C0932D
:101C00000402DF91CF9108954F925F926F927F927D
:101C10008F929F92AF92BF92CF92DF92EF92FF92FC
:101C20000F931F93CF93DF934C015B012A0139017E
:101C300081E290E00E945702EC01009709F4DAC0BB
:101C4000C114D10409F0BFC0C2010E945702988F8D
:101C50008F8B892B09F0B9C0CE010E948C02CAC0BB
:101C6000CF013191DA013D93AD01DC018C918823E4
:101C700011F02150A9F718A2102F043008F013E03A
:101C80001E8B5E01B2E0AB0EB11CC5010E941304B5
:101C9000CE010C960E941304D987C88784E090E097
:101CA000811B91099D878C87DB8BCA8BA301B401B3
:101CB000C6011ED999838883E114F10419F0F70154
:101CC000D183C0830FB6F8940F928091AF088F5FD5
:101CD0008093AF088091FD089091FE08892BA9F5AB
:101CE000D093FE08C093FD088091AF088130E1F5E4
:101CF00089ED98E00E94050482EE98E00E940504B8
:101D00008BEE98E00E94050484EF98E00E940504A1
:101D100080ED98E00E94050487EC98E00E9405049D
:101D20008AEB98E00E94050481EB98E00E9405048C
:101D300080ED98E09093C6088093C50887EC98E002
:101D40009093C4088093C3080FC08091AB088111A1
:101D50000BC0E091FD08F091FE088689081720F07D
:101D6000D093FE08C093FD088091A7088F5F8093F1
:101D7000A7088E899091AC08981710F48093AC084E
:101D800090E09C01220F331F220F331F220F331FBD
:101D9000820F931FB5018752974F0E9417040F902F
:101DA0000FBE8091AB08882351F0E091FD08F091BF
:101DB000FE088689801728F44ED981E01CC081E096
:101DC0001AC081E018C0D88ECF8AF1E04F1A5108AE
:101DD000CF88D88CC40CD51CD5018C91898F8C915F
:101DE000882309F448CFAE01465E5F4FF501319676
:101DF00027E036CF8FEFDF91CF911F910F91FF90AA
:101E0000EF90DF90CF90BF90AF909F908F907F909A
:101E10006F905F904F900895AF92BF92CF92DF92F4
:101E2000EF92FF920F93A12CB12CC12CD12CE12C5D
:101E3000F12C00E020E030E045E550E067E572E09D
:101E400088E990E1E1DE813041F4F8948093AB08B9
:101E50001092AE081092AD08BDD80F91FF90EF9090
:101E6000DF90CF90BF90AF9008958091A6088F5FCC
:101E70008093A6080895CF92DF92EF92FF920F937E
:101E80001F93CF93DF938091A608811199C0809111
:101E9000AD089091AE0801969093AE088093AD087E
:101EA000E090AD08F090AE08E114F104B1F4809137
:101EB000C5089091C6082091C3083091C40830939A
:101EC000C6082093C5089093C4088093C3088091E6
:101ED000A8088F5F8093A80841DE8091040290914A
:101EE0000502E816F90608F454C0D12CCC24C3949A
:101EF00001C0DC2CE091C508F091C60880818111F9
:101F000007C08FEF9FEF909305028093040242C0B9
:101F1000E091C508F091C6080580F681E02DC681E4
:101F2000D7812A813B81E216F30628F4309305021B
:101F3000209304022FC08E010E5F1F4FC8010E9424
:101F400069048C899D89892B21F0CE010C960E9411
:101F500069042E898091AC08821710F42093AC0894
:101F600030E0C901880F991F880F991F880F991FAA
:101F7000820F931FB8018752974F0E941704E09178
:101F8000FD08F091FE089E898689981708F0B1CF68
:101F9000B1CFD12CE091FD08F091FE08868990E048
:101FA000FC01EE0FFF1FEE0FFF1FEE0FFF1F8E0F46
:101FB0009F1FFC01E752F74F8081823040F409C037
:101FC0008091AA088F5F8093AA08D12C02C0DD24DB
:101FD000D3948091A908882311F0DD24D3948D2D0A
:101FE000DF91CF911F910F91FF90EF90DF90CF90F5
:101FF0000895DF92EF92FF920F931F93CF93DF9399
:102000000FB6F8940F928091A60881508093A6088D
:102010008091A608811160C08091AF08882309F4DF
:102020005DC00F2EFAEBEF2EF8E0FF2EF02DDD2431
:10203000D39430C0E091BF08F091C008C681D78129
:10204000CE010C960E9469048E010E5F1F4FC801DD
:102050000E9469048E899091AC08981710F48093BF
:10206000AC0890E09C01220F331F220F331F220F78
:10207000331F820F931FB8018752974F0E94170496
:10208000E091FD08F091FE089E898689981710F06E
:10209000D092A908F70180818111CCCF8091AA0844
:1020A000882391F08091AA08882371F0C1E0E3DED3
:1020B0008111C093A9088091AA0881508093AA0831
:1020C0008091AA088111F3CF8091A908813041F451
:1020D0000E942B0881E005C080E003C080E001C0C1
:1020E00080E00F900FBEDF91CF911F910F91FF9075
:1020F000EF90DF900895CF93DF93EC01009799F074
:10210000B4DE8091AD089091AE08C80FD91F8091C0
:10211000FD089091FE0802960E946904CE013DDD03
:1021200068DF811102C00E942B08DF91CF910895D2
:102130000F2EF9EDEF2EF8E0FF2EF02DC1EBD8E0D9
:1021400026C093DE188155DF112309F10FB6F894EC
:102150000F92E091B608F091B70806811781C80187
:1021600002960E9469048091AF0881508093AF0865
:102170008091B00881508093B0080F900FBEF80195
:102180008789908D0E948C02C8010E948C028091E8
:10219000B0088111D6CFF70180818230C0F30E9450
:1021A0002B08F5CF8091A608882321F081E0809349
:1021B000A90808951092A9088091AC0890E0FC014C
:1021C000EE0FFF1FEE0FFF1FEE0FFF1F8E0F9F1F63
:1021D000FC01E752F74F8081811117C08091AC0854
:1021E00081508093AC088091AC0890E0FC01EE0F28
:1021F000FF1FEE0FFF1FEE0FFF1F8E0F9F1FFC0133
:10220000E752F74F8081882349F3E091AC08F0E072
:10221000CF01880F991F880F991F880F991FE80F0A
:10222000F91FE752F74FA181B28112960D90BC9130
:10223000A02DB283A183CF010396A817B90731F46B
:1022400012968D919C911397928381830180F281E4
:10225000E02D868197819093FE088093FD08089574
:10226000CF93DF93EB016091FD087091FE08645FEE
:102270007F4F0E9438048091FD089091FE080296DD
:102280000E9469048091AD089091AE088C0F9D1F4B
:1022900084DCDF91CF9108950F931F93CF93DF9349
:1022A000DC011596ED91FC911697C681D7818E01C0
:1022B000045F1F4FC8010E9469048091A608811124
:1022C0001CC00A501109C8010E9469048E899091AE
:1022D000AC08981710F48093AC0890E09C01220F92
:1022E000331F220F331F220F331F820F931FB8019A
:1022F0008752974F0E94170405C0B8018AEB98E0F7
:102300000E941704E091FD08F091FE089E898689DD
:10231000891720F481E08093A90801C080E0DF9153
:10232000CF911F910F9108952091A808FC0120835F
:102330002091AD083091AE083283218308950FB605
:10234000F8940F922091AD083091AE084091A80802
:10235000DC015C91541739F011964D915C91129704
:1023600024173507C0F4DC011196ED91FC9112970A
:10237000DB014D915C91D901AE1BBF0BA417B507D2
:1023800060F4E21BF30B4E0F5F1FFB015183408390
:10239000CBDF80E003C081E001C081E00F900FBE81
:1023A000089581E08093A908089510926C0981E056
:1023B00080936A091092690961E084E10E94641ABD
:1023C00061E085E10E94641AE9EBF0E080818E7F94
:1023D000808380818D7F80838DEF8093B80085E43A
:1023E0008093BC000895413208F045C090916C097B
:1023F0009111FCCF91E090936C0920936A092FEF23
:102400002093FF0810924409240F209343099093CE
:102410006B0990916B09880F892B80936B098091D0
:102420006909813051F41092690980916B09809398
:10243000BB0085EC8093BC0003C085EE8093BC009C
:1024400080916C098130E1F380914409841710F484
:1024500040914409442389F0E5E4F9E0A62FB72F21
:102460002FEF240F30E02A5B364F91919D93E217B6
:10247000F307D9F704C080E00895842F0895842FCE
:1024800008950F93413208F050C090916C0991115A
:10249000FCCF92E090936C0900936A099FEF9093B0
:1024A000FF081092440940934309442369F0FB015B
:1024B000A5E4B9E06F5F7F4F4150640F711D9191AA
:1024C0009D93E617F707D9F710926B0990916B0966
:1024D000880F892B80936B0980916909813051F4B1
:1024E0001092690980916B098093BB0085EC809301
:1024F000BC0003C085EE8093BC00222341F0809194
:102500006C09823021F480916C098230E1F3809172
:10251000FF088F3F61F08091FF08803251F0809179
:10252000FF08803341F483E007C081E005C080E00C
:1025300003C082E001C084E00F9108956132A8F4E5
:1025400020916C09243099F460932109662389F065
:10255000FC01A3E2B9E001966150860F911D219123
:102560002D93E817F907D9F706C081E0089582E0B6
:10257000089580E0089580E0089585ED8093BC0083
:10258000ECEBF0E0808184FDFDCF10926C090895A2
:1025900085EC8093BC0010926C0908951F920F92F5
:1025A0000FB60F9211240BB60F922F933F934F93B8
:1025B0005F936F937F938F939F93AF93BF93EF93AB
:1025C000FF938091B900887F90E0893C910508F0E5
:1025D000EDC0FC01EE58FF4FF8C780916B09809366
:1025E000BB0085EC8093BC00E1C0909144098091D0
:1025F0004309981780F4E091440981E08E0F80939D
:102600004409F0E0EB5BF64F80818093BB0085ECE2
:102610008093BC00CBC080916A09882311F0ADDFA4
:10262000C5C081E08093690984EA8093BC00109260
:102630006C09BCC080E28093FF089FDFB7C080E3D5
:102640008093FF089ADFB2C088E38093FF08A0DF81
:10265000ADC0E091440981E08E0F809344098091E0
:10266000BB00F0E0EB5BF64F8083909144098091D2
:102670004309981720F485EC8093BC0097C085E847
:102680008093BC0093C0E091440981E08E0F809359
:1026900044098091BB00F0E0EB5BF64F80838091B2
:1026A0006A09882311F069DF81C081E0809369099C
:1026B00084EA8093BC0010926C0978C05EDF76C01B
:1026C00083E080936C091092000985EC8093BC0034
:1026D0006DC080910009803280F4E091000981E0B2
:1026E0008E0F809300098091BB00F0E0EF5FF64F02
:1026F000808385EC8093BC0059C085E88093BC0042
:1027000055C080910009803230F4E0910009F0E07A
:10271000EF5FF64F108231DF6091000970E0E091C9
:102720006509F091660981E099E019951092000918
:102730002FDF3CC085E88093BC0038C084E08093E4
:102740006C091092220910922109E0916709F09119
:102750006809199580912109811105C081E0809354
:10276000210910922309E091220981E08E0F8093C4
:102770002209F0E0ED5DF64F80818093BB009091DF
:10278000220980912109981720F485EC8093BC00E0
:102790000DC085E88093BC0009C085EC8093BC0027
:1027A00010926C0903C01092FF08E7DEFF91EF91D1
:1027B000BF91AF919F918F917F916F915F914F9159
:1027C0003F912F910F900BBE0F900FBE0F901F9057
:1027D000189580919D0990E020919E09821B910996
:1027E000089520919E0980919D09281750F4E22FA9
:1027F000F0E0E156F64F808190E02F5F20939E0934
:1028000008958FEF9FEF0895E0919E0980919D09B3
:10281000E81730F4F0E0E156F64F808190E008953B
:102820008FEF9FEF08950895CF92DF92EF92FF927E
:102830000F931F93CF93DF938C017B016A018091EB
:102840007909882399F04115510599F0EB01E40EBF
:10285000F51E6991D801ED91FC910190F081E02D78
:10286000C8011995CE15DF05A1F703C0642FC70174
:1028700065DEC601DF91CF911F910F91FF90EF9020
:10288000DF90CF900895CF93DF931F92CDB7DEB73F
:102890006983209179092223E1F020917A0920327D
:1028A00040F021E030E0FC013383228380E090E0BF
:1028B00016C080917B09E82FF0E0E458F64F99812B
:1028C00090838F5F80937B0980937A0981E090E009
:1028D00006C061E0CE01019631DE81E090E00F900C
:1028E000DF91CF910895FC011382128248EE53E0EC
:1028F00060E070E0448355836683778380E692E0EE
:1029000091838083089510929E0910929D091092E0
:102910007B0910927A0949CD0895862F413208F03B
:1029200040E26FE979E05FDD10929E0980939D0996
:10293000089521E0F2CF089581E0809379096093B2
:102940009C0910927B0910927A0908950F93062F23
:1029500021E040917A096CE779E080919C0991DD52
:1029600010927B0910927A09109279090F910895BB
:1029700061E0ECCF08958DE699E0B5CF08950CD0D5
:10298000EBC0E3D040F0DAD030F021F45F3F19F033
:10299000CCC0511115C1CFC0F0D098F39923C9F321
:1029A0005523B1F3951B550BBB27AA276217730755
:1029B000840738F09F5F5F4F220F331F441FAA1F09
:1029C000A9F333D00E2E3AF0E0E830D091505040C9
:1029D000E695001CCAF729D0FE2F27D0660F771F77
:1029E000881FBB1F261737074807AB07B0E809F059
:1029F000BB0B802DBF01FF2793585F4F2AF09E3FEE
:102A0000510568F092C0DCC05F3FECF3983EDCF308
:102A1000869577956795B795F7959F5FC9F7880F66
:102A2000911D9695879597F90895E1E0660F771FB8
:102A3000881FBB1F621773078407BA0720F0621B49
:102A4000730B840BBA0BEE1F88F7E095089504D042
:102A50006894B111B5C0089598D088F09F5790F050
:102A6000B92F9927B751A0F0D1F0660F771F881FB3
:102A7000991F1AF0BA95C9F712C0B13081F09FD0F2
:102A8000B1E008959CC0672F782F8827B85F39F090
:102A9000B93FCCF3869577956795B395D9F73EF412
:102AA00090958095709561957F4F8F4F9F4F0895BA
:102AB000E89409C097FB3EF49095809570956195D8
:102AC0007F4F8F4F9F4F9923A9F0F92F96E9BB278E
:102AD0009395F695879577956795B795F111F8CF0A
:102AE000FAF4BB0F11F460FF1BC06F5F7F4F8F4F75
:102AF0009F4F16C0882311F096E911C0772321F06B
:102B00009EE8872F762F05C0662371F096E8862F02
:102B100070E060E02AF09A95660F771F881FDAF759
:102B2000880F9695879597F9089597F99F6780E89C
:102B300070E060E008959FEF80EC089500240A940F
:102B40001616170618060906089500240A94121688
:102B50001306140605060895092E0394000C11F4BB
:102B6000882352F0BB0F40F4BF2B11F460FF04C068
:102B70006F5F7F4F8F4F9F4F089557FD9058440FC1
:102B8000551F59F05F3F71F04795880F97FB991FCC
:102B900061F09F3F79F08795089512161306140689
:102BA000551FF2CF4695F1DF08C016161706180616
:102BB000991FF1CF86957105610508940895E894F1
:102BC000BB2766277727CB0197F908950BD0C4CF91
:102BD000B5DF28F0BADF18F0952309F0A6CFABCF08
:102BE0001124EECFCADFA0F3959FD1F3950F50E0EB
:102BF000551F629FF001729FBB27F00DB11D639FAF
:102C0000AA27F00DB11DAA1F649F6627B00DA11D54
:102C1000661F829F2227B00DA11D621F739FB00DFA
:102C2000A11D621F839FA00D611D221F749F33276A
:102C3000A00D611D231F849F600D211D822F762F03
:102C40006A2F11249F5750408AF0E1F088234AF000
:102C5000EE0FFF1FBB1F661F771F881F915050404C
:102C6000A9F79E3F510570F060CFAACF5F3FECF30C
:102C7000983EDCF3869577956795B795F795E79538
:102C80009F5FC1F7FE2B880F911D9695879597F949
:102C90000895FC01818D228D90E0805C9F4F821B06
:102CA00091098F7399270895FC01918D828D981752
:102CB00031F0828DE80FF11D858D90E008958FEF42
:102CC0009FEF0895FC01918D828D981761F0828DA0
:102CD000DF01A80FB11D5D968C91928D9F5F9F7350
:102CE000928F90E008958FEF9FEF0895FC01848DFF
:102CF000DF01A80FB11DA35ABF4F2C91848D90E026
:102D000001968F739078848FA689B7892C93A089B8
:102D1000B1898C9180648C93938D848D981306C0B7
:102D20000288F389E02D80818F7D80830895CF9381
:102D3000DF93EC01888D81110AC01AC00FB607FC21
:102D400008C0808185FF05C00DC0CE01CFDFEA89B4
:102D5000FB89808185FDF2CFA889B9898C9186FF96
:102D6000EDCF06C0A889B9898C9185FFF2CFEDCF50
:102D7000DF91CF9108950F931F93CF93DF93EC01D1
:102D8000162F81E0888F9B8D8C8D981321C0E88948
:102D9000F989808185FD23C01BC00FB607FC07C0E1
:102DA000E889F989808185FF02C0CE019FDF9C8D73
:102DB000091799F38B8DFE01E80FF11DE35AFF4FC0
:102DC00010830B8FEA89FB898081806280830FC02A
:102DD0008B8D90E001968F739078082FE8CFEE8965
:102DE000FF896083E889F98980818064808381E03C
:102DF00090E0DF91CF911F910F910895CF92DF92D4
:102E0000EF92FF921F93CF93DF93EC016A017B0156
:102E1000122FE889F98982E08083411581EE5807F5
:102E200061057105A9F060E079E08DE390E0A7010C
:102E30009601A9D3BA01A90141505109610971094B
:102E40007695679557954795411580E15807A0F00D
:102E5000E889F989108260E874E88EE190E0A701C2
:102E6000960191D3BA01A901415051096109710933
:102E70007695679557954795EC85FD855083EE854A
:102E8000FF854083188EEC89FD891083EA89FB89D0
:102E9000808180618083EA89FB898081886080836A
:102EA000EA89FB89808180688083EA89FB89808147
:102EB0008F7D8083DF91CF911F91FF90EF90DF9006
:102EC000CF9008951F920F920FB60F9211240BB658
:102ED0000F922F938F939F93AF93BF93EF93FF9393
:102EE000E091CF09F091D009808182FD17C0E09177
:102EF000D509F091D60920818091D8098F5F8F7311
:102F00009091D909891779F0E8EDF9E0A081B0E056
:102F1000A154B64F5D962C93808305C0E091D509EE
:102F2000F091D6098081FF91EF91BF91AF919F9170
:102F30008F912F910F900BBE0F900FBE0F901F908F
:102F400018951F920F920FB60F9211240BB60F9285
:102F50002F933F934F935F936F937F938F939F93A1
:102F6000AF93BF93EF93FF938FEB99E0BFDEFF9199
:102F7000EF91BF91AF919F918F917F916F915F91F1
:102F80004F913F912F910F900BBE0F900FBE0F905E
:102F90001F9018951092C2091092C10988EE93E013
:102FA000A0E0B0E08093C3099093C409A093C50941
:102FB000B093C60980E792E09093C0098093BF095F
:102FC00085EC90E09093CC098093CB0984EC90E061
:102FD0009093CE098093CD0980EC90E09093D00936
:102FE0008093CF0981EC90E09093D2098093D1092E
:102FF00082EC90E09093D4098093D30986EC90E022
:103000009093D6098093D5091092D8091092D909C6
:103010001092DA091092DB090895CF92DF92EF92B5
:10302000FF920F931F93CF93DF936C0141155105CE
:10303000B1F0062F172FEA01E12CF12CD8016D9188
:103040008D01D601ED91FC910190F081E02DC6013A
:103050001995E80EF91E2197209781F702C0E12CFF
:10306000F12CC701DF91CF911F910F91FF90EF904D
:10307000DF90CF900895DC01ED91FC910190F081FB
:10308000E02D199508956F927F928F929F92AF9243
:10309000BF92CF92DF92EF92FF920F931F93CF9345
:1030A000DF93CDB7DEB7A1970FB6F894DEBF0FBEA2
:1030B000CDBF6C01742E352F862F972F622E19A24B
:1030C00021E0261520F00F2EFAE06F2EF02D7E0164
:1030D000A1E2EA0EF11C862C912CA12CB12C672DBB
:1030E000732FA50194014FD2E22F732F022F132FBC
:1030F000242F352FF72D6E9EF0191124B1E0EB1A15
:10310000F108FA3010F4F05D01C0F95CD701FC93CE
:10311000012B022B032B29F07E2E372F842F952F86
:10312000DECFE114F10491F0F70101900020E9F7FE
:103130003197AF014E195F09D601ED91FC910280E4
:10314000F381E02DB701C601199502C080E090E03F
:10315000A1960FB6F894DEBF0FBECDBFDF91CF9121
:103160001F910F91FF90EF90DF90CF90BF90AF90A5
:103170009F908F907F906F900895CF92DF92EF9203
:10318000FF920F931F93CF93DF93EC016A017B01B2
:103190002115310541F4E881F9810190F081E02D9C
:1031A000642F199519C02A303105A9F4772384F4C6
:1031B0006DE261DF8C0144275527BA014C195D0986
:1031C0006E097F092AE0CE015EDF800F911F04C0E7
:1031D0002AE059DF01C057DFDF91CF911F910F9196
:1031E000FF90EF90DF90CF9008959A01AB01662792
:1031F00057FD6095762FC1CF08951F920F920FB69D
:103200000F9211242F933F938F939F93AF93BF936C
:1032100080915D0A90915E0AA0915F0AB091600A68
:1032200030915C0A23E0230F2D3720F40196A11D75
:10323000B11D05C026E8230F0296A11DB11D2093E4
:103240005C0A80935D0A90935E0AA0935F0AB09334
:10325000600A8091610A9091620AA091630AB0911C
:10326000640A0196A11DB11D8093610A9093620AC0
:10327000A093630AB093640ABF91AF919F918F911D
:103280003F912F910F900FBE0F901F9018952FB761
:10329000F89460915D0A70915E0A80915F0A909146
:1032A000600A2FBF08958230910538F0880F991F6A
:1032B000880F991F05970197F1F70895789484B5C1
:1032C000826084BD84B5816084BD85B5826085BD22
:1032D00085B5816085BDEEE6F0E080818160808308
:1032E000E1E8F0E0108280818260808380818160EB
:1032F0008083E0E8F0E0808181608083E1EBF0E0B2
:10330000808184608083E0EBF0E080818160808355
:10331000E1E9F0E080818260808380818160808348
:10332000E0E9F0E0808181608083E1EAF0E0808183
:1033300082608083808181608083E0EAF0E0808128
:1033400081608083E1E2F1E080818260808380811E
:1033500081608083E0E2F1E0808181608083EAE740
:10336000F0E08081846080838081826080838081BE
:10337000816080838081806880831092C10008957D
:1033800090E0FC013197E231F10508F05EC0E55CA8
:10339000FE4F1BC1E0E8F0E080818F7780830895C5
:1033A000E0E8F0E080818F7D80830895E0E8F0E040
:1033B0008081877F8083089584B58F7784BD089549
:1033C00084B58F7D84BD0895E0EBF0E080818F7738
:1033D00080830895E0EBF0E080818F7D8083089505
:1033E000E0E9F0E080818F7780830895E0E9F0E004
:1033F00080818F7D80830895E0E9F0E08081877F80
:1034000080830895E0EAF0E080818F7780830895DB
:10341000E0EAF0E080818F7D80830895E0EAF0E0CB
:103420008081877F80830895E0E2F1E080818F775B
:1034300080830895E0E2F1E080818F7D80830895AC
:10344000E0E2F1E08081877F80830895CF93DF936E
:1034500090E0FC01E052FD4F2491FC01EA5DFC4F3D
:103460008491882371F190E0880F991FFC01E05648
:10347000FC4FA591B4918A579C4FFC01C591D49102
:1034800061110BC08FB7F8949C91209592239C9367
:10349000E8812E2328838FBF14C0623061F48FB778
:1034A000F8943C91922F909593239C93E8812E2B36
:1034B00028838FBF06C08FB7F894EC912E2B2C93E6
:1034C0008FBFDF91CF9108951F93CF93DF93C62FC6
:1034D000282F30E0F901E656FD4F8491F901E052C2
:1034E000FD4F1491F901EA5DFC4FD491DD23C1F049
:1034F000811146DF2D2F30E0F901EE0FFF1FEA5753
:10350000FC4FA591B4918FB7F894C11105C0EC910F
:1035100010951E231C9303C0EC911E2B1C938FBF90
:10352000DF91CF911F9108950F931F93762F90E015
:10353000FC01E052FD4F6491FC01EA5DFC4FE49117
:103540007111762FF0E0EE0FFF1FE459FC4F8591CB
:10355000949189019A013F70472F0E9412026115D0
:1035600071058105910549F0DC01CB010196A11D92
:10357000B11DBC01CD019F7003C060E070E0CB01C4
:103580001F910F910895A1E21A2EAA1BBB1BFD01EA
:103590000DC0AA1FBB1FEE1FFF1FA217B307E40732
:1035A000F50720F0A21BB30BE40BF50B661F771F8A
:1035B000881F991F1A9469F760957095809590956A
:1035C0009B01AC01BD01CF010895EE0FFF1F0590D7
:1035D000F491E02D19940790F691E02D1994FB01D8
:1035E000DC0102C001900D9241505040D8F708957F
:0435F000F894FFCF7D
:1035F40004000300FFFF018001800180FF7FFF7F43
:10360400FF7F20075B014F045C07A401B3047072C1
:10361400696E74410052656164204779726F6D650B
:10362400746572005265616420416363656C657200
:103634006F6D65746572005265616420556C7472B7
:1036440061736F6E69630049444C450000000000DB
:1036540043141414E913F1130414131400000000A8
:0C366400BB160D18491662165416971676
:00000001FF
